:020000040800F2
:1000000000500020B1B40008152100081B21000891
:1000100021210008272100082D21000800000000F0
:100020000000000000000000000000005155000822
:1000300033210008000000003157000879570008FC
:10004000F9B40008F9B40008F9B40008F9B40008DC
:10005000F9B40008F9B40008F9B40008F9B40008CC
:10006000F9B40008F9B40008F9B40008F9B40008BC
:10007000F9B40008F9B40008F9B40008F9B40008AC
:10008000F9B40008F9B40008F9B40008F9B400089C
:10009000F9B40008F9B40008F9B40008F9B400088C
:1000A000F9B4000841210008F9B40008F9B40008C7
:1000B000F9B4000855210008F9B40008F9B40008A3
:1000C000F9B40008F9B40008F9B40008F9B400085C
:1000D000F9B40008F9B40008F9B40008F9B400084C
:1000E000F9B40008F9B40008F9B4000800000000F1
:1000F0000000000000000000000000000000000000
:0C01000000000000000000005FF808F1A3
:10011000044B05481B1A062B02D9044B03B11847A0
:10012000704700BFA3040020A004002000000000CE
:1001300005490648091A891001EBD171491002D00E
:10014000034B03B118477047A0040020A00400200F
:100150000000000010B5064C237843B9FFF7D8FF24
:10016000044B13B10448AFF300800123237010BD8A
:10017000A00400200000000010B5000808B5084BDE
:100180001BB108490848AFF300800848036813B959
:10019000BDE80840CCE7064B002BF9D09847F7E7BD
:1001A00000000000A404002010B50008A0040020F6
:1001B0000000000081F0004102E000BF83F0004336
:1001C00030B54FEA41044FEA430594EA050F08BFF2
:1001D00090EA020F1FBF54EA000C55EA020C7FEAB6
:1001E000645C7FEA655C00F0E2804FEA5454D4EB33
:1001F0005555B8BF6D420CDD2C4480EA020281EAFD
:10020000030382EA000083EA010180EA020281EA34
:100210000303362D88BF30BD11F0004F4FEA013186
:100220004FF4801C4CEA113102D0404261EB410195
:1002300013F0004F4FEA03334CEA133302D052421B
:1002400063EB430394EA050F00F0A780A4F10104D7
:10025000D5F1200E0DDB02FA0EFC22FA05F2801811
:1002600041F1000103FA0EF2801843FA05F35941F7
:100270000EE0A5F120050EF1200E012A03FA0EFC76
:1002800028BF4CF0020C43FA05F3C01851EBE371A0
:1002900001F0004507D54FF0000EDCF1000C7EEBBD
:1002A00000006EEB0101B1F5801F1BD3B1F5001FFB
:1002B0000CD349085FEA30004FEA3C0C04F101041A
:1002C0004FEA445212F5800F80F09A80BCF1004F43
:1002D00008BF5FEA500C50F1000041EB045141EAC5
:1002E000050130BD5FEA4C0C404141EB010111F4C6
:1002F000801FA4F10104E9D191F0000F04BF014671
:100300000020B1FA81F308BF2033A3F10B03B3F14E
:1003100020020CDA0C3208DD02F1140CC2F10C02DE
:1003200001FA0CF021FA02F10CE002F11402D8BF3C
:10033000C2F1200C01FA02F120FA0CFCDCBF41EA08
:100340000C019040E41AA2BF01EB0451294330BDD7
:100350006FEA04041F3C1CDA0C340EDC04F11404B4
:10036000C4F1200220FA04F001FA02F340EA03008B
:1003700021FA04F345EA030130BDC4F10C04C4F1D1
:10038000200220FA02F001FA04F340EA03002946B1
:1003900030BD21FA04F0294630BD94F0000F83F4FB
:1003A000801306BF81F480110134013D4EE77FEADE
:1003B000645C18BF7FEA655C29D094EA050F08BF2A
:1003C00090EA020F05D054EA000C04BF194610460B
:1003D00030BD91EA030F1EBF0021002030BD5FEA4F
:1003E000545C05D14000494128BF41F0004130BD77
:1003F00014F580043CBF01F5801130BD01F00045CB
:1004000045F0FE4141F470014FF0000030BD7FEA3D
:10041000645C1ABF194610467FEA655C1CBF0B4638
:10042000024650EA013406BF52EA033591EA030F4F
:1004300041F4002130BD00BF90F0000F04BF002147
:10044000704730B54FF4806404F132044FF000057A
:100450004FF0000150E700BF90F0000F04BF0021F3
:10046000704730B54FF4806404F1320410F0004559
:1004700048BF40424FF000013EE700BF42004FEA54
:10048000E2014FEA31014FEA02701FBF12F07F43D1
:1004900093F07F4F81F06051704792F0000F14BFCE
:1004A00093F07F4F704730B54FF4607401F0004512
:1004B00021F0004120E700BF50EA010208BF704769
:1004C00030B54FF000050AE050EA010208BF70475E
:1004D00030B511F0004502D5404261EB41014FF4C7
:1004E000806404F132045FEA915C3FF4DCAE4FF0CB
:1004F00003025FEADC0C18BF03325FEADC0C18BFB2
:10050000033202EBDC02C2F1200300FA03FC20FA02
:1005100002F001FA03FE40EA0E0021FA02F114444F
:10052000C1E600BF70B54FF0FF0C4CF4E06C1CEA64
:1005300011541DBF1CEA135594EA0C0F95EA0C0FD9
:1005400000F0DEF82C4481EA030621EA4C5123EA4C
:100550004C5350EA013518BF52EA033541F480117B
:1005600043F4801338D0A0FB02CE4FF00005E1FB2E
:1005700002E506F00042E0FB03E54FF00006E1FB78
:1005800003569CF0000F18BF4EF0010EA4F1FF04BB
:10059000B6F5007F64F5407404D25FEA4E0E6D41FB
:1005A00046EB060642EAC62141EA55514FEAC5200C
:1005B00040EA5E504FEACE2EB4F1FD0C88BFBCF588
:1005C000E06F1ED8BEF1004F08BF5FEA500E50F139
:1005D000000041EB045170BD06F0004646EA0101FF
:1005E00040EA020081EA0301B4EB5C04C2BFD4EB31
:1005F0000C0541EA045170BD41F480114FF0000E2A
:10060000013C00F3AB8014F1360FDEBF002001F097
:10061000004170BDC4F10004203C35DA0C341BDC11
:1006200004F11404C4F1200500FA05F320FA04F0E3
:1006300001FA05F240EA020001F0004221F0004117
:1006400010EBD37021FA04F642EB06015EEA430E8A
:1006500008BF20EAD37070BDC4F10C04C4F12005BA
:1006600000FA04F320FA05F001FA04F240EA02006D
:1006700001F0004110EBD37041F100015EEA430E3E
:1006800008BF20EAD37070BDC4F1200500FA05F25E
:100690004EEA020E20FA04F301FA05F243EA0203DD
:1006A00021FA04F001F0004121FA04F220EA0200EC
:1006B00000EBD3705EEA430E08BF20EAD37070BD32
:1006C00094F0000F0FD101F00046400041EB010112
:1006D00011F4801F08BF013CF7D041EA060195F0F4
:1006E000000F18BF704703F00046520043EB0303AE
:1006F00013F4801F08BF013DF7D043EA060370479B
:1007000094EA0C0F0CEA135518BF95EA0C0F0CD0A5
:1007100050EA410618BF52EA4306D1D181EA0301EB
:1007200001F000414FF0000070BD50EA410606BFE5
:100730001046194652EA430619D094EA0C0F02D12A
:1007400050EA013613D195EA0C0F05D152EA03366F
:100750001CBF104619460AD181EA030101F000418D
:1007600041F0FE4141F470014FF0000070BD41F0D6
:10077000FE4141F4780170BD70B54FF0FF0C4CF4B0
:10078000E06C1CEA11541DBF1CEA135594EA0C0FCF
:1007900095EA0C0F00F0A7F8A4EB050481EA030E1C
:1007A00052EA03354FEA013100F088804FEA033303
:1007B0004FF0805545EA131343EA12634FEA0222D1
:1007C00045EA111545EA10654FEA00260EF0004192
:1007D0009D4208BF964244F1FD0404F5407402D2E4
:1007E0005B084FEA3202B61A65EB03055B084FEA75
:1007F00032024FF480104FF4002CB6EB020E75EB72
:10080000030E22BFB61A754640EA0C005B084FEA99
:100810003202B6EB020E75EB030E22BFB61A754616
:1008200040EA5C005B084FEA3202B6EB020E75EB61
:10083000030E22BFB61A754640EA9C005B084FEAD9
:100840003202B6EB020E75EB030E22BFB61A7546E6
:1008500040EADC0055EA060E18D04FEA051545EAD5
:1008600016754FEA06164FEAC30343EA52734FEA7E
:10087000C2025FEA1C1CC0D111F4801F0BD141EAF7
:1008800000014FF000004FF0004CB6E711F4801F5C
:1008900004BF01430020B4F1FD0C88BFBCF5E06F3C
:1008A0003FF6AFAEB5EB030C04BFB6EB020C5FEA4C
:1008B000500C50F1000041EB045170BD0EF0004EA1
:1008C0004EEA113114EB5C04C2BFD4EB0C0541EAD3
:1008D000045170BD41F480114FF0000E013C90E6D0
:1008E00045EA060E8DE60CEA135594EA0C0F08BF94
:1008F00095EA0C0F3FF43BAF94EA0C0F0AD150EA93
:1009000001347FF434AF95EA0C0F7FF425AF104625
:1009100019462CE795EA0C0F06D152EA03353FF44D
:10092000FDAE1046194622E750EA410618BF52EACA
:1009300043067FF4C5AE50EA41047FF40DAF52EA9E
:1009400043057FF4EBAE12E74FEA410212F50012C5
:1009500015D211D56FF47873B3EB625212D94FEA06
:10096000C12343F0004343EA505311F0004F23FAF0
:1009700002F018BF404270474FF00000704750EA45
:10098000013005D111F0004008BF6FF00040704702
:100990004FF00000704700BF4FEA4102B2F1E04360
:1009A00024BFB3F5001CDCF1FE5C0DD901F0004C56
:1009B0004FEAC0024CEA5070B2F1004F40EB8300A6
:1009C00008BF20F00100704711F0804F21D113F1D2
:1009D0003872BCBF01F00040704741F480114FEA0B
:1009E0005252C2F11802C2F1200C10FA0CF320FA94
:1009F00002F018BF40F001004FEAC1234FEAD323B1
:100A000003FA0CFC40EA0C0023FA02F34FEA43031A
:100A1000CCE77FEA625307D150EA01331EBF4FF0A3
:100A2000FE4040F44000704701F0004040F0FE40BE
:100A300040F40000704700BF80F0004002E000BFBB
:100A400081F0004142001FBF5FEA410392EA030FB9
:100A50007FEA226C7FEA236C6AD04FEA1262D2EB03
:100A60001363C1BFD218414048404140B8BF5B4208
:100A7000192B88BF704710F0004F40F4000020F0A1
:100A80007F4018BF404211F0004F41F4000121F0B7
:100A90007F4118BF494292EA030F3FD0A2F1010201
:100AA00041FA03FC10EB0C00C3F1200301FA03F13F
:100AB00000F0004302D5494260EB4000B0F5000F62
:100AC00013D3B0F1807F06D340084FEA310102F121
:100AD0000102FE2A51D2B1F1004F40EBC25008BFD3
:100AE00020F0010040EA03007047490040EB00009D
:100AF00010F4000FA2F10102EDD1B0FA80FCACF1CC
:100B0000080CB2EB0C0200FA0CF0AABF00EBC250CA
:100B100052421843BCBFD0401843704792F0000FB8
:100B200081F4000106BF80F400000132013BB5E70B
:100B30004FEA41037FEA226C18BF7FEA236C21D081
:100B400092EA030F04D092F0000F08BF08467047E6
:100B500090EA010F1CBF0020704712F07F4F04D1B4
:100B6000400028BF40F00040704712F100723CBFC7
:100B700000F50000704700F0004343F0FE4040F4F1
:100B8000000070477FEA226216BF08467FEA2363AF
:100B90000146420206BF5FEA412390EA010F40F49A
:100BA000800070474FF0000304E000BF10F00043E6
:100BB00048BF40425FEA000C08BF704743F09643CD
:100BC00001464FF000001CE050EA010208BF7047E8
:100BD0004FF000030AE000BF50EA010208BF70476F
:100BE00011F0004302D5404261EB41015FEA010C84
:100BF00002BF84460146002043F0B64308BFA3F17C
:100C00008053A3F50003BCFA8CF2083AA3EBC2535D
:100C100010DB01FA02FC634400FA02FCC2F120027C
:100C2000BCF1004F20FA02F243EB020008BF20F0B3
:100C30000100704702F1200201FA02FCC2F1200219
:100C400050EA4C0021FA02F243EB020008BF20EA0E
:100C5000DC7070474FF0FF0C1CEAD0521EBF1CEA3C
:100C6000D15392EA0C0F93EA0C0F6FD01A4480EA2A
:100C7000010C400218BF5FEA41211ED04FF0006313
:100C800043EA501043EA5111A0FB01310CF000403F
:100C9000B1F5000F3EBF490041EAD3715B0040EA65
:100CA000010062F17F02FD2A1DD8B3F1004F40EB35
:100CB000C25008BF20F00100704790F0000F0CF008
:100CC000004C08BF49024CEA502040EA51207F3ACC
:100CD000C2BFD2F1FF0340EAC250704740F40000A7
:100CE0004FF00003013A5DDC12F1190FDCBF00F098
:100CF00000407047C2F10002410021FA02F1C2F146
:100D0000200200FA02FC5FEA310040F1000053EAE1
:100D10004C0308BF20EADC70704792F0000F00F02F
:100D2000004C02BF400010F4000F013AF9D040EA35
:100D30000C0093F0000F01F0004C02BF490011F4C9
:100D4000000F013BF9D041EA0C018FE70CEAD153C7
:100D500092EA0C0F18BF93EA0C0F0AD030F0004C47
:100D600018BF31F0004CD8D180EA010000F00040FB
:100D7000704790F0000F17BF90F0004F084691F0B9
:100D8000000F91F0004F14D092EA0C0F01D14202F3
:100D90000FD193EA0C0F03D14B0218BF084608D1BC
:100DA00080EA010000F0004040F0FE4040F4000006
:100DB000704740F0FE4040F4400070474FF0FF0C99
:100DC0001CEAD0521EBF1CEAD15392EA0C0F93EAE0
:100DD0000C0F69D0A2EB030280EA010C49024FEA32
:100DE000402037D04FF0805343EA111143EA1013EB
:100DF0000CF000408B4238BF5B0042F17D024FF4A3
:100E0000000C8B4224BF5B1A40EA0C00B3EB510F7D
:100E100024BFA3EB510340EA5C00B3EB910F24BF66
:100E2000A3EB910340EA9C00B3EBD10F24BFA3EBEB
:100E3000D10340EADC001B0118BF5FEA1C1CE0D1B3
:100E4000FD2A3FF650AF8B4240EBC25008BF20F066
:100E5000010070470CF0004C4CEA50207F32C2BFBA
:100E6000D2F1FF0340EAC250704740F400004FF057
:100E70000003013A37E792F0000F00F0004C02BF88
:100E8000400010F4000F013AF9D040EA0C0093F052
:100E9000000F01F0004C02BF490011F4000F013BAC
:100EA000F9D041EA0C0195E70CEAD15392EA0C0F14
:100EB00008D142027FF47DAF93EA0C0F7FF470AF4C
:100EC000084676E793EA0C0F04D14B023FF44CAF8F
:100ED00008466EE730F0004C18BF31F0004CCAD124
:100EE00030F000427FF45CAF31F000437FF43CAF60
:100EF0005FE700BF4FF0FF3C06E000BF4FF0010C82
:100F000002E000BF4FF0010C4DF804CD4FEA400263
:100F10004FEA41037FEA226C18BF7FEA236C11D0AD
:100F200001B052EA530C18BF90EA010F58BFB2EB60
:100F3000030088BFC81738BF6FEAE17018BF40F0E0
:100F4000010070477FEA226C02D15FEA402C05D194
:100F50007FEA236CE4D15FEA412CE1D05DF8040B19
:100F6000704700BF844608466146FFE70FB5FFF7AC
:100F7000C9FF002848BF10F1000F0FBD4DF808ED64
:100F8000FFF7F4FF0CBF012000205DF808FB00BF55
:100F90004DF808EDFFF7EAFF34BF012000205DF8AF
:100FA00008FB00BF4DF808EDFFF7E0FF94BF0120FC
:100FB00000205DF808FB00BF4DF808EDFFF7D2FFF9
:100FC00094BF012000205DF808FB00BF4DF808ED3C
:100FD000FFF7C8FF34BF012000205DF808FB00BF09
:100FE0004FEA4002B2F1FE4F0FD34FF09E03B3EB36
:100FF00012620DD94FEA002343F0004310F0004F76
:1010000023FA02F018BF404270474FF000007047CB
:1010100012F1610F01D1420205D110F0004008BF6A
:101020006FF0004070474FF00000704742000ED252
:10103000B2F1FE4F0BD34FF09E03B3EB126209D413
:101040004FEA002343F0004323FA02F070474FF0C9
:101050000000704712F1610F01D1420202D14FF03E
:10106000FF3070474FF00000704700BF7BB972B986
:101070000029BEBF00204FF0004106E008BF002855
:101080001CBF6FF000414FF0FF3000F0ADB9ADF183
:10109000080C6DE904CE002909DB002B1ADB00F0F7
:1010A00035F8DDF804E0DDE9022304B07047404282
:1010B00061EB4101002B1BDB00F028F8DDF804E0B8
:1010C000DDE9022304B0404261EB4101524263EB8F
:1010D00043037047524263EB430300F017F8DDF817
:1010E00004E0DDE9022304B0404261EB41017047B6
:1010F000524263EB430300F009F8DDF804E0DDE958
:10110000022304B0524263EB430370472DE9F047DA
:101110008C460E460446089D002B50D18A42174645
:101120006CD9B2FA82FEBEF1000F0BD0CEF1200CCA
:1011300001FA0EF620FA0CFC02FA0EF74CEA060C45
:1011400000FA0EF43A0CBCFBF2F9BBB202FB19CC6C
:1011500009FB03FA4FEA144848EA0C46B2450AD99B
:10116000F61909F1FF3180F02581B24540F2228164
:10117000A9F102093E44A6EB0A06B6FBF2F002FB17
:10118000106600FB03F3A4B244EA0644A34209D963
:10119000E41900F1FF3280F00B81A34240F2088194
:1011A00002383C440021E41A40EA0940002D62D094
:1011B000002324FA0EF42C606B60BDE8F0878B42AC
:1011C00007D9002D55D0002185E841000846BDE82B
:1011D000F087B3FA83F1002940F08F80B34202D345
:1011E000824200F2FC80841A66EB03060120B446BA
:1011F000002D40D085E81010BDE8F08712B9012716
:10120000B7FBF2F7B7FA87FEBEF1000F35D1012127
:10121000F61B4FEA174C1FFA87F8B6FBFCF20CFBE3
:10122000126608FB02F0230C43EA0646B04207D9D7
:10123000F61902F1FF3302D2B04200F2D2801A4610
:10124000361AB6FBFCF00CFB106608FB00F8A3B2E4
:1012500043EA0644A04507D9E41900F1FF3302D25E
:10126000A04500F2B9801846A4EB080440EA024009
:101270009CE729462846BDE8F08707FA0EF7CEF12D
:10128000200326FA03F24FEA174CB2FBFCF11FFAD7
:1012900087F80CFB112206FA0EF620FA03F301FB85
:1012A00008F933431E0C46EA0246B14500FA0EF433
:1012B00009D9F61901F1FF3280F08C80B14540F276
:1012C000898002393E44A6EB0906B6FBFCF00CFB14
:1012D000106200FB08F99EB246EA0246B14507D902
:1012E000F61900F1FF3371D2B1456FD902383E448F
:1012F000A6EB090640EA01418FE7C1F1200722FA77
:1013000007F88B4048EA030326FA07F44FEA134E26
:10131000B4FBFEF91FFA83FC0EFB19448E4020FA41
:1013200007F809FB0CFA48EA06084FEA184646EAAD
:101330000444A24502FA01F200FA01F608D9E418C1
:1013400009F1FF3044D2A24542D9A9F102091C4457
:10135000A4EB0A04B4FBFEF00EFB104400FB0CFCF3
:101360001FFA88F848EA0444A44507D9E41800F1B4
:10137000FF3E29D2A44527D902381C4440EA09403F
:10138000A0FB0289A4EB0C0CCC45C246CE4615D37B
:1013900012D055B1B6EB0A036CEB0E0606FA07F74E
:1013A000CB401F43CE402F606E600021BDE8F08728
:1013B0001046F7E68946DEE64645EAD2B8EB020A71
:1013C00069EB030E0138E4E77046D7E718468FE76C
:1013D0008146BDE7114676E702383C4444E70846BB
:1013E00006E7023A3E442BE7704700BF0023014660
:1013F0001A46184600F0C0B838B50A4C0A4D641BAE
:10140000A4100AD004F18043013B05EB8305013CA5
:1014100055F804399847002CF9D1BDE838400AF056
:101420007DB800BFB0C20008ACC2000870B50F4E56
:101430000F4D761BB61018BF002405D0013455F8A7
:10144000043B9847A642F9D10A4E0B4D0AF060F8CA
:10145000761BB61018BF002406D0013455F8043BA3
:101460009847A642F9D170BD70BD00BFA4C2000864
:10147000A4C20008ACC20008A4C20008032A70B4C9
:1014800022D940EA01039B0711D003780C78A342CC
:101490001DD10A44013105E010F8013F11F8014B5C
:1014A000A34214D19142F7D1002070BC70470D685F
:1014B00006680C46AE42034601F1040100F1040047
:1014C00008D1043A032AF2D8002ADED1ECE7181B2F
:1014D00070BC704721461846D7E700BF70B4860736
:1014E00046D0541E002A41D0CAB2034602E014F18D
:1014F000FF343BD303F8012B9D07F8D1032C2ED9E1
:10150000CDB245EA05250F2C45EA054519D92646F1
:1015100003F11002103E0F2E42F8105C42F80C5CF2
:1015200042F8085C42F8045C02F11002F2D8A4F11F
:10153000100222F00F0204F00F041032032C1344A7
:101540000DD91E462246043A032A46F8045BFAD80F
:10155000221F22F003020432134404F003042CB1CE
:10156000C9B21C4403F8011B9C42FBD170BC7047FC
:1015700014460346C2E700BF2DE9F047274C074653
:1015800026688846D6F8484192469946002C3CD0B9
:1015900065681F2D1ADC05F1010E7FB1012004EBF7
:1015A0008503C3F888A0D4F8881100FA05F2114326
:1015B000022FC4F88811C3F8089120D00235C4F86E
:1015C00004E0002044F82580BDE8F087144B0BB3FD
:1015D0004FF4C870AFF300800446D8B10020D6F8AD
:1015E00048314FF0010E606023600546C6F848415F
:1015F000C4F88801C4F88C01002FDFD0CEE7D4F8FE
:101600008C311A43C4F88C21D8E706F5A674C6F8C5
:101610004841BDE74FF0FF30BDE8F087F4B5000862
:101620000000000000F000B82DE9F84F54421443C8
:1016300023F00049DFF8C0E149EAD4747445064656
:101640000D4640D84442044321F0004B4BEAD47489
:1016500074458A4637D803F1404404F58014144396
:101660004AD09C1704F0020444EAD17450EA0B01FA
:1016700031D052EA090137D0F14552D0F34533D089
:10168000ABEB09094FEA2959B9F13C0F3BDC002BC0
:1016900066DB30462946FFF76FF800F051FA00F09C
:1016A000AFF8012C58D0022C48D0002C5ED040A3BB
:1016B000D3E90023FEF782FD3FA3D3E90023FEF721
:1016C0007DFDBDE8F88F1046194632462B46FEF7E1
:1016D00077FDBDE8F88F022C19D0032C10D138A16A
:1016E000D1E90001BDE8F88FBAF1000F14DB36A193
:1016F000D1E90001BDE8F88FBDE8F84F00F080B8EF
:101700002946BDE8F88F30A1D1E90001C9E72AA137
:10171000D1E90001BDE8F88F2DA1D1E90001BDE8B4
:10172000F88FCB4524D0022CF1D0032CD7D0012C3C
:101730004FF0000027D00021BDE8F88F1CA3D3E9AB
:101740000023FEF73BFD02460B461BA1D1E9000139
:10175000FEF734FDBDE8F88F01F10041BDE8F88FD8
:1017600019F13C0F95DA002000219AE7BDE8F88FC7
:10177000022C16D0032C0FD0012C08D016A1D1E9D1
:101780000001BDE8F88F4FF00041BDE8F88F14A1CB
:10179000D1E90001BDE8F88F13A1D1E90001BDE84E
:1017A000F88F13A1D1E90001BDE8F88FAFF30080F5
:1017B000075C143326A6A13C182D4454FB21094094
:1017C000182D4454FB2109C0182D4454FB21F93F26
:1017D000182D4454FB21F9BF182D4454FB21E93F37
:1017E000182D4454FB21E9BFD221337F7CD902C09C
:1017F000D221337F7CD902400000F07F000000003E
:101800002DE9F84FC24B21F000469E420D468A4614
:10181000044610DDBF4B9E4200F3B28000F0AD8065
:10182000BD4BBE49BE4CBAF1000FD8BF0B46204697
:101830001946BDE8F88FBB4B9E4200F3BE80A3F172
:10184000DE739E4240F3A8804FF0FF3B22462B46BA
:1018500020462946FEF766FE02460B46804689462C
:10186000FEF760FE92A3D3E9002306460F46FEF77B
:1018700059FE91A3D3E90023FEF7A2FC32463B4672
:10188000FEF750FE8EA3D3E90023FEF799FC324603
:101890003B46FEF747FE8CA3D3E90023FEF790FCFE
:1018A00032463B46FEF73EFE89A3D3E90023FEF70E
:1018B00087FC32463B46FEF735FE87A3D3E900237B
:1018C000FEF77EFC42464B46FEF72CFE84A3D3E98E
:1018D00000238046894630463946FEF723FE82A320
:1018E000D3E90023FEF76AFC32463B46FEF71AFEB8
:1018F0007FA3D3E90023FEF761FC32463B46FEF7A7
:1019000011FE7DA3D3E90023FEF758FC32463B4687
:10191000FEF708FE7AA3D3E90023FEF74FFC324618
:101920003B46FEF7FFFDBBF1FF3F02460B466BD087
:101930007D4E40464946FEF743FC06EBCB0B224664
:101940002B46FEF7EFFDDBE90823FEF737FC2246C6
:101950002B46FEF733FC0B460246DBE90001FEF79F
:101960002DFCBAF1000F04460B46BFF660AF01F143
:10197000004320461946BDE8F88F00283FF450AFD9
:1019800022462B4620462946FEF71AFC04460B4603
:1019900020461946BDE8F88F5BA3D3E90023FEF784
:1019A0000FFC0022614B00F04DF900283FF44CAFD2
:1019B0002B4620461946BDE8F88F00F0C1F85C4B75
:1019C00004469E420D4630DCA3F550239E4255DC72
:1019D00002460B46FEF7F4FB0022544BFEF7EEFBEB
:1019E000002206460F464FF0804320462946FEF768
:1019F000E7FB02460B4630463946FEF7BDFE4FF088
:101A0000000B04460D4621E740464946FEF7D8FB49
:101A100022462B46FEF786FD0B4602462946204607
:101A2000FEF7CCFB04460B4601E7424B9E421ADC14
:101A30000022414BFEF7C2FB002206460F463E4BFA
:101A400020462946FEF76EFD0022384BFEF7B8FB14
:101A500002460B4630463946FEF78EFE4FF0020B2B
:101A600004460D46F2E602460B4600203349FEF7D7
:101A700083FE4FF0030B04460D46E7E600222B4B96
:101A8000FEF79CFB002206460F46284B20462946BF
:101A9000FEF796FB02460B4630463946FEF76CFED3
:101AA0004FF0010B04460D46D0E600BFAFF30080B7
:101AB00011DA22E33AAD903FEB0D76244B7BA93F40
:101AC000513DD0A0660DB13F6E204CC5CD45B73F0E
:101AD000FF8300922449C23F0D5555555555D53FBA
:101AE0002F6C6A2C44B4A2BF9AFDDE522DDEAD3FAE
:101AF0006D9A74AFF2B0B33F711623FEC671BC3F4E
:101B0000C4EB98999999C93F9C7500883CE4377E4D
:101B1000FFFF0F440000F07FFB21F93FFB21F9BFDD
:101B2000182D4454FFFFDB3FF8B500080000F03FDC
:101B3000FFFFF23FFF7F03400000F83F0000F0BFCF
:101B400021F00041704700BF4FF0FF3C06E000BFAE
:101B50004FF0010C02E000BF4FF0010C4DF804CD36
:101B60004FEA410C7FEA6C5C4FEA430C18BF7FEAF6
:101B70006C5C1BD001B050EA410C0CBF52EA430C24
:101B800091EA030F02BF90EA020F0020704710F1A4
:101B9000000F91EA030F58BF994208BF90422CBF33
:101BA000D8176FEAE37040F0010070474FEA410C2C
:101BB0007FEA6C5C02D150EA013C07D14FEA430C4A
:101BC0007FEA6C5CD6D152EA033CD3D05DF8040BBB
:101BD000704700BF8446104662468C4619466346ED
:101BE00000E000BF01B5FFF7B7FF002848BF10F1C4
:101BF000000F01BD4DF808EDFFF7F4FF0CBF012009
:101C000000205DF808FB00BF4DF808EDFFF7EAFF84
:101C100034BF012000205DF808FB00BF4DF808ED3F
:101C2000FFF7E0FF94BF012000205DF808FB00BF34
:101C30004DF808EDFFF7CEFF94BF012000205DF8BE
:101C400008FB00BF4DF808EDFFF7C4FF34BF0120CB
:101C500000205DF808FB00BF80B500AF08F008FD6C
:101C600000F034F807F0E4FE08F0D6F808F0FEF9CA
:101C700008F050FA08F066FB08F08EFB08F0B6FB9F
:101C800008F050F808F046F93C210D4800F0B0FC8F
:101C90003C210C4800F0ACFC04F0B5FC04F0CAFC9C
:101CA0000021094800F060FB0C21074800F05CFBB4
:101CB000054800F0AFFA07F04FFF03F0B6F9FEE772
:101CC0001816002088150020D015002080B594B08B
:101CD00000AF07F12803282200211846FFF7FEFB7A
:101CE00007F1140300221A605A609A60DA601A61E0
:101CF0003B1D00221A605A609A60DA600123BB62C1
:101D00004FF48033FB6200233B630123BB63022358
:101D10007B644FF48033BB644FF4E013FB6407F142
:101D20002803184608F078FF0346002B01D000F086
:101D3000B5F90F237B610223BB610023FB614FF4E4
:101D400080633B6200237B6207F114030221184683
:101D500009F0E2F90346002B01D000F09FF90223BD
:101D60007B604FF40043FB603B1D184602F038FED9
:101D70000346002B01D000F091F900BF5037BD465B
:101D800080BD000080B485B000AF0346FB71FB79D5
:101D9000022B02D0042B0AD011E04FF080435B6A83
:101DA0001BB2FB604FF0804300225A6209E0084BEF
:101DB0005B6A1BB2FB60064B00225A6201E0002303
:101DC000FB60FB6818461437BD4680BC704700BFF7
:101DD0000008004000000000B0B586B000AF43210D
:101DE000D02007F0C1FC03461C024421D02007F09C
:101DF000BBFC034623441846FEF7D8FE0346FB60AF
:101E00004721D02007F0B0FC03461C024821D02017
:101E100007F0AAFC034623441846FEF7C7FE034614
:101E2000BB603D21D02007F09FFC03461C023E21F1
:101E3000D02007F099FC034623441846FEF7B6FE6F
:101E400003467B613F21D02007F08EFC03461C0235
:101E50004021D02007F088FC034623441846FEF7B3
:101E6000A5FE03463B614FF08E41F868FFF7AEF8E0
:101E70000346002B06D04FF08F41F868FEF7E0FDD7
:101E80000346FB604FF08E41B868FFF79FF80346AA
:101E9000002B06D04FF08F41B868FEF7D1FD034606
:101EA000BB604FF08E417869FFF790F80346002B36
:101EB00006D04FF08F417869FEF7C2FD03467B6183
:101EC0004FF08E413869FFF781F80346002B06D0AA
:101ED0004FF08F413869FEF7B3FD03463B61284A56
:101EE000FB6813607869FEF7C9FA04460D46386945
:101EF000FEF7C4FA02460B4620462946FFF792FB3E
:101F00004FF000021F4BFEF70DFB03460C46184630
:101F1000214617A3D3E90023FEF72EFC03460C4607
:101F200018462146FEF738FD03467B60F868FEF749
:101F3000A5FA11A3D3E90023FEF71EFC03460C46C5
:101F400018462146FEF728FD0346FB60F9687868CD
:101F500007F050F90C4B1B680C4A13600C4ABB6825
:101F600013600C4A3B69136000BF1837BD46B0BD13
:101F7000182D4454FB21094066666666666630404B
:101F8000A814002000806640C41400209C14002087
:101F900090140020A414002080B582B000AF7860B7
:101FA0007B681B68314A934202D108F077FB59E005
:101FB0007B681B682E4A934254D12E4B1B880133F9
:101FC0009AB22C4B1A802B4B1B88192B4AD9294BC0
:101FD00000221A800220FFF7D5FE0246264B1A6027
:101FE0000420FFF7CFFE0246244B1A60FFF7F4FEF1
:101FF000234B1868234B19681F4B1A681F4B1B682B
:1020000007F03EFC0246204B1A601F4B1B681F4A1C
:1020100013601D4B1B681E4A13601E4B1B78002B60
:1020200008D11A4B1A681A4B1B681946104607F05C
:10203000B9FB17E000224FF48041174808F0BBFDC0
:1020400000224FF40041144808F0B5FD00224FF47F
:102050008051114808F0AFFD00224FF400510E48A6
:1020600008F0A9FD00BF0837BD4680BD0004004050
:10207000002C0140BC040020A01400209414002077
:102080009C140020A8140020AC1400208C14002004
:102090009814002030040020000C014080B400AFF0
:1020A00072B6FEE780B584B000AF184A174B9B6943
:1020B00043F001039361154B9B6903F00103BB607F
:1020C000BB68124A114BDB6943F08053D3610F4B5D
:1020D000DB6903F080537B607B6800220F216FF087
:1020E000010008F0CCFB0A4B5B68FB60FB6823F047
:1020F000E063FB60FB6843F00073FB60044AFB682D
:10210000536000BF1037BD4680BD00BF00100240C5
:102110000000014080B400AFFEE780B400AFFEE7EE
:1021200080B400AFFEE780B400AFFEE780B400AF3C
:10213000FEE780B400AF00BFBD4680BC7047000022
:1021400080B500AF024800F0E0FA00BF80BD00BFDC
:10215000D015002080B500AF024800F0D6FA00BFCD
:1021600080BD00BF2C17002080B400AF00BFBD466B
:1021700080BC704780B582B000AF78607B68002B70
:1021800001D1012341E07B6893F83D30DBB2002BA5
:1021900006D17B68002283F83C20786808F00EF8AE
:1021A0007B68022283F83D207B681A687B680433D1
:1021B0001946104600F04CFD7B68012283F846204A
:1021C0007B68012283F83E207B68012283F83F2050
:1021D0007B68012283F840207B68012283F841203C
:1021E0007B68012283F842207B68012283F8432028
:1021F0007B68012283F844207B68012283F8452014
:102200007B68012283F83D20002318460837BD462D
:1022100080BD000080B485B000AF78607B6893F823
:102220003D30DBB2012B01D001233AE07B68022272
:1022300083F83D207B681B687A681268D26842F098
:102240000102DA607B681B68184A93420ED07B68F3
:102250001B68B3F1804F09D07B681B68144A934216
:1022600004D07B681B68134A934211D17B681B68BA
:102270009B6803F00703FB60FB68062B10D07B68AC
:102280001B687A681268126842F001021A6007E05F
:102290007B681B687A681268126842F001021A6053
:1022A000002318461437BD4680BC7047002C0140FF
:1022B000000400400008004080B582B000AF7860A4
:1022C0007B68002B01D1012341E07B6893F83D300E
:1022D000DBB2002B06D17B68002283F83C207868B3
:1022E00000F039F87B68022283F83D207B681A6889
:1022F0007B6804331946104600F0AAFC7B68012273
:1023000083F846207B68012283F83E207B68012207
:1023100083F83F207B68012283F840207B680122FC
:1023200083F841207B68012283F842207B680122E8
:1023300083F843207B68012283F844207B680122D4
:1023400083F845207B68012283F83D20002318464E
:102350000837BD4680BD80B483B000AF786000BF51
:102360000C37BD4680BC704780B584B000AF786044
:1023700039603B68002B09D17B6893F83E30DBB2B3
:10238000012B14BF01230023DBB222E03B68042BA6
:1023900009D17B6893F83F30DBB2012B14BF0123D6
:1023A0000023DBB215E03B68082B09D17B6893F86A
:1023B0004030DBB2012B14BF01230023DBB208E065
:1023C0007B6893F84130DBB2012B14BF012300235B
:1023D000DBB2002B01D001235EE03B68002B04D16F
:1023E0007B68022283F83E2013E03B68042B04D173
:1023F0007B68022283F83F200BE03B68082B04D166
:102400007B68022283F8402003E07B68022283F885
:1024100041207B681B6801223968184600F098FE4D
:102420007B681B681E4A934207D17B681B687A68E9
:102430001268526C42F400425A647B681B68184A66
:1024400093420ED07B681B68B3F1804F09D07B6844
:102450001B68144A934204D07B681B68124A93425B
:1024600011D17B681B689B6803F00703FB60FB6866
:10247000062B10D07B681B687A681268126842F0DD
:1024800001021A6007E07B681B687A6812681268AC
:1024900042F001021A60002318461037BD4680BD85
:1024A000002C0140000400400008004080B586B0C8
:1024B00000AF786039607B68002B01D1012393E085
:1024C0007B6893F83D30DBB2002B06D17B6800229D
:1024D00083F83C20786807F097FE7B68022283F837
:1024E0003D207B681A687B681B689B6823F48043E7
:1024F00023F0070393607B681A687B6804331946EE
:10250000104600F0A5FB7B681B689B687B617B68BD
:102510001B689B693B617B681B681B6AFB603B68AF
:102520001B687A6913437B613B6923F4407323F092
:1025300003033B613B689A683B689B691B0213433A
:102540003A6913433B613B6923F4406323F00C0376
:102550003B613B6923F4704323F0F0033B613B682C
:10256000DA683B68DB691B0213433A6913433B613A
:102570003B681B691A013B681B6A1B0313433A69DA
:1025800013433B61FB6823F02203FB603B685A68FE
:102590003B685B691B011343FA681343FB607B686C
:1025A0001B687A699A607B681B683A699A617B68E4
:1025B0001B68FA681A627B68012283F846207B68F0
:1025C000012283F83E207B68012283F83F207B684C
:1025D000012283F842207B68012283F843207B6834
:1025E000012283F83D20002318461837BD4680BDE0
:1025F00080B584B000AF786039607B6893F83E3076
:10260000FB737B6893F83F30BB737B6893F8423071
:102610007B737B6893F843303B733B68002B10D18E
:10262000FB7B012B02D17B7B012B01D0012368E0D6
:102630007B68022283F83E207B68022283F84220D6
:1026400031E03B68042B10D1BB7B012B02D13B7BDB
:10265000012B01D0012354E07B68022283F83F2044
:102660007B68022283F843201DE0FB7B012B08D10D
:10267000BB7B012B05D17B7B012B02D13B7B012B4B
:1026800001D001233DE07B68022283F83E207B6875
:10269000022283F83F207B68022283F842207B6875
:1026A000022283F843203B68002B02D0042B08D081
:1026B0000FE07B681B6801220021184600F048FDEE
:1026C00016E07B681B6801220421184600F040FDDB
:1026D0000EE07B681B6801220021184600F038FDDF
:1026E0007B681B6801220421184600F031FD00BF01
:1026F0007B681B687A681268126842F001021A60EF
:10270000002318461037BD4680BD80B582B000AFAB
:1027100078607B681B681B6903F00203022B22D1DF
:102720007B681B68DB6803F00203022B1BD17B680C
:102730001B686FF002021A617B6801221A777B68BE
:102740001B689B6903F00303002B03D0786800F03B
:1027500063FA05E0786800F056FA786800F065FAE8
:102760007B6800221A777B681B681B6903F00403EF
:10277000042B22D17B681B68DB6803F00403042B65
:102780001BD17B681B686FF004021A617B68022210
:102790001A777B681B689B6903F44073002B03D096
:1027A000786800F039FA05E0786800F02CFA78686B
:1027B00000F03BFA7B6800221A777B681B681B6974
:1027C00003F00803082B22D17B681B68DB6803F049
:1027D0000803082B1BD17B681B686FF008021A6185
:1027E0007B6804221A777B681B68DB6903F00303AC
:1027F000002B03D0786800F00FFA05E0786800F04D
:1028000002FA786800F011FA7B6800221A777B6878
:102810001B681B6903F01003102B22D17B681B6817
:10282000DB6803F01003102B1BD17B681B686FF073
:1028300010021A617B6808221A777B681B68DB69C3
:1028400003F44073002B03D0786800F0E5F905E04D
:10285000786800F0D8F9786800F0E7F97B68002222
:102860001A777B681B681B6903F00103012B0ED1EB
:102870007B681B68DB6803F00103012B07D17B68D1
:102880001B686FF001021A617868FFF785FB7B68AF
:102890001B681B6903F08003802B0ED17B681B68CB
:1028A000DB6803F08003802B07D17B681B686FF027
:1028B00080021A61786802F0BDFA7B681B681B69A8
:1028C00003F04003402B0ED17B681B68DB6803F0EC
:1028D0004003402B07D17B681B686FF040021A61F0
:1028E000786800F0ABF97B681B681B6903F0200374
:1028F000202B0ED17B681B68DB6803F02003202BA4
:1029000007D17B681B686FF020021A61786802F0BB
:1029100088FA00BF0837BD4680BD000080B584B08E
:1029200000AFF860B9607A60FB6893F83C30012B27
:1029300001D10223ACE0FB68012283F83C207B68D4
:102940000C2B00F29F8001A252F823F0812900088D
:10295000852A0008852A0008852A0008C129000860
:10296000852A0008852A0008852A0008032A00080D
:10297000852A0008852A0008852A0008432A0008BD
:10298000FB681B68B968184600F0C4F9FB681B684F
:10299000FA681268926942F008029A61FB681B6843
:1029A000FA681268926922F004029A61FB681B6857
:1029B000FA6812689169BA6812690A439A6162E01A
:1029C000FB681B68B968184600F00AFAFB681B68C8
:1029D000FA681268926942F400629A61FB681B68A7
:1029E000FA681268926922F480629A61FB681B6837
:1029F000FA6812689169BA68126912020A439A6108
:102A000041E0FB681B68B968184600F053FAFB68A0
:102A10001B68FA681268D26942F00802DA61FB6842
:102A20001B68FA681268D26922F00402DA61FB6856
:102A30001B68FA681268D169BA6812690A43DA61D8
:102A400021E0FB681B68B968184600F09DFAFB6836
:102A50001B68FA681268D26942F40062DA61FB68A6
:102A60001B68FA681268D26922F48062DA61FB6836
:102A70001B68FA681268D169BA68126912020A43BF
:102A8000DA6100E000BFFB68002283F83C200023ED
:102A900018461037BD4680BD80B584B000AF786061
:102AA00039607B6893F83C30012B01D10223A6E00A
:102AB0007B68012283F83C207B68022283F83D205A
:102AC0007B681B689B68FB60FB6823F07703FB60F7
:102AD000FB6823F47F43FB607B681B68FA689A609D
:102AE0003B681B68402B67D0402B0BD8102B73D052
:102AF000102B02D8002B6FD078E0202B6CD0302B1D
:102B00006AD073E0702B0DD0702B04D8502B33D0CB
:102B1000602B41D06AE0B3F5805F66D0B3F5005F0B
:102B200017D063E07B6818683B6899683B685A680F
:102B30003B68DB6800F0EDFA7B681B689B68FB6014
:102B4000FB6843F07703FB607B681B68FA689A6058
:102B50004CE07B6818683B6899683B685A683B683A
:102B6000DB6800F0D6FA7B681B687A6812689268A6
:102B700042F480429A6039E07B6818683B68596883
:102B80003B68DB681A4600F04DFA7B681B685021F1
:102B9000184600F0A4FA29E07B6818683B68596879
:102BA0003B68DB681A4600F06BFA7B681B686021A3
:102BB000184600F094FA19E07B6818683B68596879
:102BC0003B68DB681A4600F02DFA7B681B684021E1
:102BD000184600F084FA09E07B681A683B681B68B5
:102BE0001946104600F07BFA00E000BF7B68012226
:102BF00083F83D207B68002283F83C2000231846A0
:102C00001037BD4680BD80B483B000AF786000BF90
:102C10000C37BD4680BC704780B483B000AF78608D
:102C200000BF0C37BD4680BC704780B483B000AF96
:102C3000786000BF0C37BD4680BC704780B483B05D
:102C400000AF786000BF0C37BD4680BC7047000005
:102C500080B485B000AF786039607B681B68FB602A
:102C60007B68294A93420BD07B68B3F1804F07D031
:102C70007B68264A934203D07B68254A934208D159
:102C8000FB6823F07003FB603B685B68FA681343E2
:102C9000FB607B681C4A93420BD07B68B3F1804F8A
:102CA00007D07B68194A934203D07B68184A934245
:102CB00008D1FB6823F44073FB603B68DB68FA686B
:102CC0001343FB60FB6823F080023B685B6913439E
:102CD000FB607B68FA681A603B689A687B68DA6216
:102CE0003B681A687B689A627B68074A934203D103
:102CF0003B681A697B681A637B6801225A6100BFCE
:102D00001437BD4680BC7047002C014000040040D1
:102D10000008004080B487B000AF786039607B68FD
:102D20001B6A23F001027B681A627B681B6A7B6165
:102D30007B685B683B617B689B69FB60FB6823F099
:102D40007003FB60FB6823F00303FB603B681B68B8
:102D5000FA681343FB607B6923F002037B613B68E5
:102D60009B687A6913437B617B681C4A93420CD150
:102D70007B6923F008037B613B68DB687A69134356
:102D80007B617B6923F004037B617B68134A934278
:102D900011D13B6923F480733B613B6923F40073D9
:102DA0003B613B685B693A6913433B613B689B69E4
:102DB0003A6913433B617B683A695A607B68FA68F9
:102DC0009A613B685A687B685A637B687A691A62C1
:102DD00000BF1C37BD4680BC704700BF002C0140BF
:102DE00080B487B000AF786039607B681B6A23F0DD
:102DF00010027B681A627B681B6A7B617B685B6878
:102E00003B617B689B69FB60FB6823F4E043FB60EC
:102E1000FB6823F44073FB603B681B681B02FA6885
:102E20001343FB607B6923F020037B613B689B6855
:102E30001B017A6913437B617B681D4A93420DD164
:102E40007B6923F080037B613B68DB681B017A6947
:102E500013437B617B6923F040037B617B68144AE9
:102E6000934213D13B6923F480633B613B6923F4B4
:102E700000633B613B685B699B003A6913433B61BC
:102E80003B689B699B003A6913433B617B683A69E5
:102E90005A607B68FA689A613B685A687B689A63F3
:102EA0007B687A691A6200BF1C37BD4680BC7047D8
:102EB000002C014080B487B000AF786039607B6837
:102EC0001B6A23F480727B681A627B681B6A7B61D1
:102ED0007B685B683B617B68DB69FB60FB6823F0B8
:102EE0007003FB60FB6823F00303FB603B681B6817
:102EF000FA681343FB607B6923F400737B613B68D2
:102F00009B681B027A6913437B617B681D4A93426D
:102F10000DD17B6923F400637B613B68DB681B0296
:102F20007A6913437B617B6923F480637B617B68EF
:102F3000144A934213D13B6923F480533B613B69AC
:102F400023F400533B613B685B691B013A691343FF
:102F50003B613B689B691B013A6913433B617B689A
:102F60003A695A607B68FA68DA613B685A687B683C
:102F7000DA637B687A691A6200BF1C37BD4680BC81
:102F8000704700BF002C014080B487B000AF78606C
:102F900039607B681B6A23F480527B681A627B6805
:102FA0001B6A3B617B685B687B617B68DB69FB60FC
:102FB000FB6823F4E043FB60FB6823F44073FB6091
:102FC0003B681B681B02FA681343FB603B6923F4F0
:102FD00000533B613B689B681B033A6913433B61A9
:102FE0007B680F4A934209D17B6923F480437B615C
:102FF0003B685B699B017A6913437B617B687A69F3
:103000005A607B68FA68DA613B685A687B681A64C0
:103010007B683A691A6200BF1C37BD4680BC7047A6
:10302000002C014080B487B000AFF860B9607A60CE
:10303000FB681B6A7B61FB681B6A23F00102FB686B
:103040001A62FB689B693B613B6923F0F0033B61BB
:103050007B681B013A6913433B617B6923F00A03D8
:103060007B617A69BB6813437B61FB683A699A614B
:10307000FB687A691A6200BF1C37BD4680BC704786
:1030800080B487B000AFF860B9607A60FB681B6AF3
:1030900023F01002FB681A62FB689B697B61FB6886
:1030A0001B6A3B617B6923F470437B617B681B0374
:1030B0007A6913437B613B6923F0A0033B61BB68E2
:1030C0001B013A6913433B61FB687A699A61FB68AB
:1030D0003A691A6200BF1C37BD4680BC704780B495
:1030E00085B000AF786039607B689B68FB60FB68E7
:1030F00023F07003FB603A68FB68134343F0070357
:10310000FB607B68FA689A6000BF1437BD4680BCDC
:10311000704780B487B000AFF860B9607A603B60F8
:10312000FB689B687B617B6923F47F437B613B6821
:103130001A027B681A43BB6813437A6913437B61A5
:10314000FB687A699A6000BF1C37BD4680BC704737
:1031500080B487B000AFF860B9607A60BB6803F0F4
:103160001F03012202FA03F37B61FB681A6A7B6981
:10317000DB431A40FB681A62FB681A6ABB6803F0FB
:103180001F03796801FA03F31A43FB681A6200BF50
:103190001C37BD4680BC704790B585B000AF7860E5
:1031A0007B68002B01D101231FE17B6893F83D3040
:1031B000DBB2002B06D17B68002283F83C207868C4
:1031C00006F058FE7B68242283F83D207B681B684C
:1031D0007A681268126822F001021A607B681B6824
:1031E0007A681268126842F400421A607B681B68B1
:1031F0007A681268126822F400421A6008F0E2F855
:10320000F8607B685B687B4A934207D8FB687A4A20
:10321000934294BF01230023DBB206E0FB68774AA8
:10322000934294BF01230023DBB2002B01D0012382
:10323000DBE0FB68724AA2FB03239B0CBB607B684C
:103240001B687A681268526822F03F01BA680A4324
:103250005A607B681A687B681B681B6A23F03F0111
:103260007B685B686348834202D8BB68013309E02E
:10327000BB684FF4967000FB03F36248A0FB0303A6
:103280009B0901330B4313627B6818687B681B68DA
:10329000DB6923F44F4222F0FF027B685B685549EB
:1032A0008B420DD8FB68591E7B685B685B00B1FBE5
:1032B000F3F30133C3F30B03042B38BF04234FE0B4
:1032C0007B689B68002B11D1FB685C1E7B6859688A
:1032D0000B465B000B44B4FBF3F30133C3F30B0366
:1032E000002B0CBF01230023DBB212E0FB685C1E45
:1032F0007B6859680B469B000B4499000B44B4FB58
:10330000F3F30133C3F30B03002B0CBF01230023A2
:10331000DBB2002B01D0012322E07B689B68002BED
:103320000ED1FB685C1E7B6859680B465B000B4442
:10333000B4FBF3F30133C3F30B0343F400430FE097
:10334000FB685C1E7B6859680B469B000B44990028
:103350000B44B4FBF3F30133C3F30B0343F44043D7
:103360001343C3617B681B687A681268126822F095
:10337000C0017A68D0697A68126A02430A431A6007
:103380007B681A687B681B689B6823F4034323F0FF
:10339000FF03796808697968C96801430B43936042
:1033A0007B681B687A681268D26822F0FF017A682D
:1033B00050697A68926902430A43DA607B681B6845
:1033C0007A681268126842F001021A607B68002273
:1033D0001A647B68202283F83D207B6800221A63F0
:1033E0007B68002283F83E20002318461437BD4630
:1033F00090BD00BFA08601007F841E00FF083D0035
:1034000083DE1B43D34D621080B588B002AFF860F5
:10341000084611461A4603467B810B463B811346FC
:10342000FB8007F04DF97861FB6893F83D30DBB223
:10343000202B40F0D9807B690093192301226D492C
:10344000F86800F0B9FC0346002B01D00223CCE061
:10345000FB6893F83C30012B01D10223C5E0FB68E7
:10346000012283F83C20FB681B681B6803F0010302
:10347000012B07D0FB681B68FA681268126842F0DB
:1034800001021A60FB681B68FA681268126822F46D
:1034900000621A60FB68212283F83D20FB6840220D
:1034A00083F83E20FB6800221A64FB683A6A5A627D
:1034B000FB68BA8C5A85FB685B8D9AB2FB681A85EB
:1034C000FB684D4ADA62F8883A8979897B69019309
:1034D000BB6A00930346F86800F0F2FA0346002B3B
:1034E00052D0012381E07A69B96AF86800F03AFDA8
:1034F0000346002B0DD0FB681B6C042B07D1FB6827
:103500001B68FA681268126842F400721A6001239C
:103510006BE0FB681B68FA68526A12781A61FB68F4
:103520005B6A5A1CFB685A62FB681B8D013B9AB2AE
:10353000FB681A85FB685B8D9BB2013B9AB2FB6806
:103540005A85FB681B685B6903F00403042B1BD1DD
:10355000FB681B8D002B17D0FB681B68FA68526A4A
:1035600012781A61FB685B6A5A1CFB685A62FB6836
:103570001B8D013B9AB2FB681A85FB685B8D9BB281
:10358000013B9AB2FB685A85FB681B8D002BAAD1C0
:103590007A69B96AF86800F026FD0346002B0DD061
:1035A000FB681B6C042B07D1FB681B68FA68126868
:1035B000126842F400721A60012316E0FB681B686F
:1035C000FA681268126842F400721A60FB682022DE
:1035D00083F83D20FB68002283F83E20FB68002230
:1035E00083F83C20002300E0022318461837BD462C
:1035F00080BD00BF020010000000FFFF80B58CB04E
:1036000002AFF860084611461A4603467B810B4616
:103610003B811346FB8000233B6207F051F8786240
:10362000FB6893F83D30DBB2202B40F03D827B6A93
:103630000093192301228149F86800F0BDFB03467D
:10364000002B01D0022330E2FB6893F83C30012BC1
:1036500001D1022329E2FB68012283F83C20FB68A8
:103660001B681B6803F00103012B07D0FB681B6874
:10367000FA681268126842F001021A60FB681B685F
:10368000FA681268126822F400621A60FB6822224B
:1036900083F83D20FB68402283F83E20FB6800222F
:1036A0001A64FB683A6B5A62FB68BA8E5A85FB68EB
:1036B0005B8D9AB2FB681A85FB68614ADA62F8880A
:1036C0003A8979897B6A0193BB6B00930346F8685A
:1036D00000F08AFA0346002B01D00123E5E1FB68E4
:1036E0001B8D002B13D10023FB61FB681B685B69FA
:1036F000FB61FB681B689B69FB61FB69FB681B68DE
:10370000FA681268126842F400721A60B9E1FB6844
:103710001B8D012B1DD1FB681B68FA6812681268AB
:1037200022F480621A6072B60023BB61FB681B68DA
:103730005B69BB61FB681B689B69BB61BB69FB681C
:103740001B68FA681268126842F400721A6062B666
:1037500097E1FB681B8D022B1DD1FB681B68FA6883
:103760001268126842F400621A6072B600237B612C
:10377000FB681B685B697B61FB681B689B697B61FD
:103780007B69FB681B68FA681268126822F4806221
:103790001A6062B675E1FB681B68FA681268126805
:1037A00042F480621A6000233B61FB681B685B691E
:1037B0003B61FB681B689B693B613B6961E1FB689E
:1037C0001B8D032B00F21A81FB681B8D012B23D16B
:1037D0007A6AB96BF86800F047FC0346002B01D009
:1037E000012362E1FB685B6AFA6812681269D2B26F
:1037F0001A70FB685B6A5A1CFB685A62FB681B8D77
:10380000013B9AB2FB681A85FB685B8D9BB2013B5A
:103810009AB2FB685A8534E1FB681B8D022B50D1AC
:103820007B6A0093BB6B00220649F86800F0C4FA7B
:103830000346002B08D0012337E100BF020010002F
:103840000000FFFF0400010072B6FB681B68FA6805
:103850001268126842F400721A60FB685B6AFA68C8
:1038600012681269D2B21A70FB685B6A5A1CFB6854
:103870005A62FB681B8D013B9AB2FB681A85FB6894
:103880005B8D9BB2013B9AB2FB685A8562B6FB68BE
:103890005B6AFA6812681269D2B21A70FB685B6AD6
:1038A0005A1CFB685A62FB681B8D013B9AB2FB688D
:1038B0001A85FB685B8D9BB2013B9AB2FB685A8507
:1038C000DFE07B6A0093BB6B00227A49F86800F066
:1038D00073FA0346002B01D00123E6E0FB681B6866
:1038E000FA681268126822F480621A6072B6FB6885
:1038F0005B6AFA6812681269D2B21A70FB685B6A76
:103900005A1CFB685A62FB681B8D013B9AB2FB682C
:103910001A85FB685B8D9BB2013B9AB2FB685A85A6
:10392000654B1B68DB08654AA2FB03231A0A134692
:103930009B001344DA00D31A3B623B6A013B3B62B3
:103940003B6A002B17D1FB6800221A63FB68202218
:1039500083F83D20FB68002283F83E20FB681B6C47
:1039600043F02002FB681A6462B6FB68002283F809
:103970003C20012399E0FB681B685B6903F00403AA
:10398000042BDAD1FB681B68FA681268126842F4EB
:1039900000721A60FB685B6AFA6812681269D2B238
:1039A0001A70FB685B6A5A1CFB685A62FB681B8DC5
:1039B000013B9AB2FB681A85FB685B8D9BB2013BA9
:1039C0009AB2FB685A8562B6FB685B6AFA6812684D
:1039D0001269D2B21A70FB685B6A5A1CFB685A62A1
:1039E000FB681B8D013B9AB2FB681A85FB685B8DF7
:1039F0009BB2013B9AB2FB685A8542E07A6AB96B86
:103A0000F86800F031FB0346002B01D001234CE0A5
:103A1000FB685B6AFA6812681269D2B21A70FB68B6
:103A20005B6A5A1CFB685A62FB681B8D013B9AB2A9
:103A3000FB681A85FB685B8D9BB2013B9AB2FB6801
:103A40005A85FB681B685B6903F00403042B18D1DB
:103A5000FB685B6AFA6812681269D2B21A70FB6876
:103A60005B6A5A1CFB685A62FB681B8D013B9AB269
:103A7000FB681A85FB685B8D9BB2013B9AB2FB68C1
:103A80005A85FB681B8D002B7FF499AEFB682022C2
:103A900083F83D20FB68002283F83E20FB6800226B
:103AA00083F83C20002300E0022318462837BD4657
:103AB00080BD00BF040001003404002089B5F81463
:103AC00080B588B002AFF860084611461A46034632
:103AD0007B810B463B811346FB80FB681B68FA68C1
:103AE0001268126842F480721A607B6A00933B6A23
:103AF00000224FF00111F86800F05EF90346002B38
:103B00000DD0FB681B681B6803F48073B3F5807FDE
:103B100003D1FB684FF400721A6403235EE0FB6874
:103B20001B687A89D2B202F0FE021A617B6A3A6A95
:103B30002C49F86800F097F90346002B01D00123C7
:103B40004CE000237B61FB681B685B697B61FB6861
:103B50001B689B697B617B697A6A396AF86800F047
:103B600001FA0346002B0DD0FB681B6C042B07D118
:103B7000FB681B68FA681268126842F400721A60E7
:103B800001232BE0FB88012B05D1FB681B683A89D8
:103B9000D2B21A6121E0FB681B683A89120A92B21C
:103BA000D2B21A617A6A396AF86800F0DBF9034622
:103BB000002B0DD0FB681B6C042B07D1FB681B6826
:103BC000FA681268126842F400721A60012305E074
:103BD000FB681B683A89D2B21A610023184618376D
:103BE000BD4680BD0200010080B588B002AFF8601C
:103BF000084611461A4603467B810B463B81134615
:103C0000FB80FB681B68FA681268126842F48062E5
:103C10001A60FB681B68FA681268126842F48072C6
:103C20001A607B6A00933B6A00224FF00111F8682A
:103C300000F0C2F80346002B0DD0FB681B681B6820
:103C400003F48073B3F5807F03D1FB684FF40072F7
:103C50001A640323A9E0FB681B687A89D2B202F0D8
:103C6000FE021A617B6A3A6A5249F86800F0FBF872
:103C70000346002B01D0012397E000237B61FB6802
:103C80001B685B697B61FB681B689B697B617B6967
:103C90007A6A396AF86800F065F90346002B0DD09E
:103CA000FB681B6C042B07D1FB681B68FA68126861
:103CB000126842F400721A60012376E0FB88012B3F
:103CC00005D1FB681B683A89D2B21A6121E0FB6812
:103CD0001B683A89120A92B2D2B21A617A6A396AB8
:103CE000F86800F03FF90346002B0DD0FB681B6C11
:103CF000042B07D1FB681B68FA681268126842F44B
:103D000000721A60012350E0FB681B683A89D2B246
:103D10001A617A6A396AF86800F024F90346002BC0
:103D20000DD0FB681B6C042B07D1FB681B68FA687D
:103D30001268126842F400721A60012335E0FB68D1
:103D40001B68FA681268126842F480721A607B6A13
:103D500000933B6A00224FF00111F86800F02CF844
:103D60000346002B0DD0FB681B681B6803F48073AF
:103D7000B3F5807F03D1FB684FF400721A6403230C
:103D800013E0FB681B687A89D2B242F00102D2B21A
:103D90001A617B6A3A6A0749F86800F064F80346DA
:103DA000002B01D0012300E0002318461837BD4640
:103DB00080BD00BF0200010080B584B000AFF86094
:103DC000B9603B601346FB7125E03B68B3F1FF3FF0
:103DD00021D006F075FC0246BB69D21A3B689A42B4
:103DE00002D83B68002B16D1FB6800221A63FB68DF
:103DF000202283F83D20FB68002283F83E20FB68E8
:103E00001B6C43F02002FB681A64FB68002283F8F5
:103E10003C20012323E0BB681B0CDBB2012B0DD13E
:103E2000FB681B685B69DA43BB6813409BB2002BDD
:103E30000CBF01230023DBB21A460CE0FB681B68B1
:103E40009B69DA43BB6813409BB2002B0CBF012374
:103E50000023DBB21A46FB799A42B6D000231846FB
:103E60001037BD4680BD80B584B000AFF860B96042
:103E70007A603B6051E0FB681B685B6903F4806318
:103E8000B3F5806F23D1FB681B68FA68126812686B
:103E900042F400721A60FB681B686FF480625A611A
:103EA000FB6800221A63FB68202283F83D20FB6830
:103EB000002283F83E20FB681B6C43F00402FB6881
:103EC0001A64FB68002283F83C20012346E07B68EB
:103ED000B3F1FF3F21D006F0F3FB02463B68D21A54
:103EE0007B689A4202D87B68002B16D1FB680022BF
:103EF0001A63FB68202283F83D20FB68002283F8C8
:103F00003E20FB681B6C43F02002FB681A64FB68D0
:103F1000002283F83C20012320E0BB681B0CDBB2AD
:103F2000012B0CD1FB681B685B69DA43BB6813404B
:103F30009BB2002B14BF01230023DBB20BE0FB6814
:103F40001B689B69DA43BB6813409BB2002B14BF0C
:103F500001230023DBB2002B8DD10023184610373C
:103F6000BD4680BD80B584B000AFF860B9607A60AE
:103F70002DE0F86800F0CEF80346002B01D00123B5
:103F80002DE0BB68B3F1FF3F21D006F099FB02465C
:103F90007B68D21ABB689A4202D8BB68002B16D144
:103FA000FB6800221A63FB68202283F83D20FB682F
:103FB000002283F83E20FB681B6C43F02002FB6864
:103FC0001A64FB68002283F83C20012307E0FB68A9
:103FD0001B685B6903F08003802BCAD1002318465D
:103FE0001037BD4680BD80B584B000AFF860B960C1
:103FF0007A602DE0F86800F08DF80346002B01D0C0
:1040000001232DE0BB68B3F1FF3F21D006F058FB40
:1040100002467B68D21ABB689A4202D8BB68002B62
:1040200016D1FB6800221A63FB68202283F83D202A
:10403000FB68002283F83E20FB681B6C43F02002E3
:10404000FB681A64FB68002283F83C20012307E028
:10405000FB681B685B6903F00403042BCAD10023CF
:1040600018461037BD4680BD80B584B000AFF860FB
:10407000B9607A6042E0FB681B685B6903F010037B
:10408000102B19D1FB681B686FF010025A61FB6896
:1040900000221A63FB68202283F83D20FB6800227F
:1040A00083F83E20FB681A6CFB681A64FB680022E8
:1040B00083F83C20012329E006F002FB02467B68DE
:1040C000D21ABB689A4202D8BB68002B16D1FB6893
:1040D00000221A63FB68202283F83D20FB6800223F
:1040E00083F83E20FB681B6C43F02002FB681A64D7
:1040F000FB68002283F83C20012307E0FB681B6873
:104100005B6903F04003402BB5D1002318461037FC
:10411000BD4680BD80B483B000AF78607B681B680B
:104120005B6903F48063B3F5806F1BD17B681B6808
:104130006FF480625A617B6800221A637B682022D8
:1041400083F83D207B68002283F83E207B681B6C4F
:1041500043F004027B681A647B68002283F83C20E9
:10416000012300E0002318460C37BD4680BC704791
:1041700080B586B000AF78600023FB7500233B61FB
:104180000023BB600023FB607B68002B01D101236F
:10419000BEE07B689B68002B7B689B6A002B09D183
:1041A0007B680022DA627B68002283F8242078682A
:1041B00005F0F6FD786800F0D1FB0346FB757B68DF
:1041C0009B6A03F01003002B40F09980FB7D002BCD
:1041D00040F095807B689B6A23F4885323F00203A8
:1041E00043F002027B689A627B685A687B68DB69ED
:1041F0001A437B681B7B5B001343BA681343BB60A5
:104200007B689B68B3F5807F03D07B689B68012B3C
:1042100002D14FF4807300E000233A6913433B61FD
:104220007B681B7D012B19D17B681B7B002B09D17F
:104230007B689B69013B5A033B69134343F400636A
:104240003B610BE07B689B6A43F020027B689A62CB
:104250007B68DB6A43F001027B68DA627B681B687B
:104260007A681268526822F469413A690A435A60CE
:104270007B681A687B681B689968274B0B40B96894
:104280000B4393607B689B68B3F5807F03D07B68AA
:104290009B68012B04D17B681B69013B1B05FB60FC
:1042A0007B681B687A681268D26A22F47001FA6827
:1042B0000A43DA627B681B689A68184B1340BA6835
:1042C00093420BD17B680022DA627B689B6A23F001
:1042D000030343F001027B689A6218E07B689B6AE3
:1042E00023F0120343F010027B689A627B68DB6A5A
:1042F00043F001027B68DA620123FB7507E07B680B
:104300009B6A43F010027B689A620123FB75FB7D78
:1043100018461837BD4680BDFDF7E1FFFE0E1FFFB2
:1043200080B584B000AF78600023FB737B6893F89E
:104330002430012B01D1022398E07B68012283F80D
:104340002420786800F0B0FA0346FB73FB7B002B57
:1043500040F087807B689B6A23F4407323F001035D
:1043600043F480727B689A627B681B68414A93427F
:1043700005D1414B5B6803F47023002B15D17B689A
:104380009B6A23F480127B689A627B681B685B6877
:1043900003F48063002B26D07B689B6A23F4405390
:1043A00043F480527B689A621DE07B689B6A43F409
:1043B00080127B689A627B681B682F4A934204D004
:1043C0007B681B682B4A93420DD12B4B5B6803F42F
:1043D0008063002B07D07B689B6A23F4405343F42F
:1043E00080527B689A627B689B6A03F48053002B3F
:1043F00006D07B68DB6A23F006027B68DA6202E0A3
:104400007B680022DA627B68002283F824207B68C4
:104410001B686FF002021A607B681B689B6803F4DC
:104420006023B3F5602F13D17B681B68114A934258
:1044300005D1114B5B6803F47023002B08D17B6816
:104440001B687A681268926842F4A0029A600CE0D5
:104450007B681B687A681268926842F480129A60DE
:1044600003E07B68002283F82420FB7B184610378A
:10447000BD4680BD002801400024014090B587B0B2
:1044800000AF7860396000237B610023FB6000236C
:104490003B6106F015F978617B681B689B6803F443
:1044A0008073002B0BD07B689B6A43F020027B68F3
:1044B0009A627B68002283F824200123D3E07B6882
:1044C0001B685B6803F48073002B31D17B681B6829
:1044D000DB6A03F47003002B2AD121E03B68B3F1BF
:1044E000FF3F1DD03B68002B07D006F0E9F80246DD
:1044F0007B69D21A3B689A4212D97B681B681B6899
:1045000003F00203002B0BD17B689B6A43F004028B
:104510007B689A627B68002283F824200323A2E050
:104520007B681B681B6803F00203002BD6D070E089
:104530004F4B1C68022000F009FB0346B4FBF3F26A
:104540007B681B6819694B4B0B40002B18D17B68AB
:104550001B68D968484B0B40002B11D17B681B6846
:104560001969464B0B40002B08D17B681B68D96842
:10457000434B0B40002B01D1142320E029231EE0E4
:104580007B681B6819693D4B0B40002B06D17B688B
:104590001B68D9683A4B0B40002B0DD07B681B6819
:1045A0001969384B0B40002B08D17B681B68D96810
:1045B000344B0B40002B01D1542300E0FC2303FBC0
:1045C00002F33B6121E03B68B3F1FF3F1AD03B6847
:1045D000002B07D006F074F802467B69D21A3B68BC
:1045E0009A420FD9FA683B699A420BD27B689B6A60
:1045F00043F004027B689A627B68002283F82420DF
:10460000032330E0FB680133FB60FA683B699A42A0
:10461000D9D37B681B686FF012021A607B689B6AB3
:1046200043F400727B689A627B681B689B6803F4A2
:104630006023B3F5602F15D17B681B7B002B11D154
:104640007B689B6A23F480727B689A627B689B6AB2
:1046500003F48053002B05D17B689B6A43F0010271
:104660007B689A62002318461C37BD4690BD00BF88
:1046700034040020244992242449920092244912AF
:10468000922449004992240080B483B000AF78603E
:104690007B681B68DB6C18460C37BD4680BC7047D6
:1046A00090B484B000AF786039600023FB730023BE
:1046B000BB607B6893F82430012B01D10223DCE03E
:1046C0007B68012283F824203B685B68062B1CD89A
:1046D0007B6819687B681B68586B3B685A6813468F
:1046E0009B001344053B1F2202FA03F3DB431840EF
:1046F0003B681C683B685A6813469B001344053BA3
:1047000004FA03F303434B633CE03B685B680C2B08
:104710001CD87B6819687B681B68186B3B685A68F3
:1047200013469B001344233B1F2202FA03F3DB438F
:1047300018403B681C683B685A6813469B0013444A
:10474000233B04FA03F303430B631BE07B68196804
:104750007B681B68D86A3B685A6813469B00134401
:10476000413B1F2202FA03F3DB4318403B681C68FD
:104770003B685A6813469B001344413B04FA03F319
:104780000343CB623B681B68092B1CD97B68196803
:104790007B681B68D8683B681A6813465B00134443
:1047A0001E3B072202FA03F3DB4318403B689C6878
:1047B0003B681A6813465B0013441E3B04FA03F37C
:1047C0000343CB6019E07B6819687B681B68186934
:1047D0003B681A6813465B001344072202FA03F38E
:1047E000DB4318403B689C683B681A6813465B00D3
:1047F000134404FA03F303430B613B681B68102B5B
:1048000003D03B681B68112B32D17B681B681D4AA3
:10481000934225D17B681B689B6803F40003002B3F
:1048200026D17B681B687A681268926842F400029D
:104830009A603B681B68102B1AD1134B1B68134AF4
:10484000A2FB03239A0C13469B0013445B00BB603E
:1048500002E0BB68013BBB60BB68002BF9D107E0FD
:104860007B689B6A43F020027B689A620123FB739A
:104870007B68002283F82420FB7B18461037BD4656
:1048800090BC7047002401403404002083DE1B43A9
:1048900080B483B000AF78607B689B6A18460C37A1
:1048A000BD4680BC7047000080B584B000AF786022
:1048B0000023FB600023BB607B681B689B6803F0E0
:1048C0000103012B40D07B681B687A6812689268EC
:1048D00042F001029A601F4B1B681F4AA2FB032390
:1048E0009B0CBB6002E0BB68013BBB60BB68002B5C
:1048F000F9D105F0E5FEF8601FE005F0E1FE0246A3
:10490000FB68D31A022B18D97B681B689B6803F0DD
:104910000103012B11D07B689B6A43F010027B6876
:104920009A627B68DB6A43F001027B68DA627B682B
:10493000002283F82420012307E07B681B689B6822
:1049400003F00103012BD8D1002318461037BD46D0
:1049500080BD00BF3404002083DE1B4380B584B0DB
:1049600000AF78600023FB607B681B689B6803F0E6
:104970000103012B2ED17B681B687A68126892684C
:1049800022F001029A6005F09BFEF8601BE005F042
:1049900097FE0246FB68D31A022B14D97B681B686A
:1049A0009B6803F00103012B0DD17B689B6A43F0E8
:1049B00010027B689A627B68DB6A43F001027B68C5
:1049C000DA62012307E07B681B689B6803F0010340
:1049D000012BDCD0002318461037BD4680BD0000F7
:1049E00080B586B000AF786000233B610023FB6098
:1049F0007B681B6803F00103002B7DD00023FB754F
:104A00004F4BDB6903F08053002B0DD14C4A4C4BCC
:104A1000DB6943F08053D361494BDB6903F080537A
:104A2000BB60BB680123FB75464B1B6803F48073B6
:104A3000002B18D1434A434B1B6843F48073136027
:104A400005F03EFE386108E005F03AFE02463B699B
:104A5000D31A642B01D903236DE03A4B1B6803F48E
:104A60008073002BF0D0364B1B6A03F44073FB605D
:104A7000FB68002B2ED07B685B6803F44072FB68F8
:104A80009A4227D02E4B1B6A23F44073FB602E4BB7
:104A900001221A602C4B00221A60294AFB6813621B
:104AA000FB6803F00103002B14D005F009FE386108
:104AB0000AE005F005FE02463B69D31A41F288324E
:104AC000934201D9032336E01D4B1B6A03F0020316
:104AD000002BEED01A491A4B1B6A23F440727B68F4
:104AE0005B6813430B62FB7D012B05D1144A144B09
:104AF000DB6923F08053D3617B681B6803F00203FA
:104B0000002B08D00E490E4B5B6823F440427B68B3
:104B10009B6813434B607B681B6803F01003002BFA
:104B200008D00749064B5B6823F480027B68DB688A
:104B300013434B60002318461837BD4680BD00BFA5
:104B400000100240007000404004424290B58DB019
:104B500000AF7860554B07F10C040FCB84E80F00D1
:104B6000534B1B883B8100237B620023FB620023A5
:104B70003B620023FB610023BB627B68022B7FD07A
:104B8000102B02D0012B48D08BE04A4B5B68FB61B5
:104B9000484B1B6803F08073002B7FD0FB699B0C94
:104BA00003F00F0307F13002134413F8243C3B6277
:104BB000FB6903F48033002B18D03E4B5B685B0C21
:104BC00003F0010307F13002134413F8283C7B6221
:104BD000FB6903F48033002B0DD0374A7B6AB2FBAC
:104BE000F3F33A6A02FB03F3FB6204E03B6A334AE5
:104BF00002FB03F3FB622F4B5B6803F48003B3F506
:104C0000800F02D1FB6ABB6248E0FB6A5B002C4A62
:104C1000A2FB03235B08BB6240E0264B1B6AFB61DF
:104C2000FB6903F44073B3F5807F08D1FB6903F09F
:104C30000203002B03D04FF40043BB621FE0FB696B
:104C400003F44073B3F5007F09D11A4B5B6A03F09C
:104C50000203002B03D049F64043BB620FE0FB691F
:104C600003F44073B3F5407F1AD1124B1B6803F471
:104C70000033002B14D04FF22443BB6210E00FE04E
:104C800006F0B4FB02460B4B5B689B0B03F003037F
:104C900001335B00B2FBF3F3BB6202E000BF00E054
:104CA00000BFBB6A18463437BD4690BD28B5000822
:104CB00038B500080010024000127A0000093D00DB
:104CC000ABAAAAAA80B485B000AF786039607B68CF
:104CD00093F83C30012B01D1022346E07B6801228E
:104CE00083F83C207B68022283F83D207B681B68A8
:104CF0005B68FB607B681B689B68BB60FB6823F09C
:104D00007003FB603B681B68FA681343FB607B68B9
:104D10001B68FA685A607B681B68164A93420ED07B
:104D20007B681B68B3F1804F09D07B681B68124A0F
:104D3000934204D07B681B68104A93420CD1BB6835
:104D400023F08003BB603B685B68BA681343BB60B9
:104D50007B681B68BA689A607B68012283F83D20F3
:104D60007B68002283F83C20002318461437BD4698
:104D700080BC7047002C0140000400400008004047
:104D800080B485B000AF786039600023FB607B6839
:104D900093F83C30012B01D102233DE07B680122D6
:104DA00083F83C20FB6823F0FF023B68DB68134379
:104DB000FB60FB6823F440723B689B681343FB6015
:104DC000FB6823F480623B685B681343FB60FB680D
:104DD00023F400623B681B681343FB60FB6823F409
:104DE00080523B681B691343FB60FB6823F400524D
:104DF0003B685B691343FB60FB6823F480423B68BC
:104E0000DB691343FB607B681B68FA685A647B6844
:104E1000002283F83C20002318461437BD4680BC8E
:104E2000704780B483B000AF786000BF0C37BD46D8
:104E300080BC704780B483B000AF786000BF0C378F
:104E4000BD4680BC704780B582B000AF78607B689B
:104E5000002B01D101233FE07B6893F83D30DBB2AA
:104E6000002B06D17B68002283F83C20786805F08F
:104E7000E7FA7B68242283F83D207B681B687A6808
:104E80001268D26822F40052DA60786800F028F8DC
:104E90007B681B687A681268126922F490421A6172
:104EA0007B681B687A681268526922F02A025A618C
:104EB0007B681B687A681268D26842F40052DA6034
:104EC0007B6800221A647B68202283F83D207B687F
:104ED000202283F83E20002318460837BD4680BDB7
:104EE00090B585B000AF78607B681B687A681268FF
:104EF000126922F440517A68D2680A431A617B68C9
:104F00009A687B681B691A437B685B691343BB60C3
:104F10007B681A687B681B68DB6823F4B05323F056
:104F20000C03B9680B43D3607B681B687A6812680E
:104F3000526922F440717A6892690A435A617B6827
:104F40001B682C4A934203D106F050FAF86002E045
:104F500006F038FAF8607B681968FA6813469B0017
:104F600013449A001A447B685B689B00B2FBF3F31E
:104F7000214AA2FB03235B091801FA6813469B0030
:104F800013449A001A447B685B689B00B2FBF3F2FF
:104F9000194BA3FB02435B09642404FB03F3D31AFC
:104FA0001B013233144AA2FB03235B0903F0F00315
:104FB0001844FA6813469B0013449A001A447B680D
:104FC0005B689B00B2FBF3F20B4BA3FB02435B0954
:104FD000642404FB03F3D31A1B013233064AA2FBF9
:104FE00003235B0903F00F0303448B6000BF1437F6
:104FF000BD4690BD003801401F85EB5180B485B09F
:1050000000AF0346FB800023FB60B7F90630842B1A
:1050100005D0B7F90620FB6813440333FB60FB6837
:1050200018461437BD4680BC704780B500AF00F00D
:105030004FFE0023184680BDF0B589B004AF7860FC
:1050400039607B685B69002B20D07B689B69002BF3
:105050001CD07B685C687B681D687B681E697B6808
:10506000B3F908301846FFF7C9FF01467B685B6952
:105070007A6892690292019300913B683246294610
:10508000204600F06AFC0346FB601CE07B685C681D
:105090007B681D687B681B699EB27B68B3F908302A
:1050A0001846FFF7ABFF024607F10C03019300928D
:1050B0003B6832462946204600F0A8FC0346012BF7
:1050C00001D0002300E0FB6818461437BD46F0BD50
:1050D00080B584B000AF78607B68FB60FB68002B14
:1050E00001D0FB6800E00123184600F0BDFD00235D
:1050F00018461037BD4680BD80B58AB000AF7860D5
:105100000023FB6100F042FE574B1B68002B01D1CE
:1051100000F00CF9554B1A687B681340002B40F0E7
:105120008C807B68002B1CD008227B6813447B603A
:105130007B6803F00703002B13D07B6823F0070381
:1051400008337B607B6803F00703002B09D04FF026
:10515000500383F31188BFF36F8FBFF34F8F7B61D1
:10516000FEE77B68002B68D0414B1B687A689A4247
:1051700063D8404B3B623F4B1B687B6204E07B6A19
:105180003B627B6A1B687B627B6A5A687B689A42D7
:1051900003D27B6A1B68002BF1D1334B1B687A6A00
:1051A0009A424AD03B6A1B6808221344FB617B6A1F
:1051B0001A683B6A1A607B6A5A687B68D21A0823AD
:1051C0005B009A421ED97A6A7B681344BB61BB6953
:1051D00003F00703002B09D04FF0500383F311882D
:1051E000BFF36F8FBFF34F8F3B61FEE77B6A5A6857
:1051F0007B68D21ABB695A607B6A7A685A60B86960
:1052000000F0F6F81A4B1A687B6A5B68D31A184AE2
:105210001360174B1A68184B1B689A4203D2144B41
:105220001B68154A13607B6A5A68104B1B681A4347
:105230007B6A5A607B6A00221A6000F0B5FDFB6948
:1052400003F00703002B09D04FF0500383F31188BC
:10525000BFF36F8FBFF34F8FFB60FEE7FB6918460C
:105260002837BD4680BD00BFC8100020D4100020E4
:10527000CC100020C0100020D010002080B586B0D7
:1052800000AF78607B687B617B68002B46D0082389
:105290005B427A6913447B617B693B613B695A6875
:1052A000204B1B681340002B09D14FF0500383F3B0
:1052B0001188BFF36F8FBFF34F8FFB60FEE73B6931
:1052C0001B68002B09D04FF0500383F31188BFF304
:1052D0006F8FBFF34F8FBB60FEE73B695A68114B7E
:1052E0001B681340002B19D03B691B68002B15D19C
:1052F0003B695A680B4B1B68DB431A403B695A6099
:1053000000F044FD3B695A68074B1B681344064A8A
:105310001360386900F06CF800F046FD00BF1837E4
:10532000BD4680BDD4100020CC10002080B485B0D4
:1053300000AF4FF44063BB60274BFB60FB6803F09A
:105340000703002B0CD0FB680733FB60FB6823F0DE
:105350000703FB60BA68FB68D31A1F4A1344BB609B
:10536000FB687B601D4A7B6813601C4B00225A60FF
:105370007A68BB681344FB600822FB689B1AFB60D9
:10538000FB6823F00703FB60FB68154A1360144BAE
:105390001B6800225A60124B1B6800221A607B684F
:1053A0003B603B68FA68D21A3B685A600C4B1A683B
:1053B0003B681A603B685B680A4A13603B685B683D
:1053C000094A1360094B4FF000421A6000BF1437BE
:1053D000BD4680BC704700BFC0040020C010002044
:1053E000C8100020D0100020CC100020D4100020C5
:1053F00080B485B000AF7860274BFB6002E0FB68AB
:105400001B68FB60FB681A687B689A42F7D3FB68ED
:10541000BB60FB685B68BA681A447B689A4208D133
:10542000FB685A687B685B681A44FB685A60FB68D3
:105430007B607B68BB607B685B68BA681A44FB680A
:105440001B689A4218D1FB681A68144B1B689A4271
:105450000DD07B685A68FB681B685B681A447B68E0
:105460005A60FB681B681A687B681A6008E00B4B7F
:105470001A687B681A6003E0FB681A687B681A6028
:10548000FA687B689A4202D0FB687A681A6000BFAB
:105490001437BD4680BC7047C0100020C8100020E3
:1054A00080B485B000AFF860B9607A60FB68043BF7
:1054B000FB60FB684FF080721A60FB68043BFB6086
:1054C000BB6823F00102FB681A60FB68043BFB60C9
:1054D000084AFB681A60FB68143BFB607A68FB684B
:1054E0001A60FB68203BFB60FB6818461437BD461A
:1054F00080BC7047F954000880B485B000AF002329
:105500007B60104B1B68B3F1FF3F09D04FF0500395
:1055100083F31188BFF36F8FBFF34F8FFB60FEE7FC
:105520004FF0500383F31188BFF36F8FBFF34F8F9A
:10553000BB6000BF7B68002BFCD000BF1437BD46AA
:1055400080BC70473804002000000000000000000C
:10555000074B19680868B0E8F00F80F30988BFF3BB
:105560006F8F4FF0000080F311884EF00D0E7047E2
:10557000E010002000BF00BF06480068006880F30C
:10558000088862B661B6BFF34F8FBFF36F8F00DF3D
:1055900000BF000008ED00E000BF00BF80B584B090
:1055A00000AF314BFB60FB681B78DBB27B60FB68B4
:1055B000FF221A70FB681B78DBB2FB70FB78DBB252
:1055C00003F05003DAB2294B1A70294B07221A60F4
:1055D00009E0274B1B68013B254A1360FB78DBB2CF
:1055E0005B00DBB2FB70FB78DBB203F08003802B47
:1055F000EFD01F4B1B68C3F10703042B09D04FF0FA
:10560000500383F31188BFF36F8FBFF34F8FBB60DD
:10561000FEE7174B1B681B02154A1360144B1B68EF
:1056200003F4E063124A13607B68DAB2FB681A7015
:10563000104A104B1B6843F4700313600D4A0D4B66
:105640001B6843F07043136000F0B6F80A4B002269
:105650001A60FFF791FF00F0FFFCFFF74DFF0023FA
:1056600018461037BD4680BD00E400E0D810002089
:10567000DC10002020ED00E03804002080B483B06E
:1056800000AF4FF0500383F31188BFF36F8FBFF368
:105690004F8F7B600E4B1B6801330D4A13600C4B20
:1056A0001B68012B0ED10B4B1B68DBB2002B09D002
:1056B0004FF0500383F31188BFF36F8FBFF34F8F09
:1056C0003B60FEE700BF0C37BD4680BC704700BFA3
:1056D0003804002004ED00E080B483B000AF104B2C
:1056E0001B68002B09D14FF0500383F31188BFF3DF
:1056F0006F8FBFF34F8F7B60FEE7094B1B68013B49
:10570000074A1360064B1B68002B04D100233B6043
:105710003B6883F3118800BF0C37BD4680BC7047DF
:10572000380400200000000000000000000000001D
:10573000EFF30980BFF36F8F0D4B1A6820E9F00F6C
:1057400010602DE908404FF0500080F3118800F000
:1057500083FC4FF0000080F31188BDE80840196811
:105760000868B0E8F00F80F30988BFF36F8F7047C7
:10577000E010002000BF00BF80B582B000AF4FF046
:10578000500383F31188BFF36F8FBFF34F8F7B609C
:1057900000F0A6FB0346002B03D0064B4FF08052CF
:1057A0001A6000233B603B6883F3118800BF083711
:1057B000BD4680BD04ED00E080B400AF0A4B00227E
:1057C0001A600A4B00221A60094A0A4B1B680A49F0
:1057D000A1FB03139B09013B1360034B07221A60D3
:1057E00000BFBD4680BC704710E000E018E000E05C
:1057F00014E000E034040020D34D621080B483B084
:1058000000AF78607B6803F108027B685A607B68B0
:105810004FF0FF329A607B6803F108027B68DA6020
:105820007B6803F108027B681A617B6800221A60BA
:1058300000BF0C37BD4680BC704780B483B000AF5A
:1058400078607B6800221A6100BF0C37BD4680BCBF
:10585000704780B485B000AF786039607B685B6862
:10586000FB603B68FA685A60FB689A683B689A601C
:10587000FB689B683A685A60FB683A689A603B68C4
:105880007A681A617B681B685A1C7B681A6000BFC3
:105890001437BD4680BC704780B485B000AF7860D7
:1058A00039603B681B68BB60BB68B3F1FF3F03D145
:1058B0007B681B69FB600CE07B680833FB6002E0DF
:1058C000FB685B68FB60FB685B681A68BB689A42B0
:1058D000F6D9FB685A683B685A603B685B683A686F
:1058E0009A603B68FA689A60FB683A685A603B685D
:1058F0007A681A617B681B685A1C7B681A6000BF53
:105900001437BD4680BC704780B485B000AF786066
:105910007B681B69FB607B685B687A6892689A6049
:105920007B689B687A6852685A60FB685A687B6833
:105930009A4203D17B689A68FB685A607B680022B0
:105940001A61FB681B685A1EFB681A60FB681B68BB
:1059500018461437BD4680BC704780B58EB004AF82
:10596000F860B9607A603B607B6B002B09D14FF027
:10597000500383F31188BFF36F8FBFF34F8F3B62E8
:10598000FEE7BB6B002B09D14FF0500383F3118866
:10599000BFF36F8FBFF34F8FFB61FEE754233B6173
:1059A0003B69542B09D04FF0500383F31188BFF3A8
:1059B0006F8FBFF34F8FBB61FEE7BB6B002B1ED019
:1059C0007B6B002B1BD0BB6B7B627B6A7A6B1A6391
:1059D0007B6A022283F85120002303937B6A02939F
:1059E00007F1140301933B6B00933B687A68B96835
:1059F000F86800F050F8786A00F0CCF801E0002375
:105A00007B617B6918462837BD4680BD80B58CB068
:105A100004AFF860B9603B601346FB80FB889B00D5
:105A20001846FFF769FB78617B69002B0ED0542084
:105A3000FFF762FBF861FB69002B03D0FB697A6911
:105A40001A6305E07869FFF719FC01E00023FB61A8
:105A5000FB69002B17D0FB69002283F85120FA88DC
:105A600000230393FB690293FB6A0193BB6A0093D3
:105A70003B68B968F86800F00EF8F86900F08AF839
:105A80000123BB6102E04FF0FF33BB61BB691846E5
:105A90002037BD4680BD80B588B000AFF860B960E2
:105AA0007A603B603B6B1A6B7B6803F18043013B80
:105AB0009B001344BB61BB6923F00703BB61BB6957
:105AC00003F00703002B09D04FF0500383F3118834
:105AD000BFF36F8FBFF34F8F7B61FEE70023FB6146
