:020000040800F2
:1000000000500020C9640008C55C0008CB5C0008F3
:10001000D15C0008D75C0008DD5C0008000000002F
:10002000000000000000000000000000B1B1000866
:10003000E35C00080000000081B30008C9B30008B9
:1000400011650008116500081165000811650008B8
:1000500011650008116500081165000811650008A8
:100060001165000811650008116500081165000898
:100070001165000811650008F15C0008055D0008C5
:100080001165000811650008116500081165000878
:100090001165000811650008116500081165000868
:1000A00011650008195D0008116500081165000858
:1000B000116500082D5D0008116500081165000834
:1000C0001165000811650008116500081165000838
:1000D00011650008415D0008116500081165000800
:1000E0001165000811650008116500080000000096
:1000F0000000000000000000000000000000000000
:0C01000000000000000000005FF808F1A3
:10011000044B05481B1A062B02D9044B03B11847A0
:10012000704700BF73000020700000200000000036
:1001300005490648091A891001EBD171491002D00E
:10014000034B03B118477047700000207000002077
:100150000000000010B5064C237843B9FFF7D8FF24
:10016000044B13B10448AFF300800123237010BD8A
:100170007000002000000000D4BF000808B5084B44
:100180001BB108490848AFF300800848036813B959
:10019000BDE80840CCE7064B002BF9D09847F7E7BD
:1001A0000000000074000020D4BF00087000002090
:1001B0000000000070B50F4E0F4D761BB61018BF33
:1001C000002405D0013455F8043B9847A642F9D1E4
:1001D0000A4E0B4D0BF0FEFE761BB61018BF002426
:1001E00006D0013455F8043B9847A642F9D170BDBA
:1001F00070BD00BF68CD000868CD00086CCD000858
:1002000068CD0008032A70B422D940EA01039B0795
:1002100011D003780C78A3421DD10A44013105E0C6
:1002200010F8013F11F8014BA34214D19142F7D1CC
:10023000002070BC70470D6806680C46AE4203464D
:1002400001F1040100F1040008D1043A032AF2D8B4
:10025000002ADED1ECE7181B70BC70472146184617
:10026000D7E700BF70B4860746D0541E002A41D09D
:10027000CAB2034602E014F1FF343BD303F8012B6A
:100280009D07F8D1032C2ED9CDB245EA05250F2CB8
:1002900045EA054519D9264603F11002103E0F2EF6
:1002A00042F8105C42F80C5C42F8085C42F8045CCE
:1002B00002F11002F2D8A4F1100222F00F0204F0B1
:1002C0000F041032032C13440DD91E462246043A63
:1002D000032A46F8045BFAD8221F22F003020432F4
:1002E000134404F003042CB1C9B21C4403F8011BED
:1002F0009C42FBD170BC704714460346C2E700BF66
:1003000000F002B8000000002DE9F84F54421443F9
:1003100023F00049DFF8C0E149EAD4747445064689
:100320000D4640D84442044321F0004B4BEAD474BC
:1003300074458A4637D803F1404404F580141443C9
:100340004AD09C1704F0020444EAD17450EA0B012D
:1003500031D052EA090137D0F14552D0F34533D0BC
:10036000ABEB09094FEA2959B9F13C0F3BDC002BF3
:1003700066DB3046294600F039FD00F051FA00F006
:10038000AFF8012C58D0022C48D0002C5ED040A3EE
:10039000D3E9002300F04CFA3FA3D3E9002300F097
:1003A00047FABDE8F88F1046194632462B4600F052
:1003B00041FABDE8F88F022C19D0032C10D138A1D6
:1003C000D1E90001BDE8F88FBAF1000F14DB36A1C6
:1003D000D1E90001BDE8F88FBDE8F84F00F080B822
:1003E0002946BDE8F88F30A1D1E90001C9E72AA16B
:1003F000D1E90001BDE8F88F2DA1D1E90001BDE8E8
:10040000F88FCB4524D0022CF1D0032CD7D0012C6F
:100410004FF0000027D00021BDE8F88F1CA3D3E9DE
:10042000002300F005FA02460B461BA1D1E90001AA
:1004300000F0FEF9BDE8F88F01F10041BDE8F88F4A
:1004400019F13C0F95DA002000219AE7BDE8F88FFA
:10045000022C16D0032C0FD0012C08D016A1D1E904
:100460000001BDE8F88F4FF00041BDE8F88F14A1FE
:10047000D1E90001BDE8F88F13A1D1E90001BDE881
:10048000F88F13A1D1E90001BDE8F88FAFF3008028
:10049000075C143326A6A13C182D4454FB210940C7
:1004A000182D4454FB2109C0182D4454FB21F93F59
:1004B000182D4454FB21F9BF182D4454FB21E93F6A
:1004C000182D4454FB21E9BFD221337F7CD902C0CF
:1004D000D221337F7CD902400000F07F0000000071
:1004E0002DE9F84FC24B21F000469E420D468A4648
:1004F000044610DDBF4B9E4200F3B28000F0AD8099
:10050000BD4BBE49BE4CBAF1000FD8BF0B462046CA
:100510001946BDE8F88FBB4B9E4200F3BE80A3F1A5
:10052000DE739E4240F3A8804FF0FF3B22462B46ED
:100530002046294600F030FB02460B46804689469D
:1005400000F02AFB92A3D3E9002306460F4600F0F1
:1005500023FB91A3D3E9002300F06CF932463B461C
:1005600000F01AFB8EA3D3E9002300F063F93246B2
:100570003B4600F011FB8CA3D3E9002300F05AF9AD
:1005800032463B4600F008FB89A3D3E9002300F084
:1005900051F932463B4600F0FFFA87A3D3E9002326
:1005A00000F048F942464B4600F0F6FA84A3D3E93E
:1005B0000023804689463046394600F0EDFA82A392
:1005C000D3E9002300F034F932463B4600F0E4FA68
:1005D0007FA3D3E9002300F02BF932463B4600F01D
:1005E000DBFA7DA3D3E9002300F022F932463B4633
:1005F00000F0D2FA7AA3D3E9002300F019F93246C9
:100600003B4600F0C9FABBF1FF3F02460B466BD0F8
:100610007D4E4046494600F00DF906EBCB0B2246D5
:100620002B4600F0B9FADBE9082300F001F9224675
:100630002B4600F0FDF80B460246DBE9000100F016
:10064000F7F8BAF1000F04460B46BFF660AF01F1B0
:10065000004320461946BDE8F88F00283FF450AF0C
:1006600022462B462046294600F0E4F804460B4675
:1006700020461946BDE8F88F5BA3D3E9002300F0BC
:10068000D9F80022614B00F017FD00283FF44CAF71
:100690002B4620461946BDE8F88F00F0C1F85C4BA8
:1006A00004469E420D4630DCA3F550239E4255DCA5
:1006B00002460B4600F0BEF80022544B00F0B8F89A
:1006C000002206460F464FF080432046294600F0A0
:1006D000B1F802460B463046394600F087FB4FF032
:1006E000000B04460D4621E74046494600F0A2F8BB
:1006F00022462B4600F050FA0B4602462946204679
:1007000000F096F804460B4601E7424B9E421ADC85
:100710000022414B00F08CF8002206460F463E4B6B
:100720002046294600F038FA0022384B00F082F8C3
:1007300002460B463046394600F058FB4FF0020B9C
:1007400004460D46F2E602460B460020334900F00F
:100750004DFB4FF0030B04460D46E7E600222B4B02
:1007600000F066F8002206460F46284B2046294630
:1007700000F060F802460B463046394600F036FB82
:100780004FF0010B04460D46D0E600BFAFF30080EA
:1007900011DA22E33AAD903FEB0D76244B7BA93F73
:1007A000513DD0A0660DB13F6E204CC5CD45B73F41
:1007B000FF8300922449C23F0D5555555555D53FED
:1007C0002F6C6A2C44B4A2BF9AFDDE522DDEAD3FE1
:1007D0006D9A74AFF2B0B33F711623FEC671BC3F81
:1007E000C4EB98999999C93F9C7500883CE4377E81
:1007F000FFFF0F440000F07FFB21F93FFB21F9BF11
:10080000182D4454FFFFDB3FC0C000080000F03F3C
:10081000FFFFF23FFF7F03400000F83F0000F0BF02
:1008200021F00041704700BF81F0004102E000BFAD
:1008300083F0004330B54FEA41044FEA430594EAA0
:10084000050F08BF90EA020F1FBF54EA000C55EADB
:10085000020C7FEA645C7FEA655C00F0E2804FEAAC
:100860005454D4EB5555B8BF6D420CDD2C4480EA8E
:10087000020281EA030382EA000083EA010180EABE
:10088000020281EA0303362D88BF30BD11F0004F0C
:100890004FEA01314FF4801C4CEA113102D0404242
:1008A00061EB410113F0004F4FEA03334CEA13337D
:1008B00002D0524263EB430394EA050F00F0A78095
:1008C000A4F10104D5F1200E0DDB02FA0EFC22FA90
:1008D00005F2801841F1000103FA0EF2801843FA84
:1008E00005F359410EE0A5F120050EF1200E012A75
:1008F00003FA0EFC28BF4CF0020C43FA05F3C018B3
:1009000051EBE37101F0004507D54FF0000EDCF12B
:10091000000C7EEB00006EEB0101B1F5801F1BD3D4
:10092000B1F5001F0CD349085FEA30004FEA3C0CD8
:1009300004F101044FEA445212F5800F80F09A80CE
:10094000BCF1004F08BF5FEA500C50F1000041EBD2
:10095000045141EA050130BD5FEA4C0C404141EBD6
:10096000010111F4801FA4F10104E9D191F0000FFD
:1009700004BF01460020B1FA81F308BF2033A3F180
:100980000B03B3F120020CDA0C3208DD02F1140C77
:10099000C2F10C0201FA0CF021FA02F10CE002F1B2
:1009A0001402D8BFC2F1200C01FA02F120FA0CFCAB
:1009B000DCBF41EA0C019040E41AA2BF01EB0451F4
:1009C000294330BD6FEA04041F3C1CDA0C340EDCF2
:1009D00004F11404C4F1200220FA04F001FA02F335
:1009E00040EA030021FA04F345EA030130BDC4F1F3
:1009F0000C04C4F1200220FA02F001FA04F340EAE8
:100A00000300294630BD21FA04F0294630BD94F098
:100A1000000F83F4801306BF81F480110134013D7F
:100A20004EE77FEA645C18BF7FEA655C29D094EAF0
:100A3000050F08BF90EA020F05D054EA000C04BF6E
:100A40001946104630BD91EA030F1EBF0021002059
:100A500030BD5FEA545C05D14000494128BF41F0F8
:100A6000004130BD14F580043CBF01F5801130BD5C
:100A700001F0004545F0FE4141F470014FF00000E7
:100A800030BD7FEA645C1ABF194610467FEA655C98
:100A90001CBF0B46024650EA013406BF52EA03353A
:100AA00091EA030F41F4002130BD00BF90F0000F28
:100AB00004BF0021704730B54FF4806404F1320464
:100AC0004FF000054FF0000150E700BF90F0000F1D
:100AD00004BF0021704730B54FF4806404F1320444
:100AE00010F0004548BF40424FF000013EE700BF14
:100AF00042004FEAE2014FEA31014FEA02701FBFA4
:100B000012F07F4393F07F4F81F06051704792F075
:100B1000000F14BF93F07F4F704730B54FF46074EF
:100B200001F0004521F0004120E700BF50EA01023A
:100B300008BF704730B54FF000050AE050EA0102E7
:100B400008BF704730B511F0004502D5404261EB57
:100B500041014FF4806404F132045FEA915C3FF498
:100B6000DCAE4FF003025FEADC0C18BF03325FEA31
:100B7000DC0C18BF033202EBDC02C2F1200300FAE6
:100B800003FC20FA02F001FA03FE40EA0E0021FA0B
:100B900002F11444C1E600BF70B54FF0FF0C4CF4F5
:100BA000E06C1CEA11541DBF1CEA135594EA0C0FAB
:100BB00095EA0C0F00F0DEF82C4481EA030621EAE6
:100BC0004C5123EA4C5350EA013518BF52EA033521
:100BD00041F4801143F4801338D0A0FB02CE4FF0D3
:100BE0000005E1FB02E506F00042E0FB03E54FF003
:100BF0000006E1FB03569CF0000F18BF4EF0010EFB
:100C0000A4F1FF04B6F5007F64F5407404D25FEAF6
:100C10004E0E6D4146EB060642EAC62141EA5551A9
:100C20004FEAC52040EA5E504FEACE2EB4F1FD0CEB
:100C300088BFBCF5E06F1ED8BEF1004F08BF5FEA69
:100C4000500E50F1000041EB045170BD06F000461B
:100C500046EA010140EA020081EA0301B4EB5C04C8
:100C6000C2BFD4EB0C0541EA045170BD41F48011C0
:100C70004FF0000E013C00F3AB8014F1360FDEBFE5
:100C8000002001F0004170BDC4F10004203C35DAC1
:100C90000C341BDC04F11404C4F1200500FA05F344
:100CA00020FA04F001FA05F240EA020001F00042E5
:100CB00021F0004110EBD37021FA04F642EB06015B
:100CC0005EEA430E08BF20EAD37070BDC4F10C0485
:100CD000C4F1200500FA04F320FA05F001FA04F249
:100CE00040EA020001F0004110EBD37041F1000135
:100CF0005EEA430E08BF20EAD37070BDC4F1200540
:100D000000FA05F24EEA020E20FA04F301FA05F2A7
:100D100043EA020321FA04F001F0004121FA04F24F
:100D200020EA020000EBD3705EEA430E08BF20EA1F
:100D3000D37070BD94F0000F0FD101F00046400059
:100D400041EB010111F4801F08BF013CF7D041EADB
:100D5000060195F0000F18BF704703F000465200DF
:100D600043EB030313F4801F08BF013DF7D043EAB0
:100D70000603704794EA0C0F0CEA135518BF95EA66
:100D80000C0F0CD050EA410618BF52EA4306D1D1ED
:100D900081EA030101F000414FF0000070BD50EA0C
:100DA000410606BF1046194652EA430619D094EA96
:100DB0000C0F02D150EA013613D195EA0C0F05D180
:100DC00052EA03361CBF104619460AD181EA0301D4
:100DD00001F0004141F0FE4141F470014FF000008C
:100DE00070BD41F0FE4141F4780170BD70B54FF027
:100DF000FF0C4CF4E06C1CEA11541DBF1CEA1355A7
:100E000094EA0C0F95EA0C0F00F0A7F8A4EB050488
:100E100081EA030E52EA03354FEA013100F088807F
:100E20004FEA03334FF0805545EA131343EA126348
:100E30004FEA022245EA111545EA10654FEA0026FD
:100E40000EF000419D4208BF964244F1FD0404F5B6
:100E5000407402D25B084FEA3202B61A65EB030512
:100E60005B084FEA32024FF480104FF4002CB6EBCF
:100E7000020E75EB030E22BFB61A754640EA0C004F
:100E80005B084FEA3202B6EB020E75EB030E22BF8F
:100E9000B61A754640EA5C005B084FEA3202B6EBD0
:100EA000020E75EB030E22BFB61A754640EA9C008F
:100EB0005B084FEA3202B6EB020E75EB030E22BF5F
:100EC000B61A754640EADC0055EA060E18D04FEA1D
:100ED000051545EA16754FEA06164FEAC30343EABD
:100EE00052734FEAC2025FEA1C1CC0D111F4801F8A
:100EF0000BD141EA00014FF000004FF0004CB6E783
:100F000011F4801F04BF01430020B4F1FD0C88BF21
:100F1000BCF5E06F3FF6AFAEB5EB030C04BFB6EB2C
:100F2000020C5FEA500C50F1000041EB045170BD1F
:100F30000EF0004E4EEA113114EB5C04C2BFD4EB4C
:100F40000C0541EA045170BD41F480114FF0000ED0
:100F5000013C90E645EA060E8DE60CEA135594EA4C
:100F60000C0F08BF95EA0C0F3FF43BAF94EA0C0F4F
:100F70000AD150EA01347FF434AF95EA0C0F7FF4C4
:100F800025AF104619462CE795EA0C0F06D152EA18
:100F900003353FF4FDAE1046194622E750EA4106FC
:100FA00018BF52EA43067FF4C5AE50EA41047FF40D
:100FB0000DAF52EA43057FF4EBAE12E74FF0FF3C72
:100FC00006E000BF4FF0010C02E000BF4FF0010C43
:100FD0004DF804CD4FEA410C7FEA6C5C4FEA430CBC
:100FE00018BF7FEA6C5C1BD001B050EA410C0CBF0B
:100FF00052EA430C91EA030F02BF90EA020F00206D
:10100000704710F1000F91EA030F58BF994208BFD3
:1010100090422CBFD8176FEAE37040F00100704790
:101020004FEA410C7FEA6C5C02D150EA013C07D1E7
:101030004FEA430C7FEA6C5CD6D152EA033CD3D032
:101040005DF8040B704700BF8446104662468C462C
:101050001946634600E000BF01B5FFF7B7FF00285F
:1010600048BF10F1000F01BD4DF808EDFFF7F4FF88
:101070000CBF012000205DF808FB00BF4DF808ED13
:10108000FFF7EAFF34BF012000205DF808FB00BF36
:101090004DF808EDFFF7E0FF94BF012000205DF858
:1010A00008FB00BF4DF808EDFFF7CEFF94BF01200D
:1010B00000205DF808FB00BF4DF808EDFFF7C4FF06
:1010C00034BF012000205DF808FB00BF4FEA410259
:1010D00012F5001215D211D56FF47873B3EB62528A
:1010E00012D94FEAC12343F0004343EA505311F0B1
:1010F000004F23FA02F018BF404270474FF0000043
:10110000704750EA013005D111F0004008BF6FF080
:10111000004070474FF00000704700BF4FEA4102A7
:10112000B2F1E04324BFB3F5001CDCF1FE5C0DD945
:1011300001F0004C4FEAC0024CEA5070B2F1004F8F
:1011400040EB830008BF20F00100704711F0804F92
:1011500021D113F13872BCBF01F00040704741F457
:1011600080114FEA5252C2F11802C2F1200C10FA5B
:101170000CF320FA02F018BF40F001004FEAC1233F
:101180004FEAD32303FA0CFC40EA0C0023FA02F3E3
:101190004FEA4303CCE77FEA625307D150EA0133B9
:1011A0001EBF4FF0FE4040F44000704701F0004089
:1011B00040F0FE4040F40000704700BF80F0004067
:1011C00002E000BF81F0004142001FBF5FEA41031F
:1011D00092EA030F7FEA226C7FEA236C6AD04FEA1F
:1011E0001262D2EB1363C1BFD21841404840414064
:1011F000B8BF5B42192B88BF704710F0004F40F416
:10120000000020F07F4018BF404211F0004F41F431
:10121000000121F07F4118BF494292EA030F3FD0FD
:10122000A2F1010241FA03FC10EB0C00C3F1200310
:1012300001FA03F100F0004302D5494260EB40009F
:10124000B0F5000F13D3B0F1807F06D340084FEA0A
:10125000310102F10102FE2A51D2B1F1004F40EBFF
:10126000C25008BF20F0010040EA03007047490067
:1012700040EB000010F4000FA2F10102EDD1B0FA32
:1012800080FCACF1080CB2EB0C0200FA0CF0AABF27
:1012900000EBC25052421843BCBFD04018437047C5
:1012A00092F0000F81F4000106BF80F400000132CB
:1012B000013BB5E74FEA41037FEA226C18BF7FEAA2
:1012C000236C21D092EA030F04D092F0000F08BFE4
:1012D0000846704790EA010F1CBF0020704712F0CB
:1012E0007F4F04D1400028BF40F00040704712F10A
:1012F00000723CBF00F50000704700F0004343F06F
:10130000FE4040F4000070477FEA226216BF0846A4
:101310007FEA23630146420206BF5FEA412390EA67
:10132000010F40F4800070474FF0000304E000BF5D
:1013300010F0004348BF40425FEA000C08BF70470E
:1013400043F0964301464FF000001CE050EA0102D2
:1013500008BF70474FF000030AE000BF50EA0102E7
:1013600008BF704711F0004302D5404261EB4101D4
:101370005FEA010C02BF84460146002043F0B643F9
:1013800008BFA3F18053A3F50003BCFA8CF2083A1E
:10139000A3EBC25310DB01FA02FC634400FA02FC27
:1013A000C2F12002BCF1004F20FA02F243EB02002E
:1013B00008BF20F00100704702F1200201FA02FC90
:1013C000C2F1200250EA4C0021FA02F243EB020083
:1013D00008BF20EADC7070474FF0FF0C1CEAD052C7
:1013E0001EBF1CEAD15392EA0C0F93EA0C0F6FD088
:1013F0001A4480EA010C400218BF5FEA41211ED066
:101400004FF0006343EA501043EA5111A0FB013151
:101410000CF00040B1F5000F3EBF490041EAD37126
:101420005B0040EA010062F17F02FD2A1DD8B3F1A2
:10143000004F40EBC25008BF20F00100704790F011
:10144000000F0CF0004C08BF49024CEA502040EA63
:1014500051207F3AC2BFD2F1FF0340EAC250704729
:1014600040F400004FF00003013A5DDC12F1190F67
:10147000DCBF00F000407047C2F10002410021FAD9
:1014800002F1C2F1200200FA02FC5FEA310040F1F1
:10149000000053EA4C0308BF20EADC70704792F06A
:1014A000000F00F0004C02BF400010F4000F013AA2
:1014B000F9D040EA0C0093F0000F01F0004C02BF9D
:1014C000490011F4000F013BF9D041EA0C018FE70C
:1014D0000CEAD15392EA0C0F18BF93EA0C0F0AD012
:1014E00030F0004C18BF31F0004CD8D180EA010038
:1014F00000F00040704790F0000F17BF90F0004FD1
:10150000084691F0000F91F0004F14D092EA0C0FB2
:1015100001D142020FD193EA0C0F03D14B0218BF45
:10152000084608D180EA010000F0004040F0FE408B
:1015300040F40000704740F0FE4040F44000704727
:101540004FF0FF0C1CEAD0521EBF1CEAD15392EAA6
:101550000C0F93EA0C0F69D0A2EB030280EA010C96
:1015600049024FEA402037D04FF0805343EA11112F
:1015700043EA10130CF000408B4238BF5B0042F18D
:101580007D024FF4000C8B4224BF5B1A40EA0C0032
:10159000B3EB510F24BFA3EB510340EA5C00B3EB64
:1015A000910F24BFA3EB910340EA9C00B3EBD10F52
:1015B00024BFA3EBD10340EADC001B0118BF5FEAA4
:1015C0001C1CE0D1FD2A3FF650AF8B4240EBC250CD
:1015D00008BF20F0010070470CF0004C4CEA50208E
:1015E0007F32C2BFD2F1FF0340EAC250704740F4DD
:1015F00000004FF00003013A37E792F0000F00F0CF
:10160000004C02BF400010F4000F013AF9D040EA4C
:101610000C0093F0000F01F0004C02BF490011F4E0
:10162000000F013BF9D041EA0C0195E70CEAD153D8
:1016300092EA0C0F08D142027FF47DAF93EA0C0FBF
:101640007FF470AF084676E793EA0C0F04D14B02A3
:101650003FF44CAF08466EE730F0004C18BF31F055
:10166000004CCAD130F000427FF45CAF31F000434F
:101670007FF43CAF5FE700BF4FF0FF3C06E000BFE8
:101680004FF0010C02E000BF4FF0010C4DF804CD0B
:101690004FEA40024FEA41037FEA226C18BF7FEA1B
:1016A000236C11D001B052EA530C18BF90EA010F1D
:1016B00058BFB2EB030088BFC81738BF6FEAE170AC
:1016C00018BF40F0010070477FEA226C02D15FEA48
:1016D000402C05D17FEA236CE4D15FEA412CE1D0B4
:1016E0005DF8040B704700BF844608466146FFE77B
:1016F0000FB5FFF7C9FF002848BF10F1000F0FBD5D
:101700004DF808EDFFF7F4FF0CBF012000205DF855
:1017100008FB00BF4DF808EDFFF7EAFF34BF0120DA
:1017200000205DF808FB00BF4DF808EDFFF7E0FF73
:1017300094BF012000205DF808FB00BF4DF808EDC4
:10174000FFF7D2FF94BF012000205DF808FB00BF27
:101750004DF808EDFFF7C8FF34BF012000205DF809
:1017600008FB00BF4FEA4002B2F1FE4F0FD34FF02B
:101770009E03B3EB12620DD94FEA002343F00043FE
:1017800010F0004F23FA02F018BF404270474FF0AC
:101790000000704712F1610F01D1420205D110F033
:1017A000004008BF6FF0004070474FF000007047E6
:1017B00042000ED2B2F1FE4F0BD34FF09E03B3EBBB
:1017C000126209D44FEA002343F0004323FA02F0E7
:1017D00070474FF00000704712F1610F01D14202D3
:1017E00002D14FF0FF3070474FF00000704700BF4C
:1017F0007BB972B90029BEBF00204FF0004106E05E
:1018000008BF00281CBF6FF000414FF0FF3000F010
:10181000ADB9ADF1080C6DE904CE002909DB002B50
:101820001ADB00F035F8DDF804E0DDE9022304B04E
:101830007047404261EB4101002B1BDB00F028F8B0
:10184000DDF804E0DDE9022304B0404261EB410130
:10185000524263EB43037047524263EB430300F091
:1018600017F8DDF804E0DDE9022304B0404261EB43
:1018700041017047524263EB430300F009F8DDF881
:1018800004E0DDE9022304B0524263EB43037047F6
:101890002DE9F0478C460E460446089D002B50D19A
:1018A0008A4217466CD9B2FA82FEBEF1000F0BD005
:1018B000CEF1200C01FA0EF620FA0CFC02FA0EF71B
:1018C0004CEA060C00FA0EF43A0CBCFBF2F9BBB27F
:1018D00002FB19CC09FB03FA4FEA144848EA0C460C
:1018E000B2450AD9F61909F1FF3180F02581B245D8
:1018F00040F22281A9F102093E44A6EB0A06B6FB9A
:10190000F2F002FB106600FB03F3A4B244EA0644C3
:10191000A34209D9E41900F1FF3280F00B81A34200
:1019200040F2088102383C440021E41A40EA0940B0
:10193000002D62D0002324FA0EF42C606B60BDE809
:10194000F0878B4207D9002D55D0002185E8410052
:101950000846BDE8F087B3FA83F1002940F08F8094
:10196000B34202D3824200F2FC80841A66EB030683
:101970000120B446002D40D085E81010BDE8F08766
:1019800012B90127B7FBF2F7B7FA87FEBEF1000FD5
:1019900035D10121F61B4FEA174C1FFA87F8B6FB29
:1019A000FCF20CFB126608FB02F0230C43EA06462D
:1019B000B04207D9F61902F1FF3302D2B04200F269
:1019C000D2801A46361AB6FBFCF00CFB106608FBF8
:1019D00000F8A3B243EA0644A04507D9E41900F190
:1019E000FF3302D2A04500F2B9801846A4EB0804E8
:1019F00040EA02409CE729462846BDE8F08707FAFE
:101A00000EF7CEF1200326FA03F24FEA174CB2FB91
:101A1000FCF11FFA87F80CFB112206FA0EF620FAE9
:101A200003F301FB08F933431E0C46EA0246B145B5
:101A300000FA0EF409D9F61901F1FF3280F08C801A
:101A4000B14540F2898002393E44A6EB0906B6FB57
:101A5000FCF00CFB106200FB08F99EB246EA02465D
:101A6000B14507D9F61900F1FF3371D2B1456FD9ED
:101A700002383E44A6EB090640EA01418FE7C1F176
:101A8000200722FA07F88B4048EA030326FA07F4F6
:101A90004FEA134EB4FBFEF91FFA83FC0EFB194408
:101AA0008E4020FA07F809FB0CFA48EA06084FEACC
:101AB000184646EA0444A24502FA01F200FA01F689
:101AC00008D9E41809F1FF3044D2A24542D9A9F15E
:101AD00002091C44A4EB0A04B4FBFEF00EFB104404
:101AE00000FB0CFC1FFA88F848EA0444A44507D917
:101AF000E41800F1FF3E29D2A44527D902381C443E
:101B000040EA0940A0FB0289A4EB0C0CCC45C2467C
:101B1000CE4615D312D055B1B6EB0A036CEB0E06C8
:101B200006FA07F7CB401F43CE402F606E600021BE
:101B3000BDE8F0871046F7E68946DEE64645EAD27C
:101B4000B8EB020A69EB030E0138E4E77046D7E709
:101B500018468FE78146BDE7114676E702383C44D8
:101B600044E7084606E7023A3E442BE7704700BFC9
:101B700080B400AFBFF34F8F0549054BDB6803F41A
:101B8000E062044B1343CB60BFF34F8F00BFFDE710
:101B900000ED00E00400FA0580B485B000AF786085
:101BA0007B6893F90030002B02DD0023FB812DE0E0
:101BB0007B6893F90030002B02DA0423FB8125E0D7
:101BC0007B68013393F90030002B02DD0123FB8198
:101BD0001CE07B68013393F90030002B02DA052307
:101BE000FB8113E07B68023393F90030002B02DDA8
:101BF0000223FB810AE07B68023393F90030002B5B
:101C000002DA0623FB8101E00723FB81FB891846EA
:101C10001437BD4680BC704780B584B000AF786093
:101C20007868FFF7B9FF0346FB817B6803331846EA
:101C3000FFF7B2FF0346DB001AB2B7F90E301343C9
:101C40001BB2FB817B6806331846FFF7A5FF0346EE
:101C50009B011AB2B7F90E3013431BB2FB81FB890B
:101C600018461037BD4680BD80B58AB000AF07F179
:101C70000C0207F118031146184602F0DFF97862EA
:101C80007B6A072B51D107F10803184601F092FA3D
:101C9000BB691846FFF74CFB0246BB681946104665
:101CA000FFF79AFB03461846FFF75CFD0346BB614E
:101CB000FB691846FFF73CFB0246BB681946104615
:101CC000FFF78AFB03461846FFF74CFD0346FB610E
:101CD0003B6A1846FFF72CFB0246BB6819461046C4
:101CE000FFF77AFB03461846FFF73CFD03463B62CD
:101CF00007F11803184602F0EDFCBB1D184601F071
:101D000091FAFB68FA8802FB03F3FB603B69FA88EF
:101D100002FB03F33B617B69FA8802FB03F37B61FF
:101D200007F10C03184602F0B3FD00BF2837BD468B
:101D300080BD80B584B002AF0346FB71FB79009390
:101D4000032302226B21D02003F038FB00BF0837A9
:101D5000BD4680BD80B584B002AF0346FB71FB7900
:101D60000093022304221B21D02003F027FB00BF95
:101D70000837BD4680BD80B584B002AF0346FB7115
:101D8000FB790093022304221C21D02003F016FBD0
:101D900000BF0837BD4680BD80B582B000AF0346A6
:101DA000FB71FB7906226B21D02003F0B7FA00BF4C
:101DB0000837BD4680BD80B582B000AF0346FB71D9
:101DC000FB7905226A21D02003F0A8FA00BF08376A
:101DD000BD4680BD80B582B000AF0346FB71FB7984
:101DE00001223721D02003F099FA00BF0837BD4601
:101DF00080BD80B500AF0220FFF79BFF0320FFF7F7
:101E0000A9FF0020FFF7B7FF0020FFF7C5FF002064
:101E1000FFF7D1FF0020FFF7DDFF00BF80BD00000E
:101E200080B586B004AF00233B710023FB710A2309
:101E30000293012301933B1D009301237522D121BD
:101E40002F4805F0C7FE3B79682B01D0FFF790FEC5
:101E500000F004FD0346002B4DD1782001F082FAFA
:101E60000346002B02D1FB790133FB71782001F08E
:101E700027FA0346002B02D1FB790133FB71C820FE
:101E800001F032F90346002B02D1FB790133FB71DB
:101E900002F01EFB0346002B02D1FB790133FB71DC
:101EA0001848FFF7B9FE0346184602F021FB034627
:101EB000002B02D1FB790133FB7140F2731003F068
:101EC0003BF80346002B02D1FB790133FB71C8209C
:101ED00002F0B4FD0346002B02D1FB790133FB7104
:101EE000FFF7C2FE012002F09FFA0346002B02D149
:101EF000FB790133FB71FB7918460837BD4680BD7D
:101F0000CC1000200000002080B584B000AF3B1D45
:101F100000221A605A609A60184B194A1A60174BCF
:101F200000229A60154B00221A73144B00221A7576
:101F3000124B4FF46022DA61104B00225A600F4BB3
:101F400001221A610D4804F039FB0346002B01D031
:101F500003F024FE06237B600123BB600023FB60AB
:101F60003B1D1946054804F0C1FD0346002B01D076
:101F700003F014FE00BF1037BD4680BD5C1000208A
:101F80000024014080B588B000AF786007F11003ED
:101F900000221A605A609A60DA607B681B68144AF3
:101FA000934221D1134A134B9B6943F4007393610D
:101FB000104B9B6903F40073FB60FB680D4A0D4BEB
:101FC0009B6943F0040393610A4B9B6903F004038C
:101FD000BB60BB6840233B6103237B6107F11003B7
:101FE0001946054805F022FA00BF2037BD4680BDDE
:101FF00000240140001002400008014080B582B07A
:1020000000AF104A0F4B5B6943F0010353610D4B66
:102010005B6903F001037B607B68002205210E20D1
:1020200004F0B7FF0E2004F0D0FF002205210F209E
:1020300004F0AFFF0F2004F0C8FF00BF0837BD4613
:1020400080BD00BF0010024090B583B000AF786043
:1020500039608F4B1B6819463868FFF7B3F80346A1
:102060001A468C4B1B6819461046FFF7B5F9034614
:102070001A46894B1B6819461046FFF7A5F8034618
:102080001A46854B1A60854B1A68854B5B68194662
:102090001046FFF797F803461A46814B9B6819468E
:1020A0001046FFF78FF803461A467E4B1A607C4BAA
:1020B000DB6883F000437B4A5360794BDB6883F035
:1020C0000043784A9360784B1B68764AD360744B20
:1020D0001C68744B1A686F4B1B6819461046FFF753
:1020E0007BF9034619462046FFF76EF803461A4669
:1020F0006B4B1A606A4B5C686A4B5A68654B1B688D
:1021000019461046FFF768F9034619462046FFF7BF
:102110005BF803461A46624B5A60614B9C68614B00
:102120009A685C4B1B6819461046FFF755F9034641
:1021300019462046FFF748F803461A46584B9A605E
:10214000574BDC68574BDA68524B1B6819461046F0
:10215000FFF742F9034619462046FFF735F80346D4
:102160001A464F4BDA604C4B1B6819467868FFF7EC
:1021700029F803461A464D4B1A604D4B1B781846FA
:10218000FFF7D6F80246464B1B6819461046FFF784
:1021900023F903461A46474B1A60454B1B781846ED
:1021A000FFF7C6F802463E4B9B6819461046FFF7FC
:1021B00013F903461A46404B1A603D4B1B781846EC
:1021C000FFF7B6F802463B4B1B6819461046FFF76F
:1021D00003F903461A46394B1B6819461046FEF7A9
:1021E000F3FF03461A46364B1A60324B1A68344BDB
:1021F0001B6819461046FFF7A3F903461A46314BF0
:102200001A602D4B1A682E4B1B6819461046FFF7B3
:1022100097F903461A462C4B1A60264B1B682B4A2B
:102220001360234B1B781846FFF782F802461C4BBD
:102230005B6819461046FFF7CFF803461A46244B51
:102240001A60174B1C681F4B1A68204B1B681946F5
:102250001046FFF7C1F8034619462046FEF7B2FFC5
:1022600003461A460E4B1A600D4B5C68154B1A68F4
:10227000174B1B6819461046FFF7AEF80346194680
:102280002046FEF79FFF03461A46054B5A6021E0A1
:102290008C10002018000020A01000200C0000204E
:1022A000200000208C00002010000020A81000203A
:1022B0001C0000209C100020A4100020140000200E
:1022C000B0100020B4100020AC10002098100020A6
:1022D000901000202D4B9C682D4B1A682D4B1B68CD
:1022E00019461046FFF778F8034619462046FEF7D0
:1022F00069FF03461A46254B9A60244BDC68244B41
:102300001A68254B1B6819461046FFF765F8034607
:1023100019462046FEF756FF03461A461B4BDA6065
:102320001E4B1A681E4B1B6819461046FFF754F8DF
:1023300003461A461B4B1B6819461046FEF744FF1E
:1023400003461A46174B1A60114B1A68144B1B6848
:1023500019461046FFF740F803461A46124B1B6811
:1023600019461046FEF730FF03461A460E4B1A6018
:102370000D4B1B6819463868FEF724FF03461A46C2
:102380000A4B1A6000BF0C37BD4690BD20000020EC
:10239000AC1000209810002090100020B4100020F5
:1023A000A8100020A01000208C1000209410002005
:1023B00080B485B000AFF860B9607A60FB68064A07
:1023C0001A60BB68054A1A607B6880221A6000BFE9
:1023D0001437BD4680BC70479C000020F0000020F0
:1023E000B0B58EB000AF144B07F11C041D460FCDE5
:1023F0000FC495E8070084E8070007F11C030021DB
:10240000184608F04DFC02460C4B1A600C4B3C463B
:102410001D460FCD0FC495E8070084E807003B4632
:102420000021184608F03CFC0246064B1A6000BF2B
:102430003837BD46B0BD00BFFCBF0008B810002053
:1024400024C00008C410002090B583B000AF7860AD
:10245000334804F08BF90A21314804F035FA30484A
:1024600004F03CFC034603F40073002B35D02C48E9
:1024700004F030FB03469AB22A4B1A80294B1B8882
:102480001846FEF723FB24A3D3E90023FEF784FBC1
:1024900003460C46184621464FF00002224BFEF739
:1024A0007BFB03460C46184621464FF000021F4BAB
:1024B000FEF772FB03460C46184621464FF0000219
:1024C0001B4BFEF793FC03460C4618462146FEF7CD
:1024D000FDFD03461AB2174B1A80174B1B681749AC
:1024E0001846FFF717F90346002B08D1124B1B685B
:1024F00013491846FFF72CF90346002B02D0114B65
:1025000001221A701021104805F019F94FF4487093
:1025100008F012FC9CE700BF6666666666660A40C5
:102520005C100020C210002000002640000059402E
:102530000000B040C8100020441100200000F0C18D
:102540000000F0415C0000200008014080B584B02C
:1025500000AF78600023FB730123BB732021134875
:1025600005F0BEF80346002B08D1FB7BFF2B02D001
:10257000FB7B0133FB730023BB7313E0BB7B002B9E
:102580000ED1FB7B012B0BD9094B1B78002B0CBF09
:1025900001230023DBB21A46054B1A700023FB739C
:1025A0000123BB73192008F0C7FBD7E700080140DF
:1025B0005C00002080B588B000AF07F11003002256
:1025C0001A605A609A60DA60344A344B9B6943F06F
:1025D00020039361314B9B6903F02003FB60FB6890
:1025E0002E4A2E4B9B6943F0040393612B4B9B694E
:1025F00003F00403BB60BB68284A284B9B6943F087
:1026000008039361254B9B6903F008037B607B689B
:1026100001221021224805F07AF800224FF470417F
:10262000204805F074F810233B6101237B610123EE
:10263000BB610223FB6107F110031946184804F03F
:10264000F5FE20233B6100237B610123BB6107F181
:1026500010031946124804F0E9FE4FF470433B6141
:1026600001237B610023BB610223FB6107F110039F
:1026700019460C4804F0DAFE4FF400433B610A4B64
:102680007B610023BB6107F110031946044804F085
:10269000CDFE00BF2037BD4680BD00BF0010024008
:1026A00000080140000C01400000111080B500AF8F
:1026B000124B134A1A60114B124A5A600F4B0022F8
:1026C0009A600E4B0022DA600C4B4FF480421A6184
:1026D0000A4B00225A61094B00229A61074B0022E3
:1026E000DA61064B00221A62044805F041F80346FD
:1026F000002B01D003F052FA00BF80BDCC100020A7
:1027000000540040A086010080B58AB000AF786018
:1027100007F1140300221A605A609A60DA607B683D
:102720001B681D4A934232D11C4A1C4B9B6943F0E3
:1027300008039361194B9B6903F008033B613B69F4
:102740004FF440737B611223BB6103233B6207F1AB
:1027500014031946124804F069FE124B5B687B6251
:102760007B6A43F0E0637B627B6A43F002037B6237
:102770000C4A7B6A5360094A084BDB6943F4001337
:10278000D361064BDB6903F40013FB60FB6800BFF9
:102790002837BD4680BD00BF0054004000100240F5
:1027A000000C01400000014080B584B000AF03463A
:1027B000FB71294B93F82430002B1CD0FB79002BA4
:1027C00002D00223FB7301E00023FB73224B5B6802
:1027D0001878214B1B68D97B07F10F03012202F007
:1027E00051FD0346002B02D04FF0FF3330E0FA7B5F
:1027F000194B5A742BE0184B9B7A002B02D14FF0E7
:10280000FF3325E0FB79002B05D0134B5B7C002BBD
:1028100001D000231CE0FB79002B02D00123FB73C5
:1028200001E00023FB730C4B5B6818780A4B1B68B4
:10283000D97B07F10F03012202F024FD0346002B90
:1028400002D04FF0FF3303E0FA7B034B5A740023AE
:1028500018461037BD4680BD3000002080B582B0DC
:1028600000AF80233B707C4B5B6818787A4B1B6809
:10287000997C3B46012202F005FD0346002B02D065
:102880004FF0FF33E4E0642003F076FE00233B705A
:10289000714B5B681878704B1B68997C3B46012232
:1028A00002F0F0FC0346002B02D04FF0FF33CFE0E4
:1028B000694B5B681878684B1B68997D3B4606221C
:1028C00002F006FD0346002B02D04FF0FF33BFE0BD
:1028D0007B799B005BB203F004035AB2FB785B0088
:1028E0005BB203F002035BB213435AB27B785BB274
:1028F00003F001035BB213435BB2FB71FB79002B66
:1029000010D0FB79012B03D1534B0122DA742DE057
:10291000FB79022B03D1504B0022DA7426E04FF0F2
:10292000FF3395E04C4B5B6818784B4B1B68D978AC
:102930003B46012202F0CCFC0346002B02D04FF0B4
:10294000FF3385E03B7803F00F03FB71FB79002B2D
:1029500002D14FF0FF337BE0FB79042B03D13E4BD8
:102960000122DA7402E03C4B0022DA743A4BFF2277
:102970009A72394BFF221A72374BFF225A72364B2A
:10298000FF22DA72344B4FF6FF72DA81324BFF22AC
:102990001A74314BFF229A742F4B01221A732E4B5B
:1029A000012283F822202C4B002283F823202A4B7B
:1029B00000225A75284B00221A750C220021274844
:1029C000FDF750FC244B002283F82420224B0022E8
:1029D00083F82520204B0022DA844FF4FA6000F0BF
:1029E000EDF90346002B02D04FF0FF3330E0022018
:1029F00000F070FA0346002B02D04FF0FF3327E0BF
:102A00002A2000F00BFB0346002B02D04FF0FF33CF
:102A10001EE0322000F068FB0346002B02D04FF08E
:102A2000FF3315E0002000F04BFC0346002B02D0E2
:102A30004FF0FF330CE0002000F01AFD0346002B9E
:102A400002D04FF0FF3303E0002000F08BFC0023A6
:102A500018460837BD4680BD3000002046000020E3
:102A600080B584B000AF0346FB71FB79282B02D9F7
:102A70004FF0FF336AE0FB79002B1CD1002000F0FF
:102A8000BDFD00233B7307237B73324B5B681878D3
:102A9000304B1B68997C07F10C03022202F0F2FB19
:102AA0000346002B02D04FF0FF334FE0294B0022AA
:102AB0001A7500234AE0012000F0A0FD20233B739B
:102AC000FB79012B05D100237B73052000F0A6FACA
:102AD00016E0FB79052B05D801237B73052000F058
:102AE0009DFA0DE0FB79142B05D802237B730A2095
:102AF00000F094FA04E003237B73142000F08EFAB4
:102B00007B7B9B015BB243F007035BB2DBB27B7361
:102B1000104B5B6818780F4B1B68997C07F10C030E
:102B2000022202F0AFFB0346002B02D04FF0FF332E
:102B30000CE0084B08229A72064B00221A73054BD0
:102B400001221A75002000F0BBFB00231846103745
:102B5000BD4680BD3000002080B582B000AF7B4B09
:102B60009B7A002B02D14FF0FF33EBE00023FB7187
:102B7000764B5B681878754B1B68D97BFB1D01226F
:102B800002F080FB0346002B02D04FF0FF33D9E068
:102B90006E4B5B6818786D4B1B685979FB1D0122E1
:102BA00002F070FB0346002B02D04FF0FF33C9E068
:102BB000664B5B681878654B1B681979FB1D012211
:102BC00002F060FB0346002B02D04FF0FF33B9E068
:102BD0005E4B93F82430002B59D00C23FB715B4BD8
:102BE0005B681878594B1B681979FB1D012202F0AC
:102BF00049FB0346002B02D04FF0FF33A2E0C02375
:102C0000FB71524B9B7A03F00103002B04D0FB793C
:102C100043F02003DBB2FB714C4B5B6818784B4BE5
:102C20001B681979FB1D012202F02CFB0346002BC7
:102C300002D04FF0FF3385E0444B5B7C002B02D089
:102C40000223FB7101E00023FB71404B5B681878A5
:102C50003E4B1B68D97BFB1D012202F013FB034690
:102C6000002B02D04FF0FF336CE00023FB71374B99
:102C70005B681878354B1B685979FB1D012202F0FF
:102C800001FB0346002B5CD04FF0FF335AE00423D6
:102C9000FB712E4B5B6818782C4B1B681979FB1D58
:102CA000012202F0EFFA0346002B02D04FF0FF336F
:102CB00048E0264B9B7C002B05D1244B9B7A03F0EC
:102CC0000103002B02D14023FB7101E06023FB7163
:102CD0001E4B5B6818781D4B1B681979FB1D012280
:102CE00002F0D0FA0346002B02D04FF0FF3329E068
:102CF000164B5B7C002B02D00123FB7101E000230B
:102D0000FB71124B5B681878104B1B68D97BFB1D5D
:102D1000012202F0B7FA0346002B02D04FF0FF3336
:102D200010E00A4B5B681878084B1B685979084B10
:102D3000012202F0A7FA0346002B02D04FF0FF3326
:102D400000E0002318460837BD4680BD3000002053
:102D50004000002080B483B000AF7860164B1B7A2F
:102D6000032B1ED801A252F823F000BF7D2D0008CE
:102D7000852D00088F2D0008992D00087B68FA2208
:102D80001A8012E07B684FF4FA721A800DE07B68BB
:102D90004FF47A721A8008E07B684FF4FA621A8066
:102DA00003E07B6800221A8000BF002318460C371E
:102DB000BD4680BC704700BF3000002080B584B0A5
:102DC00000AF0346FB80254B9B7A002B02D14FF0CE
:102DD000FF333FE0FB88B3F5FA7F0FD0B3F5FA7FFE
:102DE00002DCFA2B07D012E0B3F57A7F09D0B3F5F5
:102DF000FA6F09D00BE00023FB730BE00823FB7391
:102E000008E01023FB7305E01823FB7302E04FF08A
:102E1000FF331FE0114B1A7AFB7BDB08DBB29A42CF
:102E200001D1002316E00D4B5B6818780B4B1B6833
:102E3000997907F10F03012202F024FA0346002BCF
:102E400002D04FF0FF3305E0FB7BDB08DAB2034B27
:102E50001A72002318461037BD4680BD300000208E
:102E600080B483B000AF7860194B5B7A032B1BD81A
:102E700001A252F823F000BF892E0008912E00080D
:102E8000992E0008A12E00087B6802221A700EE01D
:102E90007B6804221A700AE07B6808221A7006E038
:102EA0007B6810221A7002E04FF0FF330AE0084BF3
:102EB000DB7C002B05D07B681B785B00DAB27B687B
:102EC0001A70002318460C37BD4680BC704700BFFF
:102ED0003000002080B584B000AF0346FB71304B5A
:102EE0009B7A002B02D14FF0FF3354E0FB79023B79
:102EF0000E2B2DD801A252F823F000BF392F000865
:102F0000512F00083F2F0008512F0008512F0008B3
:102F1000512F0008452F0008512F0008512F00089D
:102F2000512F0008512F0008512F0008512F000881
:102F3000512F00084B2F00080023FB730BE00823E0
:102F4000FB7308E01023FB7305E01823FB7302E01A
:102F50004FF0FF331FE0124B5A7AFB7BDB08DBB2EA
:102F60009A4201D1002316E00D4B5B6818780C4B98
:102F70001B68D97907F10F03012202F083F9034698
:102F8000002B02D04FF0FF3305E0FB7BDB08DAB209
:102F9000034B5A72002318461037BD4680BD00BF50
:102FA0003000002080B483B000AF78601A4BDB7A29
:102FB000013B052B26D801A252F823F0D52F00089B
:102FC000DD2F0008E52F0008ED2F0008F52F000881
:102FD000FD2F00087B68BC221A8017E07B68622204
:102FE0001A8013E07B682A221A800FE07B68142283
:102FF0001A800BE07B680A221A8007E07B680522B2
:103000001A8003E07B6800221A8000BF0023184664
:103010000C37BD4680BC70473000002080B584B0BE
:1030200000AF0346FB80234B9B7A002B02D14FF06D
:10303000FF333BE0FB88BB2B02D90123FB7319E074
:10304000FB88612B02D90223FB7313E0FB88292B39
:1030500002D90323FB730DE0FB88132B02D9042351
:10306000FB7307E0FB88092B02D90523FB7301E002
:103070000623FB730F4BDA7AFB7B9A4201D10023C4
:1030800014E00C4B5B6818780A4B1B68997807F1C1
:103090000F03012202F0F6F80346002B02D04FF096
:1030A000FF3303E0FA7B034BDA7200231846103734
:1030B000BD4680BD3000002080B483B000AF786092
:1030C000084B93F82430002B02D04FF0FF3304E07C
:1030D000044BDA897B681A80002318460C37BD46FA
:1030E00080BC70473000002080B584B000AF03463C
:1030F000FB802F4B9B7A002B02D14FF0FF3353E024
:103100002B4B93F82430002B02D04FF0FF334BE0D1
:10311000274B1B7D002B0FD0FB88002B09D0FB8891
:10312000282B06D8FB88DBB21846FFF799FC002352
:103130003AE00020FFF794FCFB88032B02D804231D
:10314000FB8006E0FB88B3F57A7F02D94FF47A73EF
:10315000FB80FB884FF47A7292FBF3F3DBB2013B06
:10316000DBB2FB73124B5B681878114B1B68597804
:1031700007F10F03012202F085F80346002B02D06D
:103180004FF0FF3310E0FB7B01334FF47A7292FB78
:10319000F3F39AB2064BDA81054BDB895B089BB2ED
:1031A0001846FFF73BFF002318461037BD4680BD89
:1031B0003000002080B483B000AF7860144B1B7ADD
:1031C000032B1BD801A252F823F000BFDD31000809
:1031D000E5310008ED310008F53100087B680D4A43
:1031E0001A600EE07B680C4A1A600AE07B680B4AA2
:1031F0001A6006E07B680A4A1A6002E04FF0FF336B
:1032000000E0002318460C37BD4680BC704700BF65
:1032100030000020000003430000834233330342A8
:103220003333834180B483B000AF78601B4B5B7A4B
:10323000032B1FD801A252F823F000BF4D32000823
:1032400057320008613200086B3200087B684FF487
:1032500080421A8011E07B6841F69C721A800CE073
:103260007B684FF480521A8007E07B684FF400625D
:103270001A8002E04FF0FF330AE0084BDB7C002BA2
:1032800005D07B681B885B089AB27B681A80002394
:1032900018460C37BD4680BC704700BF3000002088
:1032A00080B483B000AF7860044B1A7C7B681A70DE
:1032B000002318460C37BD4680BC70473000002004
:1032C00080B584B000AF0346FB710023FB60FB793F
:1032D00023F00103FB71224B93F82430002B01D023
:1032E000002338E01E4B9B7A002B02D14FF0FF33B6
:1032F00031E01B4B1B7CFB72194B9A7AFB79134014
:10330000DAB2174B1A74164B1B7CFA799A4203D027
:103310004FF0FF33FB6001E00023FB60FB79002BE3
:1033200003D10F4B1B7D002B03D00120FFF73CFA8C
:1033300002E00020FFF738FAFB79002B0AD0FFF7F4
:103340000BFC0346002B05D0054AFB7A13744FF0A3
:10335000FF3300E0FB6818461037BD4680BD00BF54
:103360003000002080B584B000AF0346FB71FB79CC
:1033700003F07003002B02D00123FB7307E0FB79FD
:10338000002B02D00023FB7301E04023FB73374B7B
:103390005B681878354B1B68997C07F10F03012295
:1033A00001F070FF0346002B05D0304B00229A72CB
:1033B0004FF0FF3356E0FB7B23F04003DAB22B4B98
:1033C0001A730023FB73FB7903F04003002B04D135
:1033D000FB7B43F00403DBB2FB73FB7903F02003B8
:1033E000002B04D1FB7B43F00203DBB2FB73FB79C0
:1033F00003F01003002B04D1FB7B43F00103DBB28D
:10340000FB73FB7903F00803002B04D1FB7B43F033
:103410003803DBB2FB73154B5B681878134B1B68E2
:10342000D97C07F10F03012201F02CFF0346002B8A
:1034300005D00E4B00229A724FF0FF3312E0FB7959
:10344000002B05D0FB79082B02D0002000F0D6F825
:10345000064AFB799372054B00221A75322003F05D
:103460008BF8002318461037BD4680BD3000002081
:1034700080B584B000AF0346FB715F4B9B7CFA794B
:103480009A4201D10023B2E0FB79002B50D05A4B75
:103490005B681878584B1B68197907F10F030122F4
:1034A00001F016FF0346002B02D04FF0FF339EE0E1
:1034B000FB7B23F02003DBB2FB734F4B5B68187878
:1034C0004D4B1B68197907F10F03012201F0DAFE59
:1034D0000346002B02D04FF0FF3388E0032003F0B7
:1034E0004BF80223FB73444B93F82230002B04D09B
:1034F000FB7B63F07F03DBB2FB733F4B93F823301E
:10350000002B04D0FB7B43F03003DBB2FB733A4B60
:103510005B681878384B1B68197D07F10F0301228F
:1035200001F0B0FE0346002B5DD04FF0FF335EE0AC
:10353000314B5B681878304B1B68197907F10F0322
:10354000012201F0C5FE0346002B02D04FF0FF33ED
:103550004DE0294B9B7A03F00103002B05D0FB7B48
:1035600043F02003DBB2FB7304E0FB7B23F020037A
:10357000DBB2FB73204B5B6818781F4B1B68197913
:1035800007F10F03012201F07DFE0346002B02D05C
:103590004FF0FF332BE0032002F0EEFF164B93F8C1
:1035A0002230002B02D08023FB7301E00023FB7349
:1035B000114B93F82330002B04D0FB7B43F03003F6
:1035C000DBB2FB730C4B5B6818780B4B1B68197DE7
:1035D00007F10F03012201F055FE0346002B02D034
:1035E0004FF0FF3303E0044AFB799374002318463D
:1035F0001037BD4680BD00BF3000002080B584B0CC
:1036000000AF0346FB711E4B93F82330FA799A42C0
:1036100001D1002330E0FB79002B02D03023FB7373
:1036200001E00023FB73164B9B7C002B04D0FB7B3B
:1036300043F00203DBB2FB73114B93F82230002BF3
:1036400004D0FB7B63F07F03DBB2FB730C4B5B6846
:1036500018780B4B1B68197D07F10F03012201F04D
:1036600011FE0346002B02D04FF0FF3304E0044A62
:10367000FB7982F82330002318461037BD4680BD01
:103680003000002090B587B000AF7860424B5B6897
:10369000187807F1100304220D2101F019FE0346EA
:1036A000002B01D0072372E03B7CDB105BB203F000
:1036B0001C035AB2FB7C1B115BB203F003035BB229
:1036C00013435BB2DBB23B737B7CDB105BB203F07A
:1036D0001C035AB2FB7C9B105BB203F003035BB28A
:1036E00013435BB2DBB27B73BB7CDB105BB203F0DA
:1036F0001C035AB2FB7C5BB203F003035BB21343BF
:103700005BB2DBB2BB730023FB753CE0FB7D07F1D2
:103710001802134413F80C3C002B07D1FB7D9B00CF
:103720007A6813444FF000021A6029E0FB7D9B0089
:103730007A681344194A1A600EE0FB7D9B007A6890
:10374000D418FB7D9B007A6813441B681449184603
:10375000FDF742FE03462360FB7D07F118021A4481
:1037600012F80C2C013AD1B207F118021A4402F8EF
:103770000C1C07F11802134413F80C3C002BDCD18D
:10378000FB7D0133FB75FB7D022BBFD9002318465F
:103790001C37BD4690BD00BF300000207B14AE3EFC
:1037A0001D5A843F80B58AB000AF7860396000232D
:1037B0003B6207F10C031846FFF764FF00237B62AE
:1037C00067E07B6A9B007A6813441A687B6A9B00F7
:1037D00039680B441B68D31A002BB8BF5B421846EC
:1037E000FDF7A6FD03464FF08F411846FDF7A8FEF2
:1037F0000346FB617B6A9B0007F12802134453F8E0
:103800001C3C4FF000011846FDF77AFF0346002BE1
:1038100025D17B6A9B0007F12802134453F81C3C16
:103820001946F869FDF78CFE03464FF07E511846A5
:10383000FDF7C8FC0346BB61BB6923F00043194A8E
:1038400011461846FDF784FF0346002B1ED00122C7
:103850007B6A02FA03F33A6A13433B6216E0124BA7
:10386000F9691846FDF774FF0346002B07D10F4B8B
:10387000F9691846FDF74EFF0346002B06D00122DA
:103880007B6A02FA03F33A6A13433B627B6A0133B1
:103890007B627B6A022B94DD3B6A18462837BD4663
:1038A00080BD00BF295C0F3E9A99993E3333733F28
:1038B00080B588B000AF786039600023BB61544B9D
:1038C0005B68187807F1080303220D2101F000FD61
:1038D0000346002B01D0072395E03B7A03F01F033A
:1038E000DBB23B727B7A03F01F03DBB27B72BB7AE5
:1038F00003F01F03DBB2BB720023FB617EE0FB69B8
:103900009B007A6813441A68FB699B0039680B4472
:103910001B68D31A002BB8BF5B421846FDF708FDA1
:1039200003464FF08F411846FDF70AFE03463B6100
:1039300007F10802FB6913441B78002B44D0832352
:103940001846FDF7F1FC034619463248FDF7F8FD2D
:1039500003467B6105E030497869FDF73DFD03468C
:103960007B6107F10802FB6913441B78013BD9B264
:1039700007F10802FB6913440A461A7007F10802AE
:10398000FB6913441B78002BE5D179693869FDF791
:10399000D7FD03464FF07E511846FDF713FC034652
:1039A000FB60FB6823F000431C4A11461846FDF7F4
:1039B000CFFE0346002B1ED00122FB6902FA03F35F
:1039C000BA691343BB6116E0154B39691846FDF718
:1039D000BFFE0346002B07D1124B39691846FDF78D
:1039E00099FE0346002B06D00122FB6902FA03F37D
:1039F000BA691343BB61FB690133FB61FB69022BAD
:103A00007FF77DAFBB6918462037BD4680BD00BF3C
:103A10003000002000B04C4554E3853F295C0F3E48
:103A2000000020410000D2422DE9F04F95B000AFD8
:103A3000786239621346FB77012387F83C30002314
:103A400087F83D30A34B5B681878A24B1B68997CC4
:103A500007F13C03022201F015FC0346002B02D0C3
:103A60004FF0FF33E4E2C82002F086FD002387F820
:103A70003C30984B5B681878964B1B68D97B07F1F4
:103A80003C03012201F0FEFB0346002B02D04FF065
:103A9000FF33CDE28F4B5B6818788E4B1B685979EA
:103AA00007F13C03012201F0EDFB0346002B02D09D
:103AB0004FF0FF33BCE2874B5B681878854B1B687F
:103AC000997C07F13C03012201F0DCFB0346002B4B
:103AD00002D04FF0FF33ABE27E4B5B6818787D4B32
:103AE0001B68D97D07F13C03012201F0CBFB0346A3
:103AF000002B02D04FF0FF339AE2764B5B681878C8
:103B0000744B1B68197907F13C03012201F0BAFBE1
:103B10000346002B02D04FF0FF3389E20C2387F8D5
:103B20003C306C4B5B6818786A4B1B68197907F15D
:103B30003C03012201F0A6FB0346002B02D04FF00C
:103B4000FF3375E20F2002F017FD624B9B6A5B7A30
:103B500087F83C305F4B5B6818785E4B1B68997840
:103B600007F13C03012201F08DFB0346002B02D03C
:103B70004FF0FF335CE2574B9B6A1B7A87F83C306F
:103B8000544B5B681878534B1B68597807F13C031A
:103B9000012201F077FB0346002B02D04FF0FF33E8
:103BA00046E2FB7F002B08D04A4B9B6A9B7A63F06E
:103BB0001F03DBB287F83C3004E0464B9B6A9B7ADC
:103BC00087F83C30434B5B681878424B1B68997907
:103BD00007F13C03012201F055FB0346002B02D004
:103BE0004FF0FF3324E2FB7F002B08D0394B9B6A58
:103BF000DB7A63F01F03DBB287F83C3002E0182366
:103C000087F83C30334B5B681878324B1B68D979A6
:103C100007F13C03012201F035FB0346002B02D0E3
:103C20004FF0FF3304E2FB7F002B02D0C82002F0EC
:103C3000A3FC402387F83C30264B5B681878254B63
:103C40001B68197907F13C03012201F01BFB0346B5
:103C5000002B02D04FF0FF33EAE1782387F83C30A5
:103C60001C4B5B6818781B4B1B68597907F13C03A8
:103C7000012201F007FB0346002B02D04FF0FF3377
:103C8000D6E13223184602F077FC002387F83C3057
:103C9000104B5B6818780F4B1B68597907F13C0390
:103CA000012201F0EFFA0346002B02D04FF0FF3360
:103CB000BEE1084B5B681878064B1B68997A07F1E0
:103CC0003C03022201F004FB0346002B04D04FF01A
:103CD000FF33ADE13000002097F83C301B021AB2F0
:103CE00097F83D301BB213431BB2A7F84C30B7F81E
:103CF0004C301A4AA2FB0323DB089BB287F84B30F7
:103D00007B6A191D7B6A03F10802002313601368A4
:103D10000B600A687B6A1A603B6A191D3B6A03F1F3
:103D200008020023136013680B600A683B6A1A607C
:103D3000002387F84F308AE0094B5B681878084BFE
:103D40001B68D97A07F13C030C2201F0C1FA034643
:103D5000002B07D04FF0FF336AE100BFABAAAAAA3D
:103D60003000002097F83C301B021AB297F83D3023
:103D70001BB213431BB2BB8697F83E301B021AB22C
:103D800097F83F301BB213431BB2FB8697F84030C5
:103D90001B021AB297F841301BB213431BB23B8788
:103DA0003B6A1A68B7F934301A443B6A1A603B6AB6
:103DB000191D3B6A04331A68B7F9363013440B6097
:103DC0003B6A03F108013B6A08331A68B7F93830D7
:103DD00013440B6097F842301B021AB297F8433035
:103DE0001BB213431BB2BB8597F844301B021AB2B7
:103DF00097F845301BB213431BB2FB8597F846304A
:103E00001B021AB297F847301BB213431BB23B8612
:103E10007B6A1A68B7F92C301A447B6A1A607B6A8D
:103E2000191D7B6A04331A68B7F92E3013440B60EE
:103E30007B6A03F108017B6A08331A68B7F93030EE
:103E400013440B6097F84F30013387F84F3097F8E1
:103E50004F2097F84B309A42FFF46EAF7B6A1B6895
:103E60004FEAE3741E141D0483234FF000041A4626
:103E7000234628463146FDF7BBFC03460C46184650
:103E8000214697F84B304FF000041A462346FDF7C1
:103E9000AFFC03460C461A467B6A1A607B6A1D1DFE
:103EA0007B6A04331B684FEAE3744FEA23494FEA05
:103EB000034883234FF000041A46234640464946F0
:103EC000FDF796FC03460C461846214697F84B3002
:103ED0004FF000041A462346FDF78AFC03460C46C1
:103EE0002B607B6A03F108057B6A08331B684FEA85
:103EF000E3741A147A611B043B6183234FF00004BE
:103F00001A462346D7E90401FDF772FC03460C4626
:103F10001846214697F84B304FF000041A462346C6
:103F2000FDF766FC03460C462B603B6A1B684FEAB4
:103F3000E3741A14FA601B04BB604FF400634FF083
:103F400000041A462346D7E90201FDF751FC034657
:103F50000C461846214697F84B304FF000041A469D
:103F60002346FDF745FC03460C461A463B6A1A6099
:103F70003B6A1D1D3B6A04331B684FEAE3741A1445
:103F80007A601B043B604FF400634FF000041A4654
:103F90002346D7E90001FDF72BFC03460C461846E3
:103FA000214697F84B304FF000041A462346FDF7A0
:103FB0001FFC03460C462B603B6A03F108053B6A75
:103FC00008331B684FEAE3744FEA234B4FEA034A76
:103FD0004FF400634FF000041A46234650465946FA
:103FE000FDF706FC03460C461846214697F84B3071
:103FF0004FF000041A462346FDF7FAFB03460C4631
:104000002B603B6A08331B68002B08DD3B6A0833D2
:104010003A6A08321268A2F580321A6007E03B6AF9
:1040200008333A6A0832126802F580321A600023B7
:1040300018465437BD46BDE8F08F00BF80B58EB03E
:1040400000AF78603960022387F82E3000237B812F
:10405000634B93F82430002B06D0002000F0E4F9E5
:10406000012387F82F3002E0002387F82F3007F173
:104070000C031846FEF76EFE07F10F031846FEF715
:10408000EFFE07F108031846FEF78CFF07F10A035D
:104090001846FFF711F8524B9B7A87F82D3007F13D
:1040A0000E031846FFF7FCF800237B630AE00022AA
:1040B00039687868FFF7B8FC0346002B08D07B6BA3
:1040C00001337B6397F82E207B6B9A42EFDC00E094
:1040D00000BF97F82E207B6B9A4202D100233B63EE
:1040E00043E000237B630DE007F1100107F11C039F
:1040F00001221846FFF798FC0346002B08D07B6B83
:1041000001337B6397F82E207B6B9A42ECDC00E056
:1041100000BF97F82E207B6B9A4202D100233B63AD
:1041200023E007F1100319463868FFF73BFB03460D
:1041300087F82C3007F11C0319467868FFF7B8FBA5
:10414000034687F82B3000233B6397F82B30002B76
:1041500003D13B6B43F001033B6397F82C30002BFA
:1041600003D13B6B43F002033B631D4BFF221A72EA
:104170001B4BFF225A721A4BFF22DA72184B4FF672
:10418000FF72DA81164BFF229A72154BFF221A74C6
:10419000134B01221A73BB891846FEF70FFEFB7BF7
:1041A0001846FEF797FE3B891846FEF737FF7B89D6
:1041B0001846FEF799FF97F82D301846FFF7D2F80A
:1041C000BB7B1846FFF77CF897F82F30002B02D006
:1041D000012000F029F93B6B18463837BD4680BDF9
:1041E0003000002080B584B000AF03463A60FB8009
:1041F0000B46BB803B68002B02D14FF0FF333DE004
:10420000204B9B7A002B02D14FF0FF3336E0FB8826
:104210001B0A9BB2DBB23B73FB88DBB27B737B7BFD
:104220001A46BB881344174A52685289934202DDEA
:104230004FF0FF3322E0134B5B681878114B1B687B
:10424000197E07F10C03022201F01CF80346002B33
:1042500002D04FF0FF3311E00A4B5B681878094B2E
:104260001B68597DBB88DAB23B6801F00BF8034646
:10427000002B02D04FF0FF3300E000231846103728
:10428000BD4680BD3000002080B584B000AF03463D
:104290003A60FB800B46BB803B68002B02D14FF09D
:1042A000FF333DE0204B9B7A002B02D14FF0FF33D0
:1042B00036E0FB881B0A9BB2DBB23B73FB88DBB2A8
:1042C0007B737B7B1A46BB881344174A526852891A
:1042D000934202DD4FF0FF3322E0134B5B68187806
:1042E000114B1B68197E07F10C03022200F0CAFF74
:1042F0000346002B02D04FF0FF3311E00A4B5B68FE
:104300001878094B1B68597DBB88DAB23B6800F00E
:10431000DFFF0346002B02D04FF0FF3300E0002305
:1043200018461037BD4680BD3000002080B58AB0E9
:1043300000AFB96011461A460346FB810B46BB81AC
:104340001346FB80374B93F82530002B02D04FF0FB
:10435000FF3362E0BB68002B02D14FF0FF335CE01B
:104360000023FB8434E0FA89FB8CD31A102BA8BFFE
:104370001023BB84FB8CBA681A44B98CFB8C18469A
:10438000FFF730FF0346002B02D04FF0FF3344E02D
:1043900007F11402B98CFB8C1846FFF775FF034632
:1043A000002B02D04FF0FF3337E0FB8CBA68134488
:1043B000BA8C07F114011846FBF724FF0346002BC3
:1043C00002D06FF0010328E0FA8CBB8C1344FB840D
:1043D000FA8CFB899A42C6D3BB891B0A9BB2DBB21B
:1043E0003B74BB89DBB27B740E4B5B6818780D4B5A
:1043F0001B68997E07F11003022200F043FF034679
:10440000002B02D04FF0FF3307E0064B012283F868
:104410002520044AFB88D384002318462837BD464C
:1044200080BD00BF3000002080B584B000AF0346DF
:10443000FB71264B93F82430FA799A4201D100237C
:1044400040E0FB79002B27D0204B93F82530002B40
:1044500002D14FF0FF3335E00020FEF7A5F9002030
:10446000FFF706F8194BDB8C1846FEF73DFE0023DC
:10447000FB73164B5B68187807F10F0301222321A9
:1044800000F000FF114B012283F824200120FEF7E9
:104490008BF9FEF761FB14E00020FEF785F90B4B6A
:1044A0001B7CFB73094B5B68187807F10F03012233
:1044B000232100F0E7FE054B002283F82420FEF7BD
:1044C0004BFB002318461037BD4680BD300000204E
:1044D00080B500AF4FF48062C823044940F6F6303F
:1044E000FFF724FF0346184680BD00BF50C10008F7
:1044F00080B588B000AF0346FB80714A07F1140312
:104500001268114619800233120C1A706D4A07F1B5
:1045100010031268114619800233120C1A706A4A8D
:1045200007F10C031268114619800233120C1A703D
:10453000664A07F108031268114619800233120C0B
:104540001A70FB8803F0030307F12002134413F8E9
:104550000C3C3B77FB88DB089BB203F0030307F1BD
:104560002002134413F80C3C7B77FB889B099BB219
:1045700003F0030307F12002134413F80C3CBB774C
:10458000FB8803F0030307F12002134413F8103CE7
:104590003B76FB88DB089BB203F0030307F12002A4
:1045A000134413F8103C7B76FB889B099BB203F005
:1045B000030307F12002134413F8103CBB7607F104
:1045C0001C031A46032140F22640FFF70BFE034668
:1045D000002B02D04FF0FF336EE007F118031A46AC
:1045E000032140F22A40FFF7FDFD0346002B02D0D5
:1045F0004FF0FF3360E007F11C0307F10C02126873
:10460000114619800233120C1A7007F1180307F1D2
:1046100008021268114619800233120C1A70FB88C6
:1046200003F00403002B09D03B7F43F00103DBB20E
:104630003B773B7E43F00103DBB23B76FB8803F024
:104640002003002B09D07B7F43F00103DBB27B7793
:104650007B7E43F00103DBB27B76FB8803F480733F
:10466000002B09D0BB7F43F00103DBB2BB77BB7EDD
:1046700043F00103DBB2BB7607F11C031A460321AA
:104680004FF48860FFF7AEFD0346002B02D04FF0D9
:10469000FF3311E007F118031A46032140F23140BD
:1046A000FFF7A0FD0346002B02D04FF0FF3303E0DD
:1046B000074AFB881381002318462037BD4680BD7A
:1046C00040C0000844C0000848C000084CC00008B2
:1046D000F00200202DE9F04B86B000AF78606A4B05
:1046E0001B8903F003039B00786803441B68FB608D
:1046F000654B1B8903F00403002B02D0FB685B426F
:10470000FB60614B1B89DB089BB203F003039B003A
:10471000786803441B683B615B4B1B8903F02003F3
:10472000002B02D03B695B423B61574B1B899B09C5
:104730009BB203F003039B00786803441B687B6112
:10474000514B1B8903F48073002B02D07B695B42C1
:104750007B61FB684FEAE3744C4800FB04FE0020D9
:1047600000FB03F07044494AA3FB02342044044692
:104770004FEA937848EA84084FEAA4794346FB60FD
:104780003B694FEAE374414800FB04FE002000FB54
:1047900003F070443D4AA3FB0234204404469D0FBD
:1047A00045EA8405A6172B463B617B694FEAE37413
:1047B000364800FB04F5002000FB03F02844334D8D
:1047C000A3FB0534204404464FEA937B4BEA840B59
:1047D0004FEAA47C5B467B61FB681B16DBB23B7235
:1047E000FB681B14DBB27B72FB681B12DBB2BB7273
:1047F000FB68DBB2FB7207F108031A4604214FF491
:104800007470FFF7EFFC0346002B02D04FF0FF332C
:1048100034E03B691B16DBB23B723B691B14DBB215
:104820007B723B691B12DBB2BB723B69DBB2FB7272
:1048300007F108031A4604214FF47570FFF7D2FC04
:104840000346002B02D04FF0FF3317E07B691B16A5
:10485000DBB23B727B691B14DBB27B727B691B1280
:10486000DBB2BB727B69DBB2FB7207F108031A464D
:1048700004214FF47670FFF7B5FC0346184618374D
:10488000BD46BDE8F08B00BFF002002009E3CA027C
:104890002DE9B04F8EB000AFF86007F1160318464F
:1048A000FEF7C0FCFB8A9AB24FF00003DD0345EA35
:1048B0005245D403C7E90C455F4B1B8903F0030342
:1048C0009B00FA6813441B687B625B4B1B8903F0F7
:1048D0000403002B02D07B6A5B427B62564B1B8930
:1048E000DB089BB203F003039B00FA6813441B68C8
:1048F000BB62514B1B8903F02003002B02D0BB6A23
:104900005B42BB624C4B1B899B099BB203F00303C8
:104910009B00FA6813441B68FB62474B1B8903F436
:104920008073002B02D0FB6A5B42FB627B6A4FEA1A
:10493000E3743A6B04FB02F17A6B03FB02F20A4464
:10494000396BA1FB0334224414469A0F3A603A684B
:1049500042EA84023A60A3177B603B687B62BB6AD1
:104960004FEAE3743A6B04FB02F17A6B03FB02F249
:104970000A44396BA1FB0334224414464FEA937A6C
:104980004AEA840A4FEAA47B5346BB62FB6A4FEAB9
:10499000E3743A6B04FB02F17A6B03FB02F20A4404
:1049A000396BA1FB0334224414464FEA937848EA5A
:1049B00084084FEAA4794346FB627B6A1B16DBB28C
:1049C0003B767B6A1B14DBB27B767B6A1B12DBB205
:1049D000BB767B6ADBB2FB76BB6A1B16DBB23B772E
:1049E000BB6A1B14DBB27B77BB6A1B12DBB2BB77E3
:1049F000BB6ADBB2FB77FB6A1B16DBB287F82030A1
:104A0000FB6A1B14DBB287F82130FB6A1B12DBB296
:104A100087F82230FB6ADBB287F8233007F11803EE
:104A20001A460C214FF42570FFF7DCFB03461846AD
:104A30003837BD46BDE8B08FF002002080B588B0A1
:104A400000AF0346FB801F4A07F1100307CA83E843
:104A50000700FB88C82B02D94FF0FF332EE0FB88FC
:104A6000C82292FBF3F39BB2013BFB83FB8B1B0A37
:104A70009BB2DBB23B72FB8BDBB27B7207F10803AC
:104A80001A46022140F21620FFF7ACFB0346002B2A
:104A900002D04FF0FF3311E007F110031A460C214A
:104AA00040F6C120FFF79EFB0346002B02D04FF0DB
:104AB000FF3303E0044AFB88938100231846203724
:104AC000BD4680BD50C00008F002002080B586B011
:104AD00000AF03460A46FB711346BB80FB7903F027
:104AE0000703002B03D0BB88B3F5C86F02D94FF082
:104AF000FF3307E1BB881846FCF716FC03468349E1
:104B00001846FCF71DFD03463B6107F10B031846F1
:104B1000FEF7A6F9FB7A023B0E2B79D801A252F8D8
:104B200023F000BF614B0008114C00088D4B0008BA
:104B3000114C0008114C0008114C0008B94B00083A
:104B4000114C0008114C0008114C0008114C0008D1
:104B5000114C0008114C0008114C0008E54B0008EE
:104B60004FF08D413869FCF737FC03461846FCF7D7
:104B70001FFE0346FB8266493869FCF72DFC03469D
:104B80001846FCF715FE0346BB8244E04FF08C410B
:104B90003869FCF721FC03461846FCF709FE03467A
:104BA000FB825C493869FCF717FC03461846FCF7A2
:104BB000FFFD0346BB822EE04FF08B413869FCF7C6
:104BC0000BFC03461846FCF7F3FD0346FB825249F3
:104BD0003869FCF701FC03461846FCF7E9FD03467B
:104BE000BB8218E04FF08A413869FCF7F5FB0346B9
:104BF0001846FCF7DDFD0346FB8248493869FCF79F
:104C0000EBFB03461846FCF7D3FD0346BB8202E0EC
:104C10004FF0FF3376E0FB8A1B0A9BB2DBB23B739B
:104C2000FB8ADBB27B73BB8A1B0A9BB2DBB2BB7312
:104C3000BB8ADBB2FB73FB7903F00103002B1CD0B2
:104C400007F10C031A4602214FF4EA70FFF7CAFA83
:104C50000346002B02D04FF0FF3353E007F10C0363
:104C600002331A4602214FF49270FFF7BBFA034653
:104C7000002B02D04FF0FF3344E0FB7903F0020336
:104C8000002B1CD007F10C031A4602214FF4EC70E4
:104C9000FFF7A8FA0346002B02D04FF0FF3331E0B4
:104CA00007F10C0302331A4602214FF49470FFF708
:104CB00099FA0346002B02D04FF0FF3322E0FB7934
:104CC00003F00403002B1CD007F10C031A46022149
:104CD0004FF4EE70FFF786FA0346002B02D04FF038
:104CE000FF330FE007F10C0302331A4602214FF4A1
:104CF0009670FFF777FA0346002B02D04FF0FF3390
:104D000000E0002318461837BD4680BD0000484328
:104D1000000040460000C045000040450000C0447F
:104D200080B584B000AF0346FB710023FB73FB79B1
:104D300003F00103002B04D0FB7B43F03003DBB214
:104D4000FB73FB7903F00203002B04D0FB7B43F0E1
:104D50000C03DBB2FB73FB7903F00403002B04D0DC
:104D6000FB7B43F00303DBB2FB7307F10F031A462F
:104D700001214FF4A470FFF735FA034618461037A7
:104D8000BD4680BD80B584B000AF0346FB71FB79A2
:104D9000002B02D10123FB7104E0FB79042B01D924
:104DA0000423FB71FB79013BDBB2FB7307F10F03BB
:104DB0001A46012140F24F10FFF714FA0346184635
:104DC0001037BD4680BD000080B584B000AF0346FB
:104DD000FB80FB880C4AA2FB03239B08FB81FB8919
:104DE0001B0A9BB2DBB23B73FB89DBB27B7307F11F
:104DF0000C031A4602214FF4EF70FFF7F3F9034654
:104E000018461037BD4680BDCDCCCCCC80B584B023
:104E100000AF0346FB80FB880C4AA2FB03239B08E0
:104E2000FB81FB891B0A9BB2DBB23B73FB89DBB2C4
:104E30007B7307F10C031A4602214FF4ED70FFF764
:104E4000D1F9034618461037BD4680BDCDCCCCCC39
:104E500080B584B000AF78600B467B807B68134AD6
:104E600082FB03129211DB17D31A7A8802FB03F339
:104E7000FB60FB681B16DBB23B72FB681B14DBB2EA
:104E80007B72FB681B12DBB2BB72FB68DBB2FB728E
:104E900007F108031A4604214FF4AE70FFF7A2F998
:104EA000034618461037BD4680BD00BFD34D621083
:104EB00080B584B000AF0346FB80FB880C4AA2FBA0
:104EC00003239B08FB80FB881B0A9BB2DBB23B736E
:104ED000FB88DBB27B7307F10C031A4602214FF407
:104EE000AD70FFF77FF9034618461037BD4680BD09
:104EF000CDCCCCCC80B584B000AF0346FB80FB8822
:104F00000C4AA2FB03239B08FB80FB881B0A9BB275
:104F1000DBB23B73FB88DBB27B7307F10C031A46F1
:104F200002214FF4AC70FFF75DF9034618461037C5
:104F3000BD4680BDCDCCCCCC80B586B000AF03469D
:104F4000FB8002233B73CA237B73E323BB730923D8
:104F5000FB7307F10C031A4604216820FFF742F99E
:104F6000A3233B73FB8803F04003002B06D0C02330
:104F70007B73C823BB73C223FB7305E0A3237B733E
:104F8000A323BB73A323FB73FB8803F4C073002B21
:104F900006D0C4233B74CC237B74C623BB7405E0CA
:104FA000A3233B74A3237B74A323BB74A323FB74AD
:104FB000A3233B75A3237B7507F10C031A460A2133
:104FC00040F6A720FFF70EF9FB8803F00303002B40
:104FD00002D020233B7301E0D8233B7307F10C037D
:104FE0001A46012140F6B620FFF7FCF8FB8803F0D3
:104FF0002003002B03D0012000F0C6F802E00020BF
:1050000000F0C2F8FB8803F4C073002B1DD0FB88AE
:1050100003F48073002B08D0B2233B738B237B7384
:10502000B623BB739B23FB7307E0B0233B73802342
:105030007B73B423BB739023FB7307F10C031A46F5
:10504000042140F6A220FFF7CDF8FB8803F001030E
:10505000002B25D0F8233B7307F10C031A460121DE
:105060004FF40B60FFF7BEF8FA210720FFF72EFD83
:105070000720FFF755FE0120FFF784FE6420FFF7AD
:10508000A3FE4FF4FA70FFF7C1FEC8213C48FFF7BA
:10509000DFFE2820FFF70CFF0A20FFF72BFF09E0B7
:1050A000D8233B7307F10C031A4601214FF40B6020
:1050B000FFF798F8FB8803F00203002B02D0D923F6
:1050C0003B7301E0D8233B7307F10C031A4601211F
:1050D00040F23D70FFF786F8FB8803F00403002BD5
:1050E00003D0012000F080F802E0002000F07CF8FE
:1050F000FB8803F01003002B03D0012000F09BF885
:1051000002E0002000F097F8FB8843F008039AB211
:105110001C4B5A81FDF720FD1A4B00229A73FB8825
:1051200003F04003002B05D0164B9B7B0633DAB20D
:10513000144B9A73FB8803F4C073002B05D0114BFA
:105140009B7B0633DAB20F4B9A73FB8803F0140390
:10515000002B05D00B4B9B7B1033DAB2094B9A73B3
:10516000FB8803F00303002B05D0064B9B7B043325
:10517000DAB2044B9A73002318461837BD4680BD37
:1051800009E3CA02F002002080B588B000AF0346F0
:10519000FB71FB79002B0FD0114A07F1140307CAEA
:1051A00003C31A7007F114031A4609214FF49760DC
:1051B000FFF718F803460EE00A4A07F1080307CA8A
:1051C00003C31A7007F108031A4609214FF49760C8
:1051D000FFF708F8034618462037BD4680BD00BFDC
:1051E0005CC0000868C0000880B584B000AF03460A
:1051F000FB71FB79002B08D0C0233B73C2237B7368
:10520000C423BB73C623FB7306E007F10C0304221F
:105210008B211846FBF726F807F10C031A460421E8
:1052200040F69820FEF7DEFFFDF796FC0346184691
:105230001037BD4680BD80B584B000AF0346FB711A
:10524000FB79002B08D020233B7328237B7330236A
:10525000BB733823FB7306E007F10C030422A32180
:105260001846FAF7FFFF07F10C031A46042140F62F
:105270009E20FEF7B7FFFDF76FFC03461846103778
:10528000BD4680BD80B586B004AF3B600346FB7170
:105290000B46BB7113467B71FB7999B2BB7998B20F
:1052A0007B799BB20A22029201933B68009301230F
:1052B0000246064802F094FB0346002B14BF01236C
:1052C0000023DBB218460837BD4680BDCC10002055
:1052D00080B586B004AF3B600346FB710B46BB71E3
:1052E00013467B71FB7999B2BB7998B27B799BB2FB
:1052F0000A22029201933B6800930123024606486A
:1053000002F068FC0346002B14BF01230023DBB22C
:1053100018460837BD4680BDCC10002090B589B036
:1053200004AF0446084611461A462346FB7103465D
:10533000BB710B467B7113463B71FB7999B2BB790C
:105340009AB20A2302930123019307F10F030093FA
:105350000123194802F03EFC3B79002B0AD07B79EF
:10536000012202FA03F35AB2FB7B5BB213435BB236
:10537000DBB20BE07B79012202FA03F35BB2DB4381
:105380005AB2FB7B5BB213405BB2DBB2FB73FB79BF
:1053900099B2BB799AB20A2302930123019307F1D0
:1053A0000F0300930123044802F01AFB034618463A
:1053B0001437BD4690BD00BFCC10002090B589B019
:1053C00004AF0446084611461A462346FB710346BD
:1053D000BB710B467B7113463B71FB7999B2BB796C
:1053E0009AB20A2302930123019307F10E0300935B
:1053F0000123264802F0EEFB0346002B40D07B79C8
:105400000133FF2202FA03F35AB27B79C3F1080198
:105410003B790B44013BFF2141FA03F35BB2134399
:105420005BB2FB7397F820203B79C3F1080302FAC3
:1054300003F387F8203097F820207B79C3F1070326
:1054400042FA03F387F82030BA7BFB7B1340DBB2D0
:10545000BB73BA7B97F820301343DBB2BB73FB7985
:1054600099B2BB799AB20A2302930123019307F1FF
:105470000E0300930123054802F0B2FA034600E050
:10548000012318461437BD4690BD00BFCC10002044
:1054900080B588B004AF03460A46FB711346BB7162
:1054A000FB7999B2BB799AB20A2302930123019343
:1054B00007F10F0300930123034802F08BFBFB7BF2
:1054C00018461037BD4680BDCC10002080B582B094
:1054D00000AF786039607B68002B0CDD01224FF44F
:1054E00080412E4802F013F900224FF400412B486E
:1054F00002F00DF90BE000224FF48041274802F042
:1055000006F901224FF40041244802F000F97B68BB
:10551000234A9342B8BF13467B607B6841F6F4226E
:105520009342A8BF13467B601E4A7B68002BB8BF1E
:105530005B4253633B68002B0CDD01224FF480512A
:10554000164802F0E4F800224FF40051134802F02C
:10555000DEF80BE000224FF48051104802F0D7F83B
:1055600001224FF400510D4802F0D1F83B680C4A7B
:105570009342B8BF13463B603B6841F6F422934226
:10558000A8BF13463B60074A3B68002BB8BF5B428D
:10559000136400BF0837BD4680BD00BF000C01404A
:1055A0000CE5FFFF002C0140B0B586B000AFF860FD
:1055B000B9607A603B605C4B6E221A805B49F86888
:1055C000FBF70AFF03461C465949B868FBF7FCFD88
:1055D000034619462046FBF7F7FD03461846FCF73D
:1055E000C1F803467B61534B1B78012B09D14E4B0D
:1055F0001B885B421846FBF79BFE02464E4B1A6027
:1056000010E04E4B1B78012B08D1474B1B881846E6
:10561000FBF78AFE0246484B1A6003E0464B4FF008
:1056200000021A60464B1B681846FBF761FA3AA362
:10563000D3E90023FBF7B0FA03460C4625461C4687
:105640007A683B6813441846FBF740FA34A3D3E961
:105650000023FBF7A1FA02460B4620462946FBF73A
:10566000E9F803460C4618462146FBF757FD02466B
:10567000334B1A60334B1A68314B1B68194610467E
:10568000FBF7A2FD03461A462B4B1B681946104632
:10569000FBF798FD03461A462A4B1A60294B1B68F4
:1056A00029491846FCF754F80346002B02D0254B35
:1056B000254A1A60234B1B6824491846FCF72AF830
:1056C0000346002B02D01F4B204A1A601C4B1B685C
:1056D0001F491846FBF780FE03461A46194B1B6804
:1056E00019461046FBF770FD03461A46194B1A601F
:1056F0007869FBF71DFE0246164B1B6819461046DB
:10570000FBF762FD03461846FCF72CF803461846E3
:105710001837BD46B0BD00BF9A9999999999E93F4C
:105720009A9999999999C93F2A1100200000E1435B
:1057300000009A42201100200003002030110020B8
:10574000040300202411002000401C4600401CC619
:105750000000A0420803002080B500AF00F0DAFE90
:1057600000F036F8FCF726FFFCF7A0FF00F0A4FBE2
:1057700000F0F6FB00F00CFD00F034FD00F05CFDE5
:10578000FCF7C2FBFCF73AFC00F0EAFA3C210D48BA
:1057900003F0D6FF3C210C4803F0D2FFFCF729FBB5
:1057A000FCF73EFB0021094803F086FE0C21074868
:1057B00003F082FE054803F0D5FDFCF711FE05F06D
:1057C00068FAFEE730120020A0110020E811002046
:1057D00080B594B000AF07F12803282200211846B5
:1057E000FAF740FD07F1140300221A605A609A602C
:1057F000DA601A613B1D00221A605A609A60DA6012
:105800000123BB624FF48033FB6200233B6301231F
:10581000BB6302237B644FF48033BB644FF4E0131B
:10582000FB6407F12803184602F08EFF0346002BA5
:1058300001D000F0B3F90F237B610223BB61002389
:10584000FB614FF480633B6200237B6207F114032A
:105850000221184603F0F8F90346002B01D000F0AE
:105860009DF902237B604FF40043FB603B1D18460B
:1058700003F0B6FB0346002B01D000F08FF900BF08
:105880005037BD4680BD000080B485B000AF0346F0
:10589000FB71FB79022B02D0042B0AD011E04FF0F0
:1058A00080435B6A1BB2FB604FF0804300225A6268
:1058B00009E0084B5B6A1BB2FB60064B00225A6290
:1058C00001E00023FB60FB6818461437BD4680BC2E
:1058D000704700BF00080040B0B586B000AF43215C
:1058E000D020FFF7D5FD03461C024421D020FFF74E
:1058F000CFFD034623441846FBF71AFD0346FB6021
:105900004721D020FFF7C4FD03461C024821D020C8
:10591000FFF7BEFD034623441846FBF709FD034687
:10592000BB603D21D020FFF7B3FD03461C023E21A2
:10593000D020FFF7ADFD034623441846FBF7F8FCE3
:1059400003467B613F21D020FFF7A2FD03461C02E6
:105950004021D020FFF79CFD034623441846FBF767
:10596000E7FC03463B614FF08E41F868FBF7F0FE21
:105970000346002B06D04FF08F41F868FBF722FC5E
:105980000346FB604FF08E41B868FBF7E1FE03462B
:10599000002B06D04FF08F41B868FBF713FC03468D
:1059A000BB604FF08E417869FBF7D2FE0346002BB7
:1059B00006D04FF08F417869FBF704FC03467B610A
:1059C0004FF08E413869FBF7C3FE0346002B06D02B
:1059D0004FF08F413869FBF7F5FB03463B61284ADE
:1059E000FB6813607869FBF783F804460D46386955
:1059F000FBF77EF802460B4620462946FAF780FC64
:105A00004FF000021F4BFBF7C7F803460C46184641
:105A1000214617A3D3E90023FBF7E8F903460C4618
:105A200018462146FBF77AFB03467B60F868FBF7D4
:105A30005FF811A3D3E90023FBF7D8F903460C461E
:105A400018462146FBF76AFB0346FB60F968786855
:105A5000FCF7FAFA0C4B1B680C4A13600C4ABB6843
:105A600013600C4A3B69136000BF1837BD46B0BDD8
:105A7000182D4454FB210940666666666666304010
:105A80005011002000806640A0100020441100202A
:105A9000381100204C11002080B582B000AF786032
:105AA0007B681B68314A934202D100F049FD59E0FE
:105AB0007B681B682E4A934254D12E4B1B880133BE
:105AC0009AB22C4B1A802B4B1B88192B4AD9294B85
:105AD00000221A800220FFF7D7FE0246264B1A60EA
