:020000040800F2
:10000000281600209D010008252C0008192800084A
:10001000212C0008150600086132000800000000CD
:1000200000000000000000000000000005010008C2
:10003000190600080000000049010008F92C00081A
:10004000B7010008B7010008B7010008B7010008B0
:10005000B7010008B7010008B7010008B7010008A0
:10006000B7010008B7010008B7010008B701000890
:10007000B7010008B7010008B7010008B701000880
:10008000B7010008B7010008B7010008B701000870
:10009000B7010008B7010008B7010008B701000860
:1000A000B7010008B7010008B7010008B701000850
:1000B000B7010008B52D0008B7010008B701000816
:1000C000B7010008B7010008B7010008B701000830
:1000D000B7010008B7010008B7010008B701000820
:1000E000B7010008B7010008B7010008DFF810D019
:1000F00000F004FA00480047BD320008AFF300806A
:1001000028160020224B19680868B0E8F00F80F329
:100110000988BFF36F8F4FF0000080F311884EF015
:100120000D0E70470000000006480068006880F36C
:10013000088862B661B6BFF34F8FBFF36F8F00DFE1
:1001400000BF00BF08ED00E0EFF30980BFF36F8F41
:100150000F4B1A6820E9F00F106008B54FF05000FF
:1001600080F31188BFF34F8FBFF36F8F03F0CAFD89
:100170004FF0000080F31188BDE808401968086856
:10018000B0E8F00F80F30988BFF36F8F704700BFAE
:1001900020000020EFF305807047000006488047EC
:1001A00006480047FEE7FEE7FEE7FEE7FEE7FEE75C
:1001B000FEE7FEE7FEE7FEE7B12D0008ED000008D0
:1001C000202A04DB203A21FA02F00021704721FAAC
:1001D00002F3D040C2F12002914008431946704713
:1001E00040EA01039B0703D009E008C9121F08C0B9
:1001F000042AFAD203E011F8013B00F8013B521E39
:10020000F9D27047D2B201E000F8012B491EFBD2AF
:1002100070470022F6E710B513460A460446194611
:10022000FFF7F0FF204610BD2DE9FE4F81EA0304E1
:1002300004F0004421F0004100944FF0000B23F043
:10024000004350EA01045ED052EA03045BD0C3F3DA
:100250000A54C1F30A552C44A4F2F3340194A0FBD0
:100260000254C1F3130141F48011C3F3130343F4A7
:10027000801301FB024400FB034E840A970A44EA00
:10028000815447EA8357A4FB076802958D0A05FB52
:1002900007854FEA932C04FB0C542705029D4FEA77
:1002A000065847EA1637B5EB08056EEB070C870EC4
:1002B000920E47EA811742EA8312A7FB0201B6EBCE
:1002C0000B0164EB00042B0D43EA0C335E1844EB86
:1002D0001C50DA465146E7FB0201C5F313044FEA0E
:1002E0000B3343EA14534FEA0432019C43EA0603FA
:1002F000A4F10C040294009CCDE900B400F0B0F825
:1003000003B0BDE8F08F00200146F9E72DE9F04D7C
:1003100081EA030404F0004B21F0004514464FF03D
:10032000000A23F0004150EA050220D054EA0102FD
:100330001DD0C5F30A570246C5F31303C1F31300DA
:10034000C1F30A5640F4801543F48013A7EB060866
:10035000101BD64608F2FD3873EB050002D308F1F6
:10036000010801E092185B41B8F1000F03DA0020A8
:100370000146BDE8F08D00204FF48011064684460A
:100380000EE0171B73EB050705D3121B63EB050388
:1003900006434CEA010C49084FEA300092185B41D1
:1003A00050EA0107EDD152EA030012D082EA0400BC
:1003B00083EA0501084305D0101BAB4106D2012298
:1003C000002306E000224FF0004302E06FF001023C
:1003D00053101AEB06004CEB085110EB0A0041EBEE
:1003E0000B01BDE8F04D00F02CB80EB540F23341E2
:1003F00002910021CDE900110A460B4600F030F8C9
:1004000003B000BD70B5C1F30A5201F000450024ED
:10041000C1F3130140F2FF3341F480119A4201DA33
:10042000002070BD40F233439A42A2F2334203DC13
:100430005242FFF7C5FE00E090402C43F1D040420D
:1004400070BD10B5141E73F1000408DA401C41F1B0
:10045000000192185B411A4301D120F0010010BD48
:100460002DE9F04D92469B4611B1B1FA81F202E0BE
:10047000B0FA80F22032904600F052F804460F465F
:1004800040EA0A0041EA0B0153465A46084313D09A
:10049000114653EA010019D0C8F140025046FFF757
:1004A0008FFE05460E4650465946424600F038F843
:1004B000084305D0012004E020463946BDE8F08D10
:1004C0000020054346EAE0762C4337430A9863054B
:1004D000E40AA0EB08000022FD0A44EA47540A306F
:1004E00002D500200146E9E7010510196941DDE95F
:1004F000084500196941BDE8F04DA2E7064C074DDB
:1005000006E0E06840F0010394E8070098471034E3
:10051000AC42F6D3FFF7EEFD5842000878420008DF
:10052000202A04DB203A00FA02F1002070479140B3
:10053000C2F1200320FA03F319439040704770B5CD
:10054000044600252068806800F00100F0B12068B2
:10055000806820F001002168886000F0E3FC054617
:100560000EE000F0DFFC401B022809D9A06A40F031
:100570001000A062E06A40F00100E062012070BD5E
:100580002068806800F001000028EAD10020F6E72A
:1005900038B504460025002000902068806800F0EF
:1005A000010080BB2068806840F0010021688860FD
:1005B000164800681649B0FBF1F0009002E0009880
:1005C000401E009000980028F9D100F0ABFC0546D1
:1005D00013E000F0A7FC401B02280ED9A06A40F0EF
:1005E0001000A062E06A40F00100E06200BF00205D
:1005F00084F8240000BF012038BD2068806800F026
:1006000001000028E5D00020F6E700001C000020D3
:1006100040420F0000BFFEE7704772B600BFFEE722
:1006200038B5024600230020009000BF92F8240055
:10063000012801D1022038BD012082F8240000BF2A
:100640004868072812D21068406B0C79641E04EBCE
:1006500084051F24AC40A0430D796D1E05EB850574
:100660000C68AC4020431468606327E048680D289C
:1006700012D21068006B0C79E41F04EB84051F2470
:10068000AC40A0430D79ED1F05EB85050C68AC402F
:1006900020431468206311E01068C06A0C790D3C97
:1006A00004EB84051F24AC40A0430D790D3D05EB00
:1006B00085050C68AC4020431468E06208680A288D
:1006C00012D31068C0680C780A3C04EB4405072478
:1006D000AC40A0430D780A3D05EB45058C68AC4065
:1006E00020431468E0600FE0106800690C7804EBA8
:1006F00044050724AC40A0430D7805EB45058C6804
:10070000AC402043146820610868102802D00868B3
:10071000112827D1174C1068A0421ED1106880689C
:1007200000F40000F0B91068806840F4000014681C
:10073000A0600868102815D10F4800680F4CB0FB66
:10074000F4F000EB80004000009002E00098401EB2
:10075000009000980028F9D104E0906A40F0200051
:100760009062012300BF002082F8240000BF1846D9
:1007700061E70000002401401C00002040420F00FF
:100780000146886A704701460868C06C70470000DF
:100790002DE9F0410446002700250026A84614B99B
:1007A0000120BDE8F081A06810B1207D00B100BF3C
:1007B000A06A30B90020E06284F82400204600F0EE
:1007C00089F82046FFF7BBFE0746A06A00F010003C
:1007D000002873D1002F71D1A06A20F4885040F016
:1007E0000200A062E16960680843217B40EA4100A1
:1007F0000643A068B0F5807F02D0A068012802D12E
:100800004FF4807000E000200543207D012811D1C5
:10081000207B38B9A069401E4FF4006141EA4030A6
:10082000054307E0A06A40F02000A062E06A40F0C3
:100830000100E0622068406820F469402843216894
:1008400048602068806821490840304321688860FA
:10085000A068B0F5807F02D0A068012802D14FF4D3
:10086000807000E00020B0F5807F03D1208A401E18
:100870004FEA00582068C06A20F4700040EA08007F
:100880002168C8622068806811490840B04208D1D8
:100890000020E062A06A20F0020040F00100A062A7
:1008A00011E0A06A20F0020040F01000A062E06AAF
:1008B00040F00100E062012705E0FFE7A06A40F098
:1008C0001000A062012738466BE70000FDF7E1FF4A
:1008D000FE0E1FFF10B586B0044600200290039064
:1008E0000490059014492068884222D100BF134823
:1008F000806940F40070114988610846806900F4FD
:100900000070019000BF00BF00BF0846806940F042
:10091000040088610846806900F00400019000BF6F
:1009200000BF402002900320039002A9044800F079
:1009300059F906B010BD000000240140001002402B
:1009400000080140F8B504460D460026002000903E
:10095000002700F0E7FA06462068806800F48070FF
:1009600050B1A06A40F02000A06200BF002084F8CF
:10097000240000BF0120F8BD2068406800F48070AA
:10098000F8B92068C06A00F47000D0B912E0681CA1
:1009900080B125B100F0C6FA801BA8420AD9A06A2E
:1009A00040F00400A06200BF002084F8240000BFD3
:1009B0000320E0E72068006800F002000028E6D08D
:1009C00050E0022000F0D8FC36490968B1FBF0F095
:1009D00021680969344A114091B92168C9689211A6
:1009E000114069B921680969304A114031B921685B
:1009F000C9689211114009B9142117E0292115E0A5
:100A000021680969294A114021B92168C9689211F0
:100A1000114041B121680969254A114029B921686D
:100A2000C968114009B9542100E0FC2100FB01F71D
:100A300015E0681C80B125B100F074FA801BA84253
:100A40000AD9A06A40F00400A06200BF002084F828
:100A5000240000BF03208EE70098401C00900098FF
:100A6000B842E6D36FF0120021680860A06A40F433
:100A70000070A0622068806800F46020B0F5602FEC
:100A80000DD1207B58B9A06A20F48070A062A06AC2
:100A900000F4805018B9A06A40F00100A062002064
:100AA00069E700001C000020244992249224491286
:100AB0004992240070B50446002500BF94F8240034
:100AC000012801D1022070BD012084F8240000BF5C
:100AD0002046FFF75DFD0546002D77D1A06A40F264
:100AE0000121884340F48070A0623C49206888421C
:100AF00008D13B48006800F4702008B9012002E0EA
:100B0000002000E0012078B1A06A20F48010A062EB
:100B10002068406800F4806000B3A06A20F40050B0
:100B200040F48050A06219E0A06A40F48010A062F6
:100B30002B49091F2068884203D028492068884231
:100B400004D12748006800F4806000E0002028B14C
:100B5000A06A20F4005040F48050A062A06A00F423
:100B6000805020B1E06A20F00600E06201E0002041
:100B7000E06200BF002084F8240000BFC01E21688E
:100B800008602068806800F46020B0F5602F16D1FE
:100B900012492068884208D11148006800F470208A
:100BA00008B9012002E0002000E0012038B12068EF
:100BB000806840F4A000216888600CE006E02068AE
:100BC000806840F480102168886004E000BF002045
:100BD00084F8240000BF284675E700000028014083
:100BE000042401402DE9F8470346002294466EE1B3
:100BF0004FF0010808FA02F4D1F8008008EA040076
:100C0000A0427DD1DFF8DCA2D1F80480A8EB0A096C
:100C1000D0453AD014DCB8F1030F50D009DCB8F15C
:100C2000000F31D0B8F1010F1CD0B8F1020F49D13B
:100C300020E0B8F1110F18D0B8F1120F42D11EE028
:100C4000B9F5881F25D006DCB9F5803F20D0B9F56D
:100C5000801F37D11AE0B9F5001F18D0B9F5041F6D
:100C600030D117E0D1F80CC02DE0D1F80C8008F19C
:100C7000040C28E0D1F80C8008F1080C23E0D1F82E
:100C80000C8008F10C0C1EE000BF00BF00BF00BFCD
:100C900000BF00BFD1F80880B8F1000F02D14FF0BB
:100CA000040C0BE0D1F80880B8F1010F03D14FF02C
:100CB000080C1C6102E04FF0080C5C6103E04FF08F
:100CC000000C00E000BF00BFFF2801D8984601E0FB
:100CD00003F104084646FF2802D84FEA820803E0E1
:100CE000A2F108084FEA88084746D6F800804FF07E
:100CF0000F0909FA07F928EA09080CFA07F900E0D0
:100D000088E048EA0908C6F80080D1F8048008F0B5
:100D10008058B8F1805F7DD100BFDFF8CC81D8F872
:100D2000188048F00108DFF8C091C9F81880C8465B
:100D3000D8F8188008F00108CDF8008000BF00BF87
:100D40004FEAB9384FEA920958F829504FEA8278A9
:100D50004FEA18794FF00F0808FA09F825EA080554
:100D6000DFF88881434502D14FF0000816E0DFF834
:100D70008081434502D14FF001080FE0DFF8748114
:100D8000434502D14FF0020808E0DFF86C8143458B
:100D900002D14FF0030801E04FF004084FEA8279D6
:100DA0004FEA197908FA09F848EA0505DFF84C8195
:100DB0004FEA920948F82950D1F8048008F48038A5
:100DC000B8F5803F0AD1DFF83881D8F8008048EACA
:100DD0000008DFF82C91C9F8008009E0DFF82081D5
:100DE000D8F8008028EA0008DFF81491C9F80080DC
:100DF000D1F8048008F40038B8F5003F10D1DFF8CE
:100E0000008108F10408D8F8008048EA0008DFF8FB
:100E1000F09000E05AE009F10409C9F800800DE003
:100E2000DFF8DC8008F10408D8F8008028EA000820
:100E3000DFF8CC9009F10409C9F80080D1F80480EA
:100E400008F48018B8F5801F0ED1DFF8B48008F1DF
:100E50000808D8F8008048EA0008DFF8A49009F1F3
:100E60000809C9F800800DE0DFF8948008F108084F
:100E7000D8F8008028EA0008DFF8849009F1080912
:100E8000C9F80080D1F8048008F40018B8F5001FF4
:100E90000ED1DFF86C8008F10C08D8F8008048EA21
:100EA0000008DFF85C9009F10C09C9F800800DE03A
:100EB000DFF84C8008F10C08D8F8008028EA000818
:100EC000DFF83C9009F10C09C9F80080521CD1F8F8
:100ED000008028FA02F8B8F1000F7FF489AEBDE86F
:100EE000F8870000000011100010024000080140C7
:100EF000000C0140001001400014014008000140B6
:100F00000004014010B5C26821EA020302EA0104AC
:100F100043EA0443036110BD0AB1016101E00B041F
:100F2000036170470148006870470000100000200E
:100F300070B504460CB9012070BD94F83D0028B985
:100F4000002084F83C00204600F0DAF8242084F8E1
:100F50003D002068006820F00100216808602068DA
:100F6000006840F40040216808602068006820F4B0
:100F700000402168086000F011FC05465C4960688B
:100F8000884206D85B48854201D2012007E0002054
:100F900005E05948854201D2012000E000200128E7
:100FA00000D1C9E75548B5FBF0F62068406820F04D
:100FB0003F003043216848604D496068884201D84D
:100FC000701C07E04FF4967070434FF47A71B0FBD9
:100FD000F1F0401C2168096A21F03F0108432168B3
:100FE000086243496068884214D8681E61684900F5
:100FF000B0FBF1F0401CC0F30B00042801D2042028
:101000003DE0681E61684900B0FBF1F0401CC0F390
:101010000B0034E0A06838B9681E616801EB41013B
:10102000B0FBF1F0401C0AE0681E616801EBC102F0
:1010300002EB0111B0FBF1F0401C40F48040C0F322
:101040000B0008B901201AE0A06848B9681E616861
:1010500001EB4101B0FBF1F0401CC0F30B000CE0D0
:10106000681E616801EBC10202EB0111B0FBF1F0F7
:10107000401CC0F30B0040F4804040F40040216865
:10108000C9694CF6FF72914308432168C861D4E9ED
:10109000070108432168096821F0C001084321685D
:1010A0000860D4E9031008432168896848F2FF32D8
:1010B0009143084321688860D4E905010843216809
:1010C000C96821F0FF0108432168C86020680068F2
:1010D00040F001002168086000202064202084F88E
:1010E0003D000020206384F83E0000BF24E700009C
:1010F000A086010080841E0000093D0040420F00D0
:1011000010B586B00446002002900390049005902C
:101110001A49206888422FD100BF1948806940F0E1
:101120000800174988610846806900F008000190AE
:1011300000BF00BF4FF440700290122003900320C4
:10114000059002A90F48FFF74DFD00BF0E49486802
:1011500040F0E06040F00200486000BF00BF084877
:10116000C06940F400100649C8610846C06900F42F
:101170000010019000BF00BF06B010BD0054004039
:1011800000100240000C01400000014003480068CC
:10119000034909780844014908607047100000209D
:1011A0001800002010B50848006840F010000649FB
:1011B0000860032000F0CCF8002000F007F800F0F1
:1011C00049F8002010BD00000020024070B588B032
:1011D000044600250026002221461D2000F07AF852
:1011E0001D2000F067F800BF1648C06940F00200FB
:1011F0001449C8610846C06900F00200019000BFB0
:1012000000BF02A903A800F0A1FA00F0C7FA450048
:101210000D48B5FBF0F0461E0C480D49086040F241
:10122000E7310B48C160466000210161816000F038
:10123000CFFD20B9064800F035FE08B070BD012092
:10124000FBE700000010024040420F000004004095
:10125000F004002008B500BF1448806940F0010088
:10126000124988610846806900F00100009000BFC3
:1012700000BF00BF0846C06940F08050C861084602
:10128000C06900F08050009000BF00BF00220F2115
:10129000901E00F01FF800BF0549486820F0E0608C
:1012A00040F00070486000BF08BD00000010024020
:1012B0000000014001460846002809DB00F01F033A
:1012C00001229A4043099B0003F1E023C3F8002167
:1012D00000BF70472DE9F05F80460D461646002797
:1012E00001F0C0FF074639462A46334601F00700A1
:1012F000C0F1070ABAF1040F02D94FF0040A01E065
:10130000C0F1070AD14600F1040ABAF1070F02D270
:101310004FF0000A01E0A0F1030AD4464FF0010AA1
:101320000AFA09FAAAF1010A0AEA020A0AFA0CFA06
:101330004FF0010B0BFA0CFBABF1010B0BEA030BAB
:101340004AEA0B042146404601F094FFBDE8F09FB5
:1013500000BF00F00702064B19684FF6FF03194063
:10136000044B0B4343EA0221014B196000BF704755
:101370000CED00E00000FA052DE9F04385B00646CB
:101380003BA30FCB01AC0FC43DA0006800904FF011
:101390000008002500270024A146012E30D0022E8F
:1013A00055D0102E5ED137484468006800F0807038
:1013B00000B301A8C4F38341475C04F4803070B1EA
:1013C00030484068C0F340401DF8008004F480308D
:1013D00040B12D48B0FBF8F000FB07F502E02B48C8
:1013E00007FB00F52748406800F48000B0F5800F47
:1013F00001D1A94603E068000321B0FBF1F932E016
:101400002048046A04F44070B0F5807F05D104F0F0
:10141000020010B14FF4004918E004F44070B0F538
:10142000007F07D11748406A00F0020010B149F66A
:1014300040490BE004F44070B0F5407F06D11148FC
:10144000006800F4003008B14FF224490BE000F0CE
:10145000B5F90C494968C1F38131491C4900B0FB19
:10146000F1F900E000BF00BF484605B0BDE8F083D9
:1014700002030405060708090A0B0C0D0E0F1010D5
:10148000010200000010024000127A0000093D0035
:10149000F8B5044600260025207800F00100002859
:1014A0006BD000274348C06900F0805070B900BF7E
:1014B0004048C06940F080503E49C8610846C06954
:1014C00000F08050009000BF00BF01273A4800683C
:1014D00000F48070B0B93848006840F48070364934
:1014E0000860FFF71FFD064606E0FFF71BFD801BA7
:1014F000642801D90320F8BD2F48006800F48070EB
:101500000028F2D02B48006A00F440752DB3A08863
:1015100000F44070A84220D02648006A20F44075AC
:10152000012026490860002008602248056205F075
:10153000010090B1FFF7F6FC064608E0FFF7F2FC69
:10154000801B41F28831884201D90320D3E7194832
:10155000006A00F002000028F0D01648006A20F46B
:1015600040706168084313490862012F04D108469E
:10157000C06920F08050C86100BF207800F00200F0
:10158000022807D10B48406820F44040A168084376
:1015900008494860207800F01000102807D105485D
:1015A000406820F48000E168084302494860002058
:1015B000A1E70000001002400070004040044242D9
:1015C00070B504460D460CB9012070BD5A4800683C
:1015D00000F00700A8420ED25748006820F007002C
:1015E0002843554908600846006800F00700A842F3
:1015F00001D00120E9E7207800F0020002281DD187
:10160000207800F00400042805D14C48406840F4DC
:10161000E0604A494860207800F00800082805D1B9
:101620004648406840F46050444948604348406838
:1016300020F0F000A168084340494860207800F09D
:10164000010078B36068012806D13C48006800F4C6
:10165000003090B90120B8E76068022806D1374809
:10166000006800F0007040B90120AEE73348006820
:1016700000F0020008B90120A7E73048406820F0D8
:101680000300616808432D494860FFF74BFC06469C
:1016900009E0FFF747FC801B41F28831884202D9FC
:1016A000032092E707E02548406800F00C006168DD
:1016B000B0EB810FEDD12048006800F00700A84290
:1016C0000ED91D48006820F0070028431A49086019
:1016D0000846006800F00700A84201D0012074E726
:1016E000207800F00400042807D11448406820F452
:1016F000E060E168084311494860207800F0080084
:10170000082808D10D48406820F46050216940EA5B
:10171000C1000A49486000F061F808494968C1F30E
:101720000311074A515CC840064908600648006832
:10173000FFF74CFD002048E7002002400010024067
:10174000284200081C000020140000200F22026024
:101750000D4A526802F0030242600B4A526802F0DE
:10176000F0028260084A526802F4E062C260064AEF
:10177000526802F46052D2080261044A126802F010
:1017800007020A607047000000100240002002407B
:1017900001480068704700001C00002000B5FFF7FA
:1017A000F7FF04494968C1F30221034A515CC8406C
:1017B00000BD0000001002403842000800B5FFF7ED
:1017C000E7FF04494968C1F3C221034A515CC8409C
:1017D00000BD00000010024038420008F0B585B09E
:1017E0000FF26C0C9CE8E01001A8A0E8E0101CA52A
:1017F0002D68009500210022002300240020194DAF
:10180000696801F00C05F5B1042D02D0082D19D13D
:1018100001E0154819E001ADC1F38346AC5D01F468
:10182000803555B10F4D6D68C5F340451DF8052055
:101830000D4D6543B5FBF2F302E00C4D04FB05F3DF
:10184000184602E000BF084800BF00BF05B0F0BD69
:1018500002030405060708090A0B0C0D0E0F1010F1
:10186000010200000010024000127A0000093D0051
:10187000F8B504460CB90120F8BD207800F001004D
:10188000002878D0F848406800F00C0004280CD0FC
:10189000F548406800F00C00082811D1F248406873
:1018A00000F48030B0F5803F0AD1EF48006800F4C2
:1018B000003000285FD0606800285CD10120DBE7A1
:1018C00000BF6068B0F5803F06D1E748006840F48B
:1018D0008030E549086028E0606858B9E24800684F
:1018E00020F48030E04908600846006820F4802039
:1018F00008601AE06068B0F5A02F0BD1DA480068E4
:1019000040F48020D84908600846006840F48030E0
:1019100008600AE0D448006820F48030D2490860AA
:101920000846006820F48020086000BF606888B125
:10193000FFF7F8FA054606E0FFF7F4FA401B6428C3
:1019400001D9032098E7C848006800F40030002857
:10195000F2D010E0FFF7E6FA054606E0FFF7E2FAFC
:10196000401B642801D9032086E7BF48006800F4C3
:1019700000300028F2D1207800F00200022857D170
:10198000B948406800F00C0050B1B748406800F01A
:101990000C00082818D1B448406800F4803098B989
:1019A000B148006800F0020020B12069012801D090
:1019B000012061E7AC48006820F0F800616940EA66
:1019C000C100A949086033E02069E8B10120A749B6
:1019D0000860FFF7A7FA054606E0FFF7A3FA401BE9
:1019E000022801D9032047E79F48006800F0020061
:1019F0000028F2D09C48006820F0F800616940EAB5
:101A0000C1009949086013E0002098490860FFF779
:101A100089FA054606E0FFF785FA401B022801D93E
:101A2000032029E79048006800F002000028F2D166
:101A3000207800F0080008282DD1A069B8B1012055
:101A40008B490860FFF76EFA054606E0FFF76AFA71
:101A5000401B022801D903200EE78348406A00F0AA
:101A600002000028F2D0012001F0DEF813E000208F
:101A70007F490860FFF756FA054606E0FFF752FA7D
:101A8000401B022801D90320F6E67748406A00F09F
:101A900002000028F2D1207800F00400042873D15D
:101AA00000277148C06900F0805070B900BF6E48CF
:101AB000C06940F080506C49C8610846C06900F0B8
:101AC0008050009000BF00BF01276A48006800F402
:101AD0008070B0B96748006840F48070654908605C
:101AE000FFF720FA054606E0FFF71CFA401B6428C2
:101AF00001D90320C0E65F48006800F48070002828
:101B0000F2D000BFE068012806D15748006A40F0D3
:101B100001005549086227E0E06858B95248006A58
:101B200020F00100504908620846006A20F00400D5
:101B3000086219E0E06805280BD14B48006A40F0C4
:101B40000400494908620846006A40F00100086242
:101B50000AE04548006A20F001004349086208464F
:101B6000006A20F00400086200BFE068A0B1FFF73F
:101B7000D9F9054609E0FFF7D5F9401B41F2883154
:101B8000884202D9032077E622E03748006A00F055
:101B900002000028EFD012E0FFF7C4F9054608E084
:101BA000FFF7C0F9401B41F28831884201D9032078
:101BB00062E62D48006A00F002000028F0D1012FF3
:101BC00005D12948C06920F080502749C86100BF6D
:101BD000E069C8B32448406800F00C00082860D0D1
:101BE000E069022848D1002020490866FFF79AF9E9
:101BF000054606E0FFF796F9401B022801D90320AD
:101C00003AE61948006800F000700028F2D1206A16
:101C1000B0F5803F07D11448406820F40030A16837
:101C2000084311494860D4E9080108430E4949684E
:101C300021F4741108430C49486001200B490866DF
:101C4000FFF770F9054607E03DE0FFF76BF9401B31
:101C5000022801D903200FE60348006800F0007055
:101C60000028F2D02FE000000010024000004242A5
:101C70008004424200700040002014490866FFF7CB
:101C800051F9054606E0FFF74DF9401B022801D93E
:101C90000320F1E50E48006800F000700028F2D142
:101CA00011E0E069012800D1E6E50948466806F43C
:101CB0008031206A814204D106F47011606A814249
:101CC00001D00120D8E50020D6E500000000424206
:101CD000001002407047704710B50346002200BF55
:101CE00093F83C00012801D1022010BD012083F8A7
:101CF0003C0000BF22F0FF00CC6840EA040222F45E
:101D000040708C6840EA040222F480604C6840EA2B
:101D1000040222F400600C6840EA040222F48050BD
:101D20000C6940EA040222F400504C6940EA0402C3
:101D300022F48040CC6940EA04021868426400BF83
:101D4000002083F83C0000BF00BFCEE730B502465C
:101D50000B4600BF92F83C00012801D1022030BDA3
:101D6000012082F83C0000BF022082F83D0010688C
:101D700044681068816824F070041868044310688F
:101D80004460104D1068A8420BD01068B0F1804F2D
:101D900007D00D4D1068A84203D00C4D1068A84222
:101DA00005D121F08001586801431068816001204D
:101DB00082F83D0000BF002082F83C0000BF00BF59
:101DC000CDE70000002C0140000400400008004066
:101DD00010B504460CB9012010BD94F83D0028B997
:101DE000002084F83C00204600F026F8022084F809
:101DF0003D00211D206800F0E5FF012084F8460029
:101E000000BF84F83E0001213F20015540200155CC
:101E10004120015500BF00BF012084F8420043204B
:101E20000155442001554520015500BF012084F88B
:101E30003D000020D0E7000010B586B00446002029
:101E400002900390049005902068B0F1804F23D158
:101E500000BF1248C06940F001001049C86108463F
:101E6000C06900F00100019000BF00BF00BF08463C
:101E7000806940F0040088610846806900F0040031
:101E8000019000BF00BF0320029000200390049047
:101E900002A90348FEF7A6FE06B010BD00100240DE
:101EA00000080140014691F83D00012801D00120C1
:101EB0007047022081F83D000868C06840F00100CA
:101EC0000B68D860124B086898420BD00868B0F1D4
:101ED000804F07D00F4B0868984203D00E4B08681C
:101EE00098420CD10868806800F00702062A0CD0DE
:101EF0000868006840F001000B68186005E0086899
:101F0000006840F001000B6818600020D0E7000076
:101F1000002C014000040040000800402DE9F04181
:101F200004460D4600BF94F83C00012802D102206F
:101F3000BDE8F081012084F83C0000BF022084F855
:101F40003D002068866826F0770626F47F462068E4
:101F500086602868502833D00CDC202850D004DC60
:101F600000284BD0102851D149E0302849D04028D2
:101F70004CD139E060282DD0702807D0B0F5805FB3
:101F800003D0B0F5005F41D10DE040E0D5E9021388
:101F90006A68206800F061FF2068866846F077066E
:101FA0002068866033E0D5E902136A68206800F093
:101FB00054FF2068806840F480402168886026E0F3
:101FC000EA686968206801F019F85021206800F07B
:101FD0004FFF1CE0EA686968206801F057F860214B
:101FE000206800F045FF12E0EA686968206801F0A7
:101FF00005F84021206800F03BFF08E000BF00BF6B
:1020000000BF2968206800F033FF00E000BF00BF78
:10201000012084F83D0000BF002084F83C0000BF90
:1020200000BF85E770472DE9F04104460D4616468E
:1020300000BF94F83C00012802D10220BDE8F081E5
:10204000012084F83C0000BF96B9EB68D5E9001286
:10205000206800F0E7FF2068806920F00C0021680C
:10206000886120688069A9680843216888613DE02B
:10207000042E13D1EB68D5E90012206801F01AF89C
:102080002068806920F44060216888612068806948
:10209000A96840EA01202168886127E0082E12D152
:1020A000EB68D5E90012206801F021F82068C069CA
:1020B00020F00C002168C8612068C069A968084345
:1020C0002168C86112E0EB68D5E90012206801F0D0
:1020D0002AF82068C06920F440602168C86120683F
:1020E000C069A96840EA01202168C86100BF0020DA
:1020F00084F83C0000BF00BFA0E710B504460CB94F
:10210000012010BD94F83D0028B9002084F83C005F
:10211000204600F025F8022084F83D00211D2068AB
:1021200000F050FE012084F8460000BF84F83E0015
:1021300001213F200155402001554120015500BF9C
:1021400000BF012084F8420043200155442001557E
:102150004520015500BF012084F83D000020D0E754
:1021600010B586B0044600200290039004900590BC
:1021700014492068884223D100BF1348C06940F049
:1021800004001149C8610846C06900F004000190CC
:1021900000BF00BF00BF0846806940F008008861AA
:1021A0000846806900F00800019000BF00BFC02011
:1021B000029000200390049002A90448FEF712FD4B
:1021C00006B010BD0008004000100240000C0140A5
:1021D00010B5044620680069C0F34000D8B12068FB
:1021E000C068C0F34000B0B16FF002002168086120
:1021F000012020772068806900F0030018B1204694
:10220000FFF710FF05E0204600F0DAF8204600F066
:10221000A1F90020207720680069C0F38000D8B1C0
:102220002068C068C0F38000B0B16FF0040021687E
:102230000861022020772068806900F4407018B19E
:102240002046FFF7EFFE05E0204600F0B9F82046F3
:1022500000F080F90020207720680069C0F3C000FA
:10226000D8B12068C068C0F3C000B0B16FF00800FA
:1022700021680861042020772068C06900F003000D
:1022800018B12046FFF7CEFE05E0204600F098F892
:10229000204600F05FF90020207720680069C0F335
:1022A0000010D8B12068C068C0F30010B0B16FF062
:1022B000100021680861082020772068C06900F4B8
:1022C000407018B12046FFF7ADFE05E0204600F053
:1022D00077F8204600F03EF900202077206800695A
:1022E00000F0010058B12068C06800F0010030B172
:1022F0006FF0010021680861204600F097F920681E
:102300000069C0F3C01058B12068C068C0F3C010A5
:1023100030B16FF08000216808612046FFF7DAFCD9
:1023200020680069C0F3801058B12068C068C0F30D
:10233000801030B16FF0400021680861204600F045
:1023400081F920680069C0F3401058B12068C06866
:10235000C0F3401030B16FF02000216808612046C2
:10236000FFF7B9FC10BD000010B586B00446002090
:1023700002900390049005900E492068884217D17E
:1023800000BF0D48806940F004000B498861084691
:10239000806900F00400019000BF00BF4FF410609E
:1023A000029002200390059002A90448FEF71AFC4F
:1023B00006B010BD002C0140001002400008014092
:1023C000704770B504460D46164600BF94F83C00B1
:1023D000012801D1022070BD012084F83C0000BF1B
:1023E00036B1042E1BD0082E31D00C2E5ED145E024
:1023F0002946206800F046FD2068806940F008000A
:10240000216888612068806920F004002168886163
:1024100020688069296908432168886147E0294666
:10242000206800F05FFD2068806940F4006021684A
:1024300088612068806920F4806021688861206854
:102440008069296940EA0120216888612FE02946D6
:10245000206800F07BFD2068C06940F0080021681A
:10246000C8612068C06920F004002168C861206844
:10247000C069296908432168C86118E029462068B5
:1024800000F098FD2068C06940F400602168C861D0
:102490002068C06920F480602168C8612068C06934
:1024A000296940EA01202168C86100E000BF00BF3F
:1024B00000BF002084F83C0000BF00BF8BE710B5D0
:1024C00004460CB9012010BD94F83D0028B9002045
:1024D00084F83C00204600F025F8022084F83D00F6
:1024E000211D206800F06EFC012084F8460000BF2A
:1024F00084F83E0001213F20015540200155412034
:10250000015500BF00BF012084F84200432001555F
:10251000442001554520015500BF012084F83D00AD
:102520000020D0E708B5094A016891420DD100BFEB
:102530000749896941F40061054A91611146896939
:1025400001F40061009100BF00BF08BD002C0140F4
:10255000001002407047000070B504460D4615B9E2
:1025600094F83E000BE0042D02D13F20005D06E010
:10257000082D02D14020005D01E04120005D0128CE
:1025800001D0012070BD1DB9022084F83E000EE08C
:10259000042D03D102213F20015508E0082D03D16D
:1025A00002214020015502E0022141200155012273
:1025B0002946206800F040FC19492068884201D172
:1025C000012000E0002028B12068406C40F4004069
:1025D000216848641249206888420BD02068B0F115
:1025E000804F07D00F492068884203D00E492068E9
:1025F00088420CD12068806800F00706062E0CD0B7
:102600002068006840F001002168086005E020684B
:10261000006840F00100216808600020B2E7000077
:10262000002C0140000400400008004010B50446A2
:1026300003492068884201D1FEF7A8FD10BD0000C3
:1026400000040040704710B504460CB9012010BDCD
:10265000A06900B100E000BF94F8390028B900205B
:1026600084F83800204600F027F8242084F8390048
:102670002068C06820F400502168C860204600F03F
:1026800071FD2068006920F490402168086120688D
:10269000406920F02A00216848612068C06840F441
:1026A00000502168C8600020E063202084F83900D1
:1026B00084F83A000020CAE710B586B0044600202E
:1026C00002900390049005904D49206888422FD1D4
:1026D00000BF4C48806940F480404A498861084600
:1026E000806900F48040019000BF00BF00BF084631
:1026F000806940F0040088610846806900F00400A9
:10270000019000BF00BF48150290022003900320F3
:10271000059002A93C48FEF765FA4FF480600290EC
:1027200000200390049002A93748FEF75BFA65E0A9
:102730003649206888422ED100BF3248C06940F433
:1027400000303049C8610846C06900F4003001908B
:1027500000BF00BF00BF0846806940F004008861E8
:102760000846806900F00400019000BF00BF04200B
:102770000290022003900320059002A92248FEF750
:1027800031FA0820029000200390049002A91E480C
:10279000FEF728FA32E01E49206888422ED100BF99
:1027A0001848C06940F480201649C8610846C069CD
:1027B00000F48020019000BF00BF00BF0846806980
:1027C00040F0080088610846806900F00800019028
:1027D00000BF00BF0815029002200390032005905F
:1027E00002A90C48FEF7FEF94FF4006002900020A9
:1027F0000390049002A90748FEF7F4F906B010BD53
:102800000038014000100240000801400044004030
:1028100000480040000C014000BFFEE70EB500205C
:10282000009001900290124812490860002111485E
:102830008160017301754FF46021C16100200D4971
:10284000486001210B480161FDF7A2FF08B1FDF7C7
:10285000E4FE0620009001200190002002906946CD
:102860000448FDF7DDFE08B1FDF7D7FE0EBD000000
:10287000002401408000002000B585B000200190B8
:1028800002900390049000BF2B48806940F0200024
:10289000294988610846806900F02000009000BF47
:1028A00000BF00BF0846806940F004008861084608
:1028B000806900F00400009000BF00BF00BF084620
:1028C000806940F0080088610846806900F00800CF
:1028D000009000BF00BF012210211848FEF71CFB2A
:1028E00000224FF470411648FEF716FB10200190AD
:1028F0000120029003900220049001A90F48FEF7E6
:1029000071F94FF470400190012002900020039073
:102910000220049001A90A48FEF764F94FF4004030
:102920000190084802900020039001A90348FEF797
:1029300059F905B000BD0000001002400008014038
:10294000000C01400000111010B50B480B49086045
:102950000B484860002109488160C1604FF4804104
:102960000161002141618161C1610162FEF7E0FA0C
:1029700008B1FDF752FE10BD00540040B000002029
:10298000A086010000B591B000200F9010901C218E
:1029900008A8FDF73EFC20216846FDF73AFC2748D1
:1029A000274908600020486000212548816041F6E1
:1029B0001F41C16000210161416180218161FFF7F8
:1029C0007EFD08B1FDF729FE00200F9010900FA9A1
:1029D0001B48FFF7BBF908B1FDF71FFE6020089008
:1029E000002009900A900B900C900D900E90002200
:1029F00008A91348FFF7E5FC08B1FDF70EFE0C220D
:102A000008A90F48FFF7DDFC08B1FDF706FE00201E
:102A1000009001900290039004904FF400500590B4
:102A20000020079069460648FFF756F908B1FDF700
:102A3000F4FD0348FFF798FC11B000BD002C0140E5
:102A40000401002000B58BB0002007900890099089
:102A50000A900590069001900290039004904FF028
:102A60008040224908600020486000211F488160A2
:102A70004FF6FF71C160002101618161FFF7A8F984
:102A800008B1FDF7CAFD4FF48050079007A9174819
:102A9000FFF744FA08B1FDF7C0FD1448FFF72DFB1E
:102AA00008B1FDF7BAFD00200590069005A90F4872
:102AB000FFF74CF908B1FDF7B0FD002001900120AF
:102AC0000290002003900490002201A90748FFF71C
:102AD000AAFA08B1FDF7A1FD042201A90348FFF7F6
:102AE000A2FA08B1FDF799FD0BB000BD4C01002022
:102AF00000B587B0002005900690019002900390E9
:102B000004901B481B4908600020486000211948B8
:102B100081604FF6FF71C160002101618161FFF7A3
:102B2000ECFA08B1FDF779FD00200590069005A9A3
:102B30001048FFF70BF908B1FDF76FFD0020019079
:102B400001200290002003900490002201A909486E
:102B5000FFF769FA08B1FDF760FD042201A90548F5
:102B6000FFF761FA08B1FDF758FD07B000BD00009E
:102B7000000800409401002010B50B480B49086084
:102B80004FF4E1304860002108488160C160016174
:102B90000C21416100218161C161FFF754FD08B141
:102BA000FDF73BFD10BD000000380140DC010020B6
:102BB00010B50B480B4908604FF4E1304860002124
:102BC00008488160C16001610C214161002181617F
:102BD000C161FFF738FD08B1FDF71FFD10BD000012
:102BE000004400401C02002010B50B480B4908604F
:102BF0004FF416504860002108488160C1600161AF
:102C00000C21416100218161C161FFF71CFD08B108
:102C1000FDF703FD10BD0000004800405C020020ED
:102C200000BFFEE700BFFEE708B508490968C9080C
:102C30004FF47A72B1FBF2F14143009100BF00BF43
:102C400000994A1E00920029F9D108BD1C000020FD
:102C50001CB500BF1D48FDF72DFF0A211B48FDF7DD
:102C600071FE1A48FDF78CFD00F4007020B3174880
:102C7000FDF789FD1649088008460088FDF7B5FB79
:102C800080464FF06632134BFDF7CEFA064600221F
:102C9000114BFDF7C9FA04460022104BFDF7C4FAA8
:102CA000824600220E4BFDF731FBCDE90001FDF716
:102CB000A9FB00B20B49088010210B48FEF722F94E
:102CC0004FF4487000F067FBC4E70000800000206C
:102CD0000A00002066660A400000264000005940B5
:102CE0000000B0400C0000200008014000BF01209F
:102CF00000F051FBFBE7000010B500BF502080F34F
:102D00001188BFF34F8FBFF36F8F00BF01F04AF9F7
:102D100018B14FF080500449086000BF002080F3D4
:102D2000118800BF10BD000004ED00E000B593B0B5
:102D3000282109A8FDF76DFA142104A8FDF769FA06
:102D4000002000900190029003900120099000045F
:102D50000A9000200B9001200D9002201090C103DA
:102D600011914FF4E011129109A8FEF781FD08B10D
:102D7000FDF753FC0F2004900220059000200690E0
:102D80004FF48060079000200890022104A8FEF70D
:102D900017FC08B1FDF741FC02200090800302906F
:102DA0006846FEF775FB08B1FDF737FC13B000BDB0
:102DB0007047000010B50248FFF70AFA10BD000086
:102DC000F004002010B50268184B984208D0B0F10A
:102DD000804F05D0164B984202D0164B984203D133
:102DE00022F070024B681A43104B984208D0B0F1A1
:102DF000804F05D00E4B984202D00E4B984203D123
:102E000022F44072CB681A4322F080034C6943EAF3
:102E1000040202608B68C3620B688362034B9842B2
:102E200001D10B6903630123436110BD002C0140F4
:102E3000000400400008004030B501F01F050124E7
:102E400004FA05F3046A9C430462046A01F01F0556
:102E500002FA05F52C43046230BD30B50C4681689A
:102E600021F47F4142EA032525432943816030BD97
:102E70000A46816821F0700142F00703194381601E
:102E80007047000030B5056A25F001050562026A49
:102E90004368846924F0700424F003040D682C4313
:102EA00022F002028D682A430D4DA84206D100BFD0
:102EB00022F00802CD682A4322F00402084DA842FD
:102EC00007D123F4807323F400734D692B438D697C
:102ED0002B43436084614D684563026230BD00004E
:102EE000002C014030B5056A25F010050562026A24
:102EF0004368846924F4E04424F440740D6844EA8F
:102F0000052422F020028D6842EA05120E4DA842E7
:102F100007D100BF22F08002CD6842EA051222F0FC
:102F20004002094DA84209D123F4806323F40063D1
:102F30004D6943EA85038D6943EA850343608461F3
:102F40004D688563026230BD002C014030B5056AD2
:102F500025F480750562026A4368C46924F0700430
:102F600024F003040D682C4322F400728D6842EAB9
:102F700005220F4DA84207D100BF22F40062CD68A0
:102F800042EA052222F48062094DA84209D123F4C5
:102F9000805323F400534D6943EA05138D6943EAD6
:102FA00005134360C4614D68C563026230BD000013
:102FB000002C014030B5056A25F480550562036A8E
:102FC0004468C26922F4E04222F440720D6842EA89
:102FD000052223F400538D6843EA0533064DA842C9
:102FE00004D124F480444D6944EA85144460C261EC
:102FF0004D680564036230BD002C014030B50B46BE
:103000001446026A056A25F001050562816921F00E
:10301000F00141EA041122F00A021A4381610262BE
:1030200030BD000070B50C461546066A26F0010654
:1030300006628169026A124EB04208D0B0F1804F38
:1030400005D0104EB04202D00F4EB04201D1012641
:1030500000E000261EB121F00301294301E041F008
:10306000010121F0F001F02606EA0316314322F0B7
:103070000A0204F00A0632438161026270BD000058
:10308000002C0140000400400008004030B50B4611
:103090001446056A25F0100505628169026A21F46B
:1030A000704141EA043122F0A00242EA0312816138
:1030B000026230BD70B50C461546066A26F0100651
:1030C00006628169026A21F4407141EA052121F416
:1030D00070414FF4704606EA0336314322F0A002F5
:1030E000A02606EA041632438161026270BD70B503
:1030F0000C461546066A26F480760662C169026AA5
:1031000021F00301294321F0F001F02606EA03161D
:10311000314322F400724FF4007606EA042632436B
:10312000C161026270BD70B50C461546066A26F490
:1031300080560662C169026A21F4407141EA0521A4
:1031400021F470414FF4704606EA0336314322F40D
:1031500000524FF4005606EA04363243C16102625F
:1031600070BD000070B504462168096921F4405122
:10317000E2681143226811612269A1681143626902
:1031800041EA02052168C96841F20C629143294372
:103190002268D1602168496921F44071A269114314
:1031A000226851612D4A2168914202D1FEF706FB47
:1031B00001E0FEF7F3FA00EBC00101EB00116268D9
:1031C0009200B1FBF2F100EBC00202EB0012636867
:1031D0009B00B2FBF3F26423B2FBF3F202EBC203F7
:1031E00003EB0212A1EB8201322202EB01116422F5
:1031F000B1FBF2F101F0F00100EBC00202EB0012B2
:1032000063689B00B2FBF3F26423B2FBF3F201EBC1
:10321000021200EBC00101EB001163689B00B1FBDF
:10322000F3F100EBC00303EB00136668B600B3FBD9
:10323000F6F36426B3FBF6F303EBC30606EB0313C6
:10324000A1EB8301322303EB01116423B1FBF3F102
:1032500001F00F0111442268916070BD00380140F7
:1032600000BFFEE702480068C0F30220704700007C
:103270000CED00E010B5002804DB0A07130E054A28
:10328000135406E00A07140E034A00F00F031B1F35
:10329000D45410BD00E400E018ED00E002E008C8DE
:1032A000121F08C1002AFAD170477047002001E0C0
:1032B00001C1121F002AFBD1704700008EB0FDF73C
:1032C00071FFFFF733FDFFF7D7FAFFF73DFBFFF77D
:1032D000B9FBFFF70DFCFFF74FFCFFF769FCFFF7A9
:1032E00083FCFFF79BFAFFF74DFB00212048FFF717
:1032F00033F90C211E48FFF72FF900224FF48051BB
:103300001C48FDF709FE012251031A48FDF704FE8F
:1033100000224FF480411748FDF7FEFD0122D10342
:103320001448FDF7F9FD4FF4FA701349086012498B
:103330000C3108601C22114907A8FCF751FF00213D
:1033400007A800F039F80E4908601C220B491C310F
:103350006846FCF745FF0021684600F02DF8094952
:10336000086000F024F802E0012000F03DFCFBE7DB
:1033700004010020000C0140342C0140F041000801
:10338000000000200400002001460020842901D014
:10339000CA1C1044704770B5044625460DB1294635
:1033A00000E00121084600F01FFC002070BD10B5B0
:1033B00000F048FC002010BD7FB504460D46606952
:1033C00098B1A06988B1B4F90800FFF7DDFF06469F
:1033D000D4E90510CDE9006102902B462269D4E9B9
:1033E000001000F083FD039013E0B4F90800FFF72C
:1033F000CBFF064603A8CDE90060238A9AB22B468C
:10340000D4E9001000F040FD012802D0002004B0F3
:1034100070BD0398FBE700002DE9F04105460E461C
:103420001C4807681C480068001D00F0E1FA50B90C
:103430001948006890F82C10012088401749096845
:10344000814316480160681C38B936B112480168DA
:10345000091D134800F016FB1AE07C190E4800689D
:103460004460BC4207D20C480168091D0D48006841
:1034700000F0EEFA0CE008480168091D0A480068EF
:1034800000F0E6FA09480068844201D20748046067
:10349000BDE8F0813400002020000020380000202A
:1034A00014060020280000202400002050000020E6
:1034B00010B5044600F0F2FA23480068401C224987
:1034C00008602248006840B9204804600846006847
:1034D00001280DD100F03AF90AE01D48006838B91A
:1034E0001A480068C06AE16A884201D81748046037
:1034F00018480068401C1749086094F82C100120F7
:10350000884015490968084313490860E16A01EBDE
:103510008101124A02EB8100211D00F0B3FA00F094
:10352000E7FA0B48006868B108480068C06AE16AB9
:10353000884207D24FF0805009490860BFF34F8F8F
:10354000BFF36F8F10BD000030000020200000206E
:103550003C0000204C0000203800002038050020EE
:1035600004ED00E010B516E000F098FA0C48C068D1
:10357000C468201D00F03CFA0A480068401E094952
:10358000086009480068401E0749086000F0B0FA6A
:10359000204600F00BF8044800680028E4D110BD74
:1035A00000060020300000202C00002010B504464A
:1035B00094F8510030B9206B00F0B8FA204600F0C2
:1035C000B5FA1AE094F85100012803D1204600F022
:1035D000ADFA12E094F85100022801D1012000E078
:1035E000002050B900BF502080F31188BFF34F8FE7
:1035F000BFF36F8F00BF00BFFEE710BD30B54FF4C3
:103600004063174800F007042CB1C01D20F00700EC
:10361000134C041B1B1B0246124C22600024114D4C
:103620006C60D018083820F007000F4C2060002490
:103630000D4D2D686C600C4D2D682C601146441AA0
:103640004C60094C24680C60084D4C682C60084D97
:103650004C682C604FF00044064D2C6030BD0000DB
:10366000280600205C000020640000206C00002080
:10367000680000207000002000BFFFF773FF0648BD
:1036800000680128F9D94FF0805004490860BFF361
:103690004F8FBFF36F8FF0E73805002004ED00E097
:1036A0002DE9FF5F81460F469246DDE90E6B109CC7
:1036B000AAF10100216B01EB800828F0070808F04F
:1036C000070008B9012000E0002050B900BF5020D9
:1036D00080F31188BFF34F8FBFF36F8F00BF00BF20
:1036E000FEE7002507E0795D04F134004155785D7F
:1036F00000B902E06D1C102DF5D300BF002143205E
:103700000155072E00D30626E66266640020A064F9
:10371000201D00F09AF904F1180000F096F92461D8
:10372000C6F10700A06164620020E06484F85000E4
:1037300049464046039A00F049F92060BBF1000F6A
:1037400001D0CBF80040BDE8FF9F000010B5002479
:1037500007E004EB84010F4A02EB810000F068F9F6
:10376000641C072CF5D30C4800F062F90B4800F0FC
:103770005FF90B4800F05CF90A4800F059F90A4873
:1037800000F056F9044809490860044808490860EF
:1037900010BD000038050020C4050020D805002019
:1037A000EC05002000060020140600202400002064
:1037B0002800002010B50146164800E000680368A4
:1037C0008B42FBD30246436813448B4204D14368C7
:1037D0004C682344436001460A464B68134404681E
:1037E000A34211D10C4C03682468A34208D04B6853
:1037F0000468646823444B6003681B680B6005E041
:10380000054B1B680B6001E003680B60884200D029
:10381000016010BD5C000020640000200A490968B6
:10382000096809B9012100E0002121B14FF0FF3101
:10383000064A116006E004490968C968C868034A75
:1038400041681160704700002400002050000020F3
:103850000E480068401C08B9012000E0002050B963
:1038600000BF502080F31188BFF34F8FBFF36F8FDD
:1038700000BF00BFFEE700BF502080F31188BFF3F8
:103880004F8FBFF36F8F00BF00BFFEE774000020B3
:103890002DE9F04104464FF0000800F02BFA4648AD
:1038A000006808B9FFF7AAFE4448006820400028D5
:1038B0006BD1D4B1083404F00700B0B104F00700B4
:1038C000C0F10800044404F0070008B9012000E03A
:1038D000002050B900BF502080F31188BFF34F8FF4
:1038E000BFF36F8F00BF00BFFEE7002C4DD0344800
:1038F0000068844249D8334E3046056801E02E46C0
:103900002D686868A04202D228680028F7D12A48AA
:103910000068854239D0306800F1080828683060B6
:103920006868001B102819D92F1907F0070008B97B
:10393000012000E0002050B900BF502080F3118822
:10394000BFF34F8FBFF36F8F00BF00BFFEE7686804
:10395000001B78606C603846FFF72CFF18496868D8
:103960000968081A16490860084600681649096877
:10397000884203D212480068134908600F496868FA
:103980000968084368600020286000F0AFFB08F079
:10399000070008B9012000E0002050B900BF502006
:1039A00080F31188BFF34F8FBFF36F8F00BF00BF4D
:1039B000FEE74046BDE8F081640000207000002072
:1039C000680000205C0000206C000020001F4FF009
:1039D00080730360001F21F001030360001F034B8D
:1039E0000360143802602038704700005138000826
:1039F00001460A69D1E901309860D1E901035860B4
:103A00005068884201D188685060002008611068C1
:103A1000401E106010687047034B0360034B0B603F
:103A200080231360704700009C020020F0020020F9
:103A300000F1080141604FF0FF31816000F10801A1
:103A4000C160016100210160704700210161704780
:103A500010B502460B685C1C0CB9106907E002F156
:103A6000080000E04068446824689C42FAD9446831
:103A70004C604C68A160886041600A611468641CF5
:103A8000146010BD42684A6093688B609368596007
:103A90009160086103685B1C0360704700BF5020A1
:103AA00080F31188BFF34F8FBFF36F8F00BF0E48B5
:103AB0000068401C0C49086008460068012812D1C3
:103AC0000A480068C0B208B9012000E0002050B9DF
:103AD00000BF502080F31188BFF34F8FBFF36F8F6B
:103AE00000BF00BFFEE770477400002004ED00E057
:103AF0000D48006850B900BF502080F31188BFF313
:103B00004F8FBFF36F8F00BF00BFFEE7064800680E
:103B1000401E054908600846006820B9002080F36F
:103B2000118800BF00BF70477400002070B50646C2
:103B30003546002E3FD0083D2C461F496068096875
:103B4000084008B1012000E0002050B900BF50201B
:103B500080F31188BFF34F8FBFF36F8F00BF00BF9B
:103B6000FEE7206808B9012000E0002050B900BF3E
:103B7000502080F31188BFF34F8FBFF36F8F00BFCA
:103B800000BFFEE70C4960680968084098B12068EA
:103B900088B90949606809688843606000F0AAF83C
:103BA0000649606809680844044908602046FFF730
:103BB00001FE00F09BFA70BD70000020680000203C
:103BC00000204FF0E02108618861064800684FF44A
:103BD0007A71B0FBF1F0401E4FF0E0214861072000
:103BE000086170471C00002070B504460025D4B160
:103BF0001248006808B9012000E0002050B900BF59
:103C0000502080F31188BFF34F8FBFF36F8F00BF39
:103C100000BFFEE700F06EF800212046FFF7FCFB36
:103C200000F064FA05463DB94FF080500449086041
:103C3000BFF34F8FBFF36F8F70BD0000580000209F
:103C400004ED00E010B586B000200590049003AAB2
:103C500004A905A8FFF7E0FE0022DDE904101346E1
:103C6000CDE9002102901CA11D48039A00F03EF905
:103C70001C4908600846006808B1012400E00024DF
:103C8000012C15D100BF502080F31188BFF34F8F56
:103C9000BFF36F8F00BF4FF0FF3013490860012062
:103CA0001249086000201249086000F071F810E025
:103CB000601C08B1012000E0002050B900BF502076
:103CC00080F31188BFF34F8FBFF36F8F00BF00BF2A
:103CD000FEE706B010BD000049444C45000000005E
:103CE0007936000854000020500000203C000020DD
:103CF0003400002002480068401C014908607047F9
:103D0000580000201D48006818B101201C490860B7
:103D100032E000201A4908601A480068B0FA80F0C2
:103D2000C0F11F0101EB8100174A52F8200008B1D1
:103D3000012000E0002050B900BF502080F311881E
:103D4000BFF34F8FBFF36F8F00BF00BFFEE701EBE4
:103D500081020D4B03EB820042685268426000F121
:103D600008024368934202D1426852684260426846
:103D7000D268064B1A6000BF704700005800002050
:103D800044000020380000203805002020000020DA
:103D90001CB53849084600780190FF200A4610708B
:103DA0000846007800909DF8000000F0F0009DF8B3
:103DB0000020904201D1012000E0002050B900BF56
:103DC000502080F31188BFF34F8FBFF36F8F00BF78
:103DD00000BFFEE79DF8000000F05000264A10707A
:103DE0000720264A106009E024480068401E234A44
:103DF00010609DF800004006000E00909DF8000045
:103E000000F080008028EFD01C480068C0F1070057
:103E1000042801D1012000E0002050B900BF50204B
:103E200080F31188BFF34F8FBFF36F8F00BF00BFC8
:103E3000FEE7124800680002104A10601046008831
:103E400000F4E06010600B4A019810700C480068A4
:103E500040F470000A4908600846006840F070406D
:103E60000860FFF7ADFE002006490860FCF75CF92A
:103E700000201CBD00E400E0780000207C00002051
:103E800020ED00E0740000202DE9FF4F85B0804652
:103E900089461746DDE912ABB800FFF7F9FC064684
:103EA00056B15420FFF7F4FC04460CB1266304E03D
:103EB0003046FFF73BFE00E000248CB1002084F880
:103EC0005100CDE900ABCDE902403A4649464046B3
:103ED000089BFFF7E5FB2046FFF7EAFA012501E022
:103EE0004FF0FF35284609B0BDE8F08F2DE9F04FBF
:103EF00085B00746884691469A46DDE90EB6109C85
:103F00000EB1012000E0002050B900BF502080F326
:103F10001188BFF34F8FBFF36F8F00BF00BFFEE765
:103F20000CB1012000E0002050B900BF502080F308
:103F30001188BFF34F8FBFF36F8F00BF00BFFEE745
:103F4000542003900398542801D1012000E0002060
:103F500050B900BF502080F31188BFF34F8FBFF3DB
:103F60006F8F00BF00BFFEE7B4B1AEB125462C464F
:103F70002E63022085F85100002004A953464A46CA
:103F8000CDE900B1CDE9025041463846FFF788FB44
:103F90002846FFF78DFA01E000200490049805B050
:103FA000BDE8F08F2DE9F0414FF00008444800686B
:103FB000002877D143480068451C4248056015BB7E
:103FC00041480068006808B9012000E0002050B9AD
:103FD00000BF502080F31188BFF34F8FBFF36F8F66
:103FE00000BF00BFFEE73848076838480068364918
:103FF00008603648076036480068401C344908604D
:10400000FFF70CFC00BF3348006885423CD300BF7B
:104010002D480068006808B9012000E0002020B1A8
:104020004FF0FF302B4908602DE027480068C0683A
:10403000C4686668B54202D22648066023E0201DA7
:10404000FFF7D6FCA06A18B104F11800FFF7D0FC06
:1040500094F82C10012088401F49096808431E4924
:104060000860E16A01EB81011C4A02EB8100211D1D
:10407000FFF708FD1A49E06A0968C96A8842C7D390
:104080004FF00108C4E700BF15480068C06A00EBA4
:104090008000124951F82000012801D94FF0010891
:1040A00005E0FFE70F480068401C0E4908600E4815
:1040B000006808B14FF001084046BDE8F0810000FB
:1040C0005800002034000020240000202800002098
:1040D0004800002050000020380000203805002053
:1040E00020000020400000204400002070B5002483
:1040F00000263648006850B900BF502080F3118870
:10410000BFF34F8FBFF36F8F00BF00BFFEE7FFF716
:10411000C5FC2E480068401E2C490860084600680F
:1041200000284FD12A48006800284BD024E02948B5
:10413000C068C46804F11800FFF75AFC201DFFF79F
:1041400057FC94F82C100120884023490968084343
:1041500021490860E16A01EB8101204A02EB8100FC
:10416000211DFFF78FFC1E49E06A0968C96A884271
:1041700002D301201B4908601648006808B90120D5
:1041800000E000200028D2D00CB1FFF747FB164812
:10419000056865B100BFFFF705FF10B101201149A7
:1041A00008606D1E002DF6D100200F4908600D48F3
:1041B000006838B1012630070C490860BFF34F8F03
:1041C000BFF36F8FFFF794FC304670BD580000209E
:1041D00030000020EC0500203800002038050020C9
:1041E00020000020440000204000002004ED00E0FA
:1041F0004C420008512C00080000000000000000A4
:1042000080000000000000000000000040420008A4
:10421000ED2C0008000000000000000080000000FD
:10422000000000000000000000000000000000008E
:10423000010203040607080900000000010203044C
:104240006E6F6E626C6F636B000000006465666188
:10425000756C745461736B00784200080000002094
:10426000800000009C320008F84200088000002016
:10427000A8150000AC32000800000000000000009B
:10428000000000000000000000000000100000001E
:10429000010000000024F400000000000000000005
:1042A000000000000000000000000000000000000E
:1042B00000000000000000000000000000000000FE
:1042C00000000000000000000000000000000000EE
:1042D00000000000000000000000000000000000DE
:1042E000000000000000000000000000AAAAAAAA26
:0842F0000000000000000000C6
:04000005080000ED02
:00000001FF
